:10000000FFC1000006C4000013C400002BC20000A2
:1000100014C2000012C2000010C200000EC2000094
:100020000CC200000AC2000008C2000006C20000A4
:1000300004C2000002C2000000C20000FEC10000B5
:100040000C94A111FAC10000F8C10000F6C1000033
:10005000F4C10000F2C10000F0C10000EEC10000D8
:10006000ECC10000EAC10000E8C10000E6C10000E8
:10007000557365206C65667420736C6964657200E5
:100080002D3E525F42544E00436F6E747261737422
:10009000004D75736963004F7074696F6E7300462D
:1000A0006C6170707920506978656C00537175616E
:1000B00073682D73696D0047616D657300466C61EF
:1000C00070707920506978656C0053717561736840
:1000D0002D73696D004869676873636F726500000E
:1000E0000000000000000000065F5F060000000046
:1000F00007070007070000147F7F147F7F14002488
:100100002E6B6B3A120000466630180C66620030A7
:100110007A4F5D377A4800040703000000000000B2
:100120001C3E63410000000041633E1C00000008CB
:100130002A3E1C1C3E2A0808083E3E080800000013
:10014000A0E060000000000808080808080000009F
:10015000006060000000006030180C060301003EE3
:100160007F594D7F3E000042427F7F404000006249
:100170007359496F660000226349497F36000018B1
:100180001C16137F7F1000276745457D3900003C12
:100190007E4B4979300000036371190F0700003668
:1001A0007F49497F360000064F49693F1E00000025
:1001B000006C6C0000000000A0EC6C000000000867
:1001C0001C366341000000141414141414000000C1
:1001D0004163361C080000020351590F0600003E1F
:1001E0007F415D5D1F1E007C7E13137E7C000041FD
:1001F0007F7F49497F36001C3E63414163220041B5
:100200007F7F41637F1C00417F7F495D41630041E7
:100210007F7F491D0103001C3E6341517372007FC3
:100220007F08087F7F000000417F7F410000003091
:100230007040417F3F0100417F7F081C7763004190
:100240007F7F41406070007F7F060C067F7F007FCC
:100250007F060C187F7F001C3E6341633E1C0041FB
:100260007F7F49090F06001E3F21717F5E0000411C
:100270007F7F19396F460026674D597B3200000396
:10028000417F7F410300007F7F40407F7F00001F50
:100290003F60603F1F00007F7F3018307F7F00632A
:1002A000771C081C776300074F78784F07000067BA
:1002B00073594D47637100007F7F41410000000189
:1002C00003060C183060000041417F7F00000008E9
:1002D0000C0603060C0800808080808080808000EF
:1002E00000030704000000207454543C784000418F
:1002F0003F7F44447C3800387C44446C2800003004
:100300007848493F7F4000387C54545C18000048CE
:100310007E7F490302000098BCA4A4F87C0400413D
:100320007F7F08047C780000447D7D400000004011
:10033000C484FD7D000000417F7F10386C440000C4
:10034000417F7F400000007C7C0C180C7C78007C96
:100350007C04047C780000387C44447C38000084B1
:10036000FCF8A4243C1800183C24A4F8FC840044A5
:100370007C78441C180000485C545474240000002D
:10038000043E7F442400003C7C40403C7C40001CF8
:100390003C60603C1C00003C7C6030607C3C004465
:1003A0006C3810386C44009CBCA0A0FC7C00004C55
:1003B00064745C4C64000008083E77414100000012
:1003C000000077770000004141773E0808000002F6
:1003D000030103020301006686B07070B0866600F8
:1003E0007E424242427E00007E7E7E7E7E7E00FF16
:1003F0008080808080808001010101010101FF0077
:1004000011241FBECFEFD4E0DEBFCDBF12E0A0E0CD
:10041000B1E0EEE1F4E302C005900D92A230B10725
:10042000D9F722E0A2E0B2E001C01D92AA3DB207D6
:10043000E1F70E94C20C0C940D1AE2CD8EE092E01E
:10044000089590930402809303026093050266234B
:1004500041F086E092E0FC0111922E2F281B261716
:10046000D8F308951F920F920FB60F9211248F9315
:1004700081E0809302028F910F900FBE0F901F902A
:100480001895F89486B78E7F86BF8BB780628BBF36
:10049000789408953CD168E084E190E0D2DF4FEF9A
:1004A00050E064E680E61AD14FEF50E064E680E762
:1004B00015D141E050E061E08BE210D141E050E025
:1004C00062E08BE20BD140E050E060EE8FE006D1BD
:1004D000D8CF089504C08BE591E00E94D9158CE235
:1004E000DFD080FD04C08CE2DBD081FFF4CF8CE252
:1004F000D7D080FF07C040E050E061E08CE2EED052
:1005000080E008958CE2CCD081FF07C040E050E04D
:1005100062E08CE2E3D081E008958FEF08951F93AD
:10052000CF93DF93809102028823A1F110920202FF
:10053000D1DF182F1295107F81E6810FB1D0EC0129
:1005400082E6810FADD0829586958770DD27CC0F2E
:10055000DD1FCC0FDD1FCC0FDD1FC82BD0930F028A
:10056000C0930E0285E6810F9BD08F70809310029E
:10057000882391F010E0C0E1D2E086E6810F90D0B0
:10058000E12FF0E0E25FFD4F83831F5F8881181742
:10059000A0F304C080E003C081E001C081E0DF91EE
:1005A000CF911F910895CF93DF93C4E0D0E002C0B4
:1005B000CC0FDD1F8A95E2F78CE272D08C239D234D
:1005C000892BD1F381E0DF91CF910895FF920F93B2
:1005D0001F93CF93DF93EC01062FF62EFF0CFF0C39
:1005E000FF0CFF0C28813981B901759567957595C8
:1005F00067957595679581E38F0D43D02881398183
:10060000B901660F771F62957295707F7627607FBC
:10061000762782E38F0D35D06A816F7070E085E3B5
:100620008F0D2FD08A81882379F010E086E3F80EB1
:10063000FE01E10FF11D638170E08F2D810F21D04C
:100640001F5F8A811817A0F3802F38D0802FABDF6F
:10065000DF91CF911F910F91FF9008952091050296
:10066000222359F0382FA6E0B2E0E82FF92F81912C
:100670008D938E2F831B8217D0F383E092E0A6CF59
:100680000895CF93DF93D82FC62F4ED082E042D06B
:100690008D2F40D08C2F3ED049D0DF91CF9108953F
:1006A000CF93C82F41D083E035D08C2F33D036D0B4
:1006B000C82F3CD08C2F90E0CF910895CF93C82FB6
:1006C00033D021E030E0C90102C0880F991FCA95DC
:1006D000E2F780681FD02AD0CF9108951F93CF935F
:1006E000DF93182FD62FC42F1FD085E013D0812F72
:1006F00011D08D2F0FD08C2F0DD018D0DF91CF912E
:100700001F91089511D080EC05D010C0089510D02D
:10071000F9CF08958FB9779BFECF089580E0FADF77
:10072000779BFECF8FB10895C4980895C49A089519
:10073000BE9887B3806B87BB8DB180658DB9F6CFCE
:1007400008955D9BFECF8CB908955F9BFECF8CB161
:1007500090E0089510BC8FE189B988E18AB965EA13
:1007600073E081EA93E00C94791508958230910545
:1007700071F01CF4019739F01CC08330910559F0D9
:10078000049769F016C084E1809300140BC085E1E2
:100790008093001407C086E18093001403C087E1B2
:1007A0008093001482E58A95F1F78091001490E01F
:1007B000089580E090E00895BA9ABB9A85B7816069
:1007C00085BF85B7826085BF85B7846085BF85B7E3
:1007D000886085BF8BB780648BBF8BB780688BBF09
:1007E000C19AB9981092490210924A0208958091D4
:1007F0004A02813019F410924A02089580E0089567
:1008000080914902813019F410924902089580E0E4
:1008100008951F920F920FB60F9211248F9381E0CB
:10082000809349028F910F900FBE0F901F901895E3
:100830001F920F920FB60F9211248F9381E0809335
:100840004A028F910F900FBE0F901F90189586B39C
:100850008695817091E089270895F9DF81110AC09A
:10086000C6DF811109C0CCDF91E0811101C090E0A9
:10087000892F089581E0089581E0089587E00E941E
:10088000F60D8BE791E00E94040E0E94A00F1092DB
:1008900023028CE891E09F938F930E94C3150F90E1
:1008A0000F9003C0A4DF80932302AADF909123025C
:1008B000892BC1F30C94A90F08950F931F93CF9325
:1008C000DF930E94A90F80E00E94F60D8FE891E06F
:1008D0000E94040E0E94A00F88EE93E00E94B011C7
:1008E00020E04CE668E084E40E947A0E28E04CE6C2
:1008F00060E084E40E947A0E0E94A00F88EE93E0EC
:100900000E94B01182E00E94F60D84E40E94FD0D69
:100910008DE991E00E94040E0E94A00F84EF91E007
:100920000E94B011D0E110E112C000E021E048E1E6
:1009300060E08C2F0E946710CF5FC034B1F78EE16A
:1009400090E00E94B0110E94A00FD15011F0C12F71
:10095000ECCF94DFDF91CF911F910F910895CF934A
:10096000DF93D82FC62F8C3238F02BE2462F60E071
:100970008C2F0E947A0E17C0843138F42FE3462F53
:1009800064E18C2F0E947A0E0EC026EF280F462FAE
:1009900060E08C2F0E947A0E6AE06D0F2FE34C2FDF
:1009A0008C2F0E947A0EDF91CF910895CF92DF9223
:1009B000EF92FF9220910C0130910D0140910E01B8
:1009C00050910F0160911D0270911E0280911F02D3
:1009D000909120020E94651260931D0270931E0286
:1009E00080931F029093200202DFF82E09DF8F29E7
:1009F000B1F020E030E040E85FE360911D027091CB
:100A00001E0280911F02909120020E946412609346
:100A10001D0270931E0280931F0290932002C090CB
:100A20001D02D0901E02E0901F02F090200220E0F4
:100A300030E040E85FE3C701B6010E9418141816C1
:100A40006CF480E090E0A0E8BFE380931D029093F7
:100A50001E02A0931F02B093200216C020E030E0D7
:100A600040E85FEBC701B6010E94C912882364F415
:100A700080E090E0A0E8BFEB80931D0290931E02FF
:100A8000A0931F02B093200220911D0230911E02FC
:100A900040911F02509120026091190270911A0238
:100AA00080911B0290911C020E9465126B017C01D7
:100AB0006093190270931A0280931B0290931C0298
:100AC00020E030E04CE752E40E941814882324F020
:100AD00081E0809321020CC020E030E0A901C70131
:100AE000B6010E94C91218161CF081E08093210201
:100AF000C701B6010E94351360932202FF90EF9068
:100B0000DF90CF90089580912202E82FF0E0F595D4
:100B1000E795F595E795F595E795F695FE2FEE2780
:100B2000F795E7953A962091100130911101E20F67
:100B3000F31F208130E08770A90102C055954795C9
:100B40008A95E2F7CA0181700895CF93DF9380E020
:100B500090E0E0911001F0911101E80FF91F10826F
:100B600080589F4F811524E0920799F760E070E06C
:100B7000B8E019C02091100130911101F901E80F7E
:100B8000F91FAC014F5F5F4FE901C40FD51F2881EA
:100B90002083A15080589F4FA111ECCF6F5F7F4FF2
:100BA0006F37710519F0CB01AB2FE4CF8FE790E0E1
:100BB000E0911001F0911101E80FF91F10828058A7
:100BC0009F4F8F3724E0920799F780910A01909107
:100BD0000B018917A8F00E94641566E370E00E947B
:100BE0007F146FE78B5FBBDE10920A0180912402B5
:100BF000909125020196909325028093240203C0D0
:100C00008F5F80930A01DF91CF9108958F929F9219
:100C1000AF92BF92CF92DF92EF92FF920F931F930A
:100C2000CF93DF930E94A00F83EA91E09F938F936D
:100C30000E94C3150F900F900F2EFCE8CF2EF1E00D
:100C4000DF2EF02D0F2EF5E08F2EF02D0AE010E0B4
:100C50000F2EF6EAEF2EF1E0FF2EF02D4EC00E948F
:100C60009511882349F0A2DE609122028AE00E9459
:100C70005E0E6BDF0E94A00FBADD882309F43DC031
:100C800080E0B4D780E0B9D783E575D7C09124025E
:100C9000D0912502DF92CF920E94C3150F900F9042
:100CA000982C892DA3D780E0A8D7209779F0CE0182
:100CB000B8010E947F145C0180E38A0D5CD7CE01ED
:100CC0008A199B09B8010E947F14EB019A9481E074
:100CD0009812E7CF87E08AD780E08FD780E54BD79F
:100CE0000E94A00F84DDC82F8BDD8C2BD9F3FF92DF
:100CF000EF920E94C3150F900F9005DF811105C080
:100D000080912102882309F4AACF89EA91E09F9378
:100D10008F930E94C31588EE93E00E94B0110E9449
:100D2000A90F80E063D788E168D78CEA91E06CD79F
:100D300081E05CD780E261D787EB91E065D7809155
:100D400024029091250274D70E94A00F0F900F905B
:100D5000DF91CF911F910F91FF90EF90DF90CF9097
:100D6000BF90AF909F908F900895CF92DF92EF92B7
:100D7000FF92CF93DF9382B790E00E9467151092A5
:100D800023029BDD80912302813079F10F2EC12C4B
:100D9000D12CF0E8EF2EFFE3FF2EF02DD1E0C4E6DA
:100DA00010922102C0921902D0921A02E0921B0204
:100DB000F0921C02D093220210921D0210921E0289
:100DC00010921F0210922002C0930B011092250274
:100DD000109224021BDF86E009D78FEB91E014D735
:100DE0004DDD809123028130D9F680E090E0DF91E3
:100DF000CF91FF90EF90DF90CF900895CF93DF9346
:100E00008EDB882331F11ADBFC01808191814E97C2
:100E100001F50E94A90F80E0E9D68DEC91E0F4D6AF
:100E20000E94A00F83E0E2D687EB91E0EDD606DBCF
:100E3000FC01C381D0E0DC2FCC2700DBFC018481E6
:100E40009E01282BC901F4D60E94A00F81E0809357
:100E50002902DF91CF9108951092120188E504D202
:100E6000909354028093530220912D02332727FD43
:100E700030958217930739F080932D0280934B02AF
:100E800081E08093120189E5EFD190935402809321
:100E9000530220912C02332727FD309582179307A8
:100EA00039F080932C0280934C0281E080931201F0
:100EB000CEDC282F30E0309354022093530240912F
:100EC000280250E02417350739F0809328028093D8
:100ED0004D0281E0809312018ADC282F30E03093AC
:100EE0005402209353024091270250E02417350703
:100EF00039F08093270280934E0281E080931201A3
:100F00007FDC282F30E0309354022093530240912D
:100F1000260250E02417350739F08093260280938B
:100F20004F0281E0809312018CE49ED19093540291
:100F30008093530220912B0230E08217930739F0FF
:100F400080932B028093500281E08093120182E50E
:100F50008BD124E630E0A901481B590B5093540271
:100F60004093530220912A0230E04217530741F088
:100F700040932A024093510281E08093120104C001
:100F800080911201882341F068E084E190E059DA11
:100F900060E08BE492E062CB0895CF939CE990935C
:100FA0004B02C4E6C0934C0270934D0260934E0214
:100FB00010924F02C09350028093510288E554D1A1
:100FC00080932D0289E550D180932C028CE44CD182
:100FD00080932B0282E548D1C81BC0932A0237DCDC
:100FE0008093280204DC809327020ADC8093260287
:100FF0001092290267E08AE090E023DA60E08BE457
:1010000092E02CDBCF9108956AE070E081E0C5DFCB
:10101000109229029ED780E0E9D58DEC91E0F4D5BD
:101020008FD783E0E3D587EB91E0EED580912E0258
:1010300090912F02FDD5EBE4F2E083E592E011926E
:10104000E817F907E1F768E084E190E0FAD960E099
:101050008BE492E003DB80912902811106C0FCDE63
:10106000CDDE809129028823D1F3F7DB8823E9F3D1
:1010700008950F931F93CF93DF93C4E6D0E00091C0
:101080003A0210913B0281E090E070DB01581F4F63
:10109000081B190B10933B0200933A02009138028F
:1010A0001091390282E090E061DB01581F4F081B6C
:1010B000190B109339020093380221972097F9F603
:1010C00080913A0290913B0224E630E0B9010E94FF
:1010D0007F1470933B0260933A02809138029091A2
:1010E0003902B9010E947F1470933902609338026B
:1010F000DF91CF911F910F9108952F923F924F92C0
:101100005F926F927F928F929F92AF92BF92CF9297
:10111000DF92EF92FF920F931F93CF93DF9300D054
:1011200000D000D0CDB7DEB73C017A8369835C8301
:101130004B833E832D8318018501B901882777FDF4
:101140008095982F0E9468134B015C01B3016E0DCE
:101150007F1D29813A81621B730B882777FD80955B
:10116000982F0E9468132B013C01B1018D819E8153
:10117000681B790B882777FD8095982F0E9468134C
:101180009B01AC01C301B2010E941C142B013C0164
:101190006B817C81E981FA816E1B7F0B882777FD4B
:1011A0008095982F0E9468139B01AC01C301B20186
:1011B0000E94CD129B01AC01C501B4010E946512D1
:1011C0000E943513C101801B910B6817790774F5D4
:1011D0008D819E81800F911F861797074CF5F8012E
:1011E00011230CF43196F595E795D80112C08A0FBA
:1011F0009B1FAC014E0F5F1F6417750714F0690148
:101200000BC0C6018E1B9F0B8617970714F0C01AE0
:10121000D10AC601801B910B9601200F311F621766
:1012200073072CF78617970714F704C0610102C0F3
:10123000CD80DE80C60126960FB6F894DEBF0FBEC5
:10124000CDBFDF91CF911F910F91FF90EF90DF9075
:10125000CF90BF90AF909F908F907F906F905F9056
:101260004F903F902F900895AF92BF92CF92DF9210
:10127000EF92FF920F931F93823509F46EC020F412
:101280008C3409F44AC089C0883519F0893519F1C0
:1012900084C0C0903602D0903702E0903A02F090BD
:1012A0003B0281E090E062DA0F2EFAE0AF2EB12C23
:1012B000F02D04E610E02CE93FEF4FEF50E060E046
:1012C00070E01BDF909337028093360280913602E4
:1012D0009091370264C0C0903402D0903502E09003
:1012E0003802F090390282E090E040DA0F2EFAE006
:1012F000AF2EB12CF02D04E610E02CE93FEF4FEFBC
:1013000050E060E070E0F9DE9093350280933402A3
:10131000809134029091350242C0C0903202D09048
:10132000330283E090E022DA0F2EFAE0AF2EB12CE8
:10133000F02DE12CF12C04E610E020E030E04FEF3E
:1013400050E060E070E0D9DE909333028093320287
:10135000809132029091330222C0C0903002D0902E
:10136000310284E090E002DA0F2EFAE0AF2EB12CC9
:10137000F02DE12CF12C04E610E020E030E04FEFFE
:1013800050E060E070E0B9DE90933102809330026B
:10139000809130029091310202C080E090E01F9174
:1013A0000F91FF90EF90DF90CF90BF90AF90089596
:1013B00060DE88E559DF909337028093360289E535
:1013C00053DF90933502809334028CE44DDF909389
:1013D00033028093320282E547DF9093310280939B
:1013E000300208958F929F92AF92BF92CF92DF9278
:1013F000EF92FF920F931F93CF93DF930F2EF9E19C
:10140000CF2EF1E0DF2EF02D0F2EF3E1EF2EF1E0E5
:10141000FF2EF02D0FE111E021E030E0C3E0D0E03D
:10142000D601AD90BD906D01F701819091907F0143
:10143000C901BE010E947F14FC01EE0FFF1FE15E97
:10144000FE4F80819181D801ED91FD918D019583B1
:1014500084839782868211861086B182A082D3838C
:10146000C2832F5F3F4F24303105D1F68091350183
:10147000909136016091450270914602EFE1F1E0F2
:10148000408151810F2EF9E3EF2EF1E0FF2EF02D78
:10149000E701A881B9812BE331E0E90108811981D5
:1014A00015961C930E93149717967C936E9316972C
:1014B00019965C934E93189711969C938E9382E0A5
:1014C00090E013969C938E93129740913701509120
:1014D0003801009147021091480260817181A88112
:1014E000B981E7012881398115963C932E93149791
:1014F00017961C930E93169719967C936E931897D4
:1015000011965C934E9313969C938E9312974091F1
:101510002D0150912E0100914102109142026081F3
:1015200071810F2EF1E3CF2EF1E0DF2EF02DE601D9
:10153000A881B98123E331E0E901E880F9801596BB
:10154000FC92EE92149717961C930E931697199689
:101550007C936E93189711965C934E9313969C937D
:101560008E93129740912F015091300100914302C8
:101570001091440260817181A881B981E6012881BE
:10158000398115963C932E93149717961C930E93BE
:10159000169719967C936E93189711965C934E93B9
:1015A00013969C938E93129740912501509126019A
:1015B00000913D0210913E02608171810F2EF9E28F
:1015C000CF2EF1E0DF2EF02DE601A881B9812BE2CC
:1015D00031E0E901E880F9801596FC92EE921497CB
:1015E00017961C930E93169719967C936E931897E3
:1015F00011965C934E9313969C938E931297409101
:10160000270150912801A0913F02B09140026081D2
:101610007181E881F981E60128813981358324834C
:10162000B783A683718760875183408393838283C6
:1016300083E692E09093560280935502909358026D
:1016400080935702DF91CF911F910F91FF90EF9000
:10165000DF90CF90BF90AF909F908F90089580E0E3
:10166000C7D160E770E087E792E00E94721587E7D4
:1016700092E0CAD281E08ED482E0BAD160E870E014
:1016800087E792E00E94721587E792E0BDD258D4B6
:1016900008C081E87AD183E090E068D89695879574
:1016A00074D1AED88823A9F3089580915702909100
:1016B000580222E08139920711F4D1CF089522E037
:1016C0008D36920711F451CB089522E0853A9207A6
:1016D00011F49ACC089522E0893B920749F488E0FE
:1016E00065D685D881110FC08BD88823D1F3089592
:1016F0008F5A924041F480E059D679D8811103C0C5
:101700007FD88823D1F3089589E5AEDD873491052C
:1017100014F120913C022431F4F0E0915702F09151
:101720005802828193810197181619068CF480E083
:1017300090E00480F581E02D0196228133812150D3
:10174000310982179307ACF3F0935802E0935702E4
:1017500010923C021DC08A3B2FEF92078CF420911F
:101760003C0224316CF0E0915702F09158028481E0
:101770009581909358028093570210923C0208C0C2
:101780008B5B9F4F8B38910518F483E180933C026B
:1017900037D8882399F0E0915702F091580286815A
:1017A0009781009749F09093560280935502909349
:1017B0005802809357021BC078DF19C018D88823BD
:1017C000B1F0E0915702F091580280859185009721
:1017D00071F0E0915502F0915602208531853093E9
:1017E000560220935502909358028093570280E04E
:1017F00090E008950F931F93CF93DF9385DF892B9C
:1018000009F044C0C0E08C2FC5D3CF5FC730D9F7F3
:10181000E0915502F09156028281938118161906C3
:10182000ACF5C0E0D0E010E801E88C2FE1D080E01A
:10183000FAD0E0915502F09156026081718187E7FC
:1018400092E00E94721520915502309156028091CB
:101850005702909158022817390711F4802F01C0C0
:10186000812F89D187E792E0CFD1E0915502F091A5
:1018700056020480F581E02DF0935602E093550264
:10188000219682819381C817D9077CF24ED588238F
:1018900051F080913C028F5F80933C0251D34ED532
:1018A00061E087E003D4DF91CF911F910F910895FC
:1018B0006DE389E005D561E089E00FD361E087E25F
:1018C0000CD36DE087E209D36DE082E106D361E3DA
:1018D00082E103D361E38EE100D369E18EE1FDD2C1
:1018E00069E187E2FAD26DE387E2F7D26DE389E03E
:1018F000F4D221E045E46DE38BE3E7D461E087E7D0
:10190000DFD461E089E5E9D26DE08CE5E6D26DE0F7
:101910008EE6E3D269E18BE6E0D269E18FE5DDD2C4
:1019200065E282E6DAD265E288E6D7D261E385E64F
:10193000D4D26DE388E6D1D261E087E7CED200D37E
:101940002FEF8FEF9EE0215080409040E1F700C0E4
:101950000000FFD2F5C20895F8940E94AA0385B74B
:10196000806885BF80B7806280BF7AD0F2D2A0DF66
:1019700039DD1EDD0E94DC038CE3C3D40E944A02E1
:1019800078940895E9DF36DFFECFE0913F01F091D2
:10199000400180830895E0913D01F0913E018083F4
:1019A00008951092C4021092C302E0913F01F09199
:1019B000400181E28083E0913F01F091400110827B
:1019C000E0913F01F09140018FE78083E0913F017A
:1019D000F091400182E28083E0913F01F09140016B
:1019E0001082E0913F01F091400187E080830895EB
:1019F000CF93C82FD6DFC093C4028C2F877089F095
:101A0000E0913F01F09140011082E0913F01F0919F
:101A1000400180E18083C06BE0913F01F091400183
:101A2000C083CF9108958F778093C3020895CF9399
:101A3000C82FDEDFC83048F480E0E0913D01F0912E
:101A40003E0110828F5F8038C1F7CF910895CF9308
:101A5000C0E08C2FECDFCF5FC830D9F7CF9108956D
:101A600085B7806885BF80B7806280BFE0913F0105
:101A7000F09140018EEA8083E0913F01F0914001B6
:101A800081EA8083E0913F01F09140018AED8083FB
:101A9000E0913F01F091400182E18083E0913F01BC
:101AA000F091400188EC8083E0913F01F09140018A
:101AB00088EA8083E0913F01F09140018FE38083C9
:101AC000E0913F01F091400185ED8083E0913F017D
:101AD000F091400180E88083E0913F01F091400166
:101AE00081E88083E0913F01F091400180E58083AF
:101AF000E0913F01F091400189ED8083E0913F0149
:101B0000F091400181E28083E0913F01F09140013A
:101B100080E28083E0913F01F09140011082E091EA
:101B20003F01F09140018BED8083E0913F01F09106
:101B3000400180E38083E0913F01F09140018DEA14
:101B40008083E0913F01F09140011082E0913F01DC
:101B5000F091400184EA8083E0913F01F0914001DF
:101B600086EA8083E0913F01F09140018FEA808313
:101B70006EDF17CF08958A3061F48091C40290E03F
:101B80000196877090788093C4021092C30281E01E
:101B90000895882339F1E82FF0E0EE0FFF1FEE0FD4
:101BA000FF1FEE0FFF1FE152F04028E08091C402BA
:101BB000A091C302B0E090E8899FA00DB11D11244F
:101BC0008091410190914201A80FB91F84918C939B
:101BD0008091C3028F5F8093C302215031962111FF
:101BE000E5CF02C080E0089581E00895CF93C82F2B
:101BF000FFDEC093C402CF910895CF93C82F13DFA7
:101C0000C093C302CF9108951F93CF93DF93EC014C
:101C100080E011E0180FFE01E80FF11D8081ABDFBD
:101C2000882311F0812FF5CFDF91CF911F91089577
:101C3000CF93181619064CF46AE070E060D6C82FEE
:101C4000CB01F6DF80E38C0F96DFCF91089587708C
:101C50006F77E62FF0E090E8899FE00DF11D1124E9
:101C60008091410190914201E80FF91F8081089510
:101C700087706F77E62FF0E090E8899FE00DF11D07
:101C800011248091410190914201E80FF91F808158
:101C900048234083089587706F77E62FF0E090E83F
:101CA000899FE00DF11D1124809141019091420125
:101CB000E80FF91F8081482B40830895962F8823D1
:101CC000ACF06034A8F4462F477021E030E0B90151
:101CD00002C0660F771F4A95E2F7AB01682F892F84
:101CE000869586958695D7DF81E0089580E00895F2
:101CF00080E008952F923F924F925F926F927F9271
:101D00008F929F92AF92BF92CF92DF92EF92FF920B
:101D10000F931F93CF93DF93CDB7DEB72C970FB6FA
:101D2000F894DEBF0FBECDBF382E262E042F122F03
:101D3000481708F490C0841709F479C0862E912CB6
:101D4000A42EB12C482E512C622F70E0681979090D
:101D5000882777FD8095982FBBD46B017C01B50156
:101D600064197509882777FD8095982FB1D49B0158
:101D7000AC01C701B60111D46D837E838F83988730
:101D8000632D70E080E090E0A1D46B017C01B5018F
:101D9000882777FD8095982F9BD469837A838B83DE
:101DA0009C839B01AC01C701B601F3D388230CF0DF
:101DB0003EC0662457FC6094762CC401AA2797FD88
:101DC000A095BA2F89879A87AB87BC87C301B201D8
:101DD0007FD49B01AC01C701B60176D32D813E8132
:101DE0004F81588529D54B015C0169857A858B85A2
:101DF0009C856ED49B01AC01C501B40166D33AD475
:101E0000B62EC701B60136D4862F6B2D57DF2DECC9
:101E10003CEC4CEC5DE3C701B60157D36B017C0190
:101E200029813A814B815C81B4D388237CF21215DD
:101E3000C8F1301239C0211630F036C0822D212E63
:101E4000182F022D01C0022D602F832D37DF0F5F69
:101E50000117D0F329C0822E912CA82EB12C442E2C
:101E6000512C70E068197909882777FD8095982FA3
:101E70002FD46B017C01B50164197509882777FDA2
:101E80008095982F25D49B01AC01C701B60185D35D
:101E90006D837E838F839887822D212E182F302E7D
:101EA0000A2D6ECF301651F22C960FB6F894DEBF85
:101EB0000FBECDBFDF91CF911F910F91FF90EF909B
:101EC000DF90CF90BF90AF909F908F907F906F905A
:101ED0005F904F903F902F900895CF93DF93D82F2E
:101EE000C62F262F482F6091CD028091CE0202DFAF
:101EF000D093CE02C093CD02DF91CF9108950F937E
:101F00001F93CF93DF93082F71DE80E8089F800135
:101F10001124C0E8D0E000581F4FC8018C1B9D0B56
:101F2000E0914101F0914201E80FF91F808133DD1A
:101F30002197209791F7DF91CF911F910F910895ED
:101F4000CF93C0E08C2FDBDFCF5FC830D9F7CF91C4
:101F5000089520E030E0B0E8A0E011C0A901481BDE
:101F6000590BE0914101F0914201E40FF51F1082FD
:101F70000197009799F7211584E0380729F08B2FF6
:101F80009A2F20583F4FEACF1092C4021092C302FA
:101F9000D7CF0895CF93C82F2BDDC830B8F420E8F1
:101FA000C29FC001112420E830E080589F4FAC014F
:101FB000421B530BE0914101F0914201E40FF51FE8
:101FC0001082215031092115310589F7CF910895EB
:101FD000EF92FF920F931F93CF93DF93222309F485
:101FE00050C0A0914101B091420190E8899FA00D9D
:101FF000B11D112465EC72E0FB019D9191939E2F20
:10200000961B9217D0F3A22FB0E0C0E8D0E07E017B
:10201000EA1AFB0A1E141F04D4F118C06091410192
:1020200070914201400F511FFB01E40FF51F4A0F51
:102030005B1F640F751FEB01388130839F5F492F51
:1020400050E04E155F0554F3222349F1D0E88D9FEF
:10205000A00111244A1B5B0B65EC72E0FB014654A6
:102060005240CA018E0F9F1FA0914101B0914201C1
:10207000A80FB91F81918C938E2F861B821788F32E
:102080000EC06894EE24E7F8F12CA0E0B0E090E8F0
:10209000899F8001112440E050E090E0BFCFDF91A4
:1020A000CF911F910F91FF90EF900895CF93DF9301
:1020B000D82FC62F693018F0C8506C2FF7DF2C2F9F
:1020C0004FE760E08D2F84DFDF91CF9108952F924D
:1020D0003F924F925F926F927F928F929F92AF92B8
:1020E000BF92CF92DF92EF92FF920F931F93CF9305
:1020F000DF9300D000D01F92CDB7DEB7C82EF62EEA
:10210000242E2983402E0F2EF7E0AF2EF02D512CD8
:10211000612C712C812C10E01A82B0E0A0E0252DFA
:10212000362D472D582D612F7A818B2F9A2F08E05D
:1021300015D4522E632E742E852E162FB72ED82E20
:10214000E92E6C2D8A2D83DD582ABA82BD2DAE2D45
:10215000AA948FEFA812E3CF312CEFE3F0E0E2195D
:10216000F3092FEF3FEF4FEF5FEF6FEF7FEF9FEF41
:102170000E2FF4D3EF0DF11D0E2F0BD40F2DEED338
:10218000E22F932EA42EB52E6B83D72EE82EF92F97
:102190004420D9F08981281A310887FD3394252DF0
:1021A000362D472D582D612F7A818B2F9A2F022D96
:1021B000F0D381E090E0098002C0880F991F0A9453
:1021C000E2F744244A94480E4222252D2E23362D30
:1021D0003921472D4A21582D5B216B8161237A815A
:1021E0007D218B2F8E219F2F9A230981B7D30F2D0D
:1021F000D0D32429B3D3122F1E23232E2920342EEB
:102200003A20452E4B205B805622672E6D20782E7B
:102210007E208F2E8922E095ED839094A094B09437
:10222000EB81E095E983D094E094FF2EF0941A823C
:102230004D816C2D8A811CDD2D81392D4A2D5B2D20
:1022400069817D2D8E2D9F2D08E0A3D32D83932EA4
:10225000A42EB52E6983D72EE82EF92E412F6C2D92
:102260008A8119DD212F322D432D542D652D762D98
:10227000872D982D8ED3122F232E342E452E562E99
:10228000672E782E892EFA81FF5FFA83F83081F667
:102290000F900F900F900F900F90DF91CF911F91A3
:1022A0000F91FF90EF90DF90CF90BF90AF909F90F5
:1022B0008F907F906F905F904F903F902F900895F8
:1022C0008093CE026093CD0208950F931F93CF9316
:1022D000DF93C82FD62F142F022F8093CE02609346
:1022E000CD02622FFADD602F812FF7DD6D2F812F58
:1022F000F4DD6D2F8C2FF1DDDF91CF911F910F91C8
:102300000895282F89B7816089BF83B78D6083BF07
:1023100030E040E050E060EC72E180E090E002D319
:1023200021BF81E08093CF0208958091CF02813058
:1023300019F41092CF02089580E008951092CF0210
:1023400008951F920F920FB60F9211248F9381E080
:102350008093CF028F910F900FBE0F901F90189512
:10236000CF93DF93BC01882777FD8095982FB0D15C
:1023700020E030E04AE754E410D120E030E040E7CC
:1023800052E45AD272D1EB011C161D0634F4CDDF93
:10239000811121971C161D06D4F3DF91CF9108956A
:1023A000813410F087530895805308957F928F925F
:1023B0009F92AF92BF92CF92DF92EF92FF920F93D4
:1023C0001F93CF93DF93CDB7DEB72A970FB6F8945C
:1023D000DEBF0FBECDBFBDDD0F2EF0E3CF2ED12C63
:1023E000F02D0F2EFEED8F2EF1E09F2EF02D5E01D1
:1023F00045E0A40EB11CEE24E394F12CEC0EFD1E7E
:1024000088E0E80EF11C80ED8C0DF0DB81E08C0D96
:10241000B2DB80E2B0DB9F928F92B5D3C601C4D30A
:102420000F900F908E010F5F1F4F0E94A503F801C0
:1024300081938F01EA15FB05C1F78981B1DF782E01
:102440008A81AEDF082F8B81ABDF182F8C81A8DF4C
:10245000272D30E0322F22273295307F302B282B4A
:10246000F0E11F9FC0011124822B932BE1DB8FE34E
:10247000C4DB8E010F5F1F4F0E94A503F8018193FB
:102480008F01EE15FF05C1F7CE010196BDDB58DDCA
:10249000FFEFCF1ADF0A48E3C416D10409F0B3CF27
:1024A0002A960FB6F894DEBF0FBECDBFDF91CF9155
:1024B0001F910F91FF90EF90DF90CF90BF90AF9062
:1024C0009F908F907F9008955058BB27AA270ED0D9
:1024D00075C166D130F06BD120F031F49F3F11F41B
:1024E0001EF45BC10EF4E095E7FB51C1E92F77D1F3
:1024F00080F3BA17620773078407950718F071F421
:102500009EF58FC10EF4E0950B2EBA2FA02D0B0176
:10251000B90190010C01CA01A0011124FF27591B28
:1025200099F0593F50F4503E68F11A16F040A22F2E
:10253000232F342F4427585FF3CF4695379527959F
:10254000A795F0405395C9F77EF41F16BA0B620B9E
:10255000730B840BBAF09150A1F0FF0FBB1F661FE5
:10256000771F881FC2F70EC0BA0F621F731F841F28
:1025700048F4879577956795B795F7959E3F08F04E
:10258000B3CF9395880F08F09927EE0F979587950D
:102590000895D9D008F481E008950CD00FC107D177
:1025A00040F0FED030F021F45F3F19F0F0C051113F
:1025B00039C1F3C014D198F39923C9F35523B1F36A
:1025C000951B550BBB27AA2762177307840738F0A2
:1025D0009F5F5F4F220F331F441FAA1FA9F333D001
:1025E0000E2E3AF0E0E830D091505040E695001CB5
:1025F000CAF729D0FE2F27D0660F771F881FBB1F71
:10260000261737074807AB07B0E809F0BB0B802D4A
:10261000BF01FF2793585F4F2AF09E3F510568F096
:10262000B6C000C15F3FECF3983EDCF3869577952A
:102630006795B795F7959F5FC9F7880F911D969598
:10264000879597F90895E1E0660F771F881FBB1FF4
:10265000621773078407BA0720F0621B730B840BA1
:10266000BA0BEE1F88F7E095089504D06894B11175
:10267000D9C00895BCD088F09F5790F0B92F992702
:10268000B751A0F0D1F0660F771F881F991F1AF07D
:10269000BA95C9F712C0B13081F0C3D0B1E0089546
:1026A000C0C0672F782F8827B85F39F0B93FCCF3C7
:1026B000869577956795B395D9F73EF49095809573
:1026C000709561957F4F8F4F9F4F0895E89409C093
:1026D00097FB3EF490958095709561957F4F8F4F55
:1026E0009F4F9923A9F0F92F96E9BB279395F6956B
:1026F000879577956795B795F111F8CFFAF4BB0FE9
:1027000011F460FF1BC06F5F7F4F8F4F9F4F16C04C
:10271000882311F096E911C0772321F09EE8872FD6
:10272000762F05C0662371F096E8862F70E060E092
:102730002AF09A95660F771F881FDAF7880F96950B
:10274000879597F90895990F0008550FAA0BE0E8AF
:10275000FEEF16161706E807F907C0F01216130663
:10276000E407F50798F0621B730B840B950B39F4A3
:102770000A2661F0232B242B252B21F408950A2609
:1027800009F4A140A6958FEF811D811D089597F949
:102790009F6780E870E060E008959FEF80EC089507
:1027A00000240A9416161706180609060895002430
:1027B0000A9412161306140605060895092E0394AA
:1027C000000C11F4882352F0BB0F40F4BF2B11F41E
:1027D00060FF04C06F5F7F4F8F4F9F4F089557FD7D
:1027E0009058440F551F59F05F3F71F04795880F7F
:1027F00097FB991F61F09F3F79F087950895121616
:1028000013061406551FF2CF4695F1DF08C01616C1
:1028100017061806991FF1CF869571056105089472
:102820000895E894BB2766277727CB0197F9089589
:102830008ADF08F48FEF08950BD0C0CFB1DF28F006
:10284000B6DF18F0952309F0A2CFA7CF1124EACF65
:10285000C6DFA0F3959FD1F3950F50E0551F629FFF
:10286000F001729FBB27F00DB11D639FAA27F00DE9
:10287000B11DAA1F649F6627B00DA11D661F829F10
:102880002227B00DA11D621F739FB00DA11D621FF5
:10289000839FA00D611D221F749F3327A00D611D12
:1028A000231F849F600D211D822F762F6A2F1124F4
:1028B0009F5750408AF0E1F088234AF0EE0FFF1F47
:1028C000BB1F661F771F881F91505040A9F79E3F7E
:1028D000510570F05CCFA6CF5F3FECF3983EDCF380
:1028E000869577956795B795F795E7959F5FC1F7BB
:1028F000FE2B880F911D9695879597F9089597FB64
:10290000072E16F4009406D077FD08D05ED007FCA1
:1029100005D03EF4909581959F4F089570956195EF
:102920007F4F0895052E97FB16F400940FD057FDA6
:1029300005D05FD007FC02D046F408C05095409502
:10294000309521953F4F4F4F5F4F0895909580955B
:10295000709561957F4F8F4F9F4F08950F9308306B
:1029600090F0982F872F762F652F542F432F322FDB
:1029700022270850F4CF220F331F441F551F661F14
:10298000771F881F991F0A95B2F70F91089597FB3B
:1029900010F8169400080F93083098F00850232F71
:1029A000342F452F562F672F782F892F902DF4CF56
:1029B000059497958795779567955795479537959A
:1029C00027950A95AAF70F910895AA1BBB1B51E101
:1029D00007C0AA1FBB1FA617B70710F0A61BB70B8F
:1029E000881F991F5A95A9F780959095BC01CD0134
:1029F0000895A1E21A2EAA1BBB1BFD010DC0AA1F40
:102A0000BB1FEE1FFF1FA217B307E407F50720F057
:102A1000A21BB30BE40BF50B661F771F881F991FD2
:102A20001A9469F760957095809590959B01AC011B
:102A3000BD01CF0108958F929F92AF92BF92CF9226
:102A4000DF92EF92FF92CF93DF93EC01688179815F
:102A50008A819B81611571058105910521F464E2EC
:102A600079ED8BE597E02DE133EF41E050E05ADF5F
:102A700049015A019B01AC01A7EAB1E478D46B018A
:102A80007C01ACEEB4EFA50194017DD4C60ED71E37
:102A9000E81EF91EF7FE06C081E0C81AD108E10859
:102AA00080E8F80AC882D982EA82FB82C6019F7751
:102AB000DF91CF91FF90EF90DF90CF90BF90AF90DC
:102AC0009F908F900895B7CF80E091E0B4CFA0E0C1
:102AD000B0E08093000190930101A0930201B093B4
:102AE00003010895FB01DC0105900D920020E1F740
:102AF00008950F931F93CF93DF93EC018B01009701
:102B000031F46115710519F480E090E037C06EE092
:102B100070E081E090E03DD2FC010097A9F380E8ED
:102B200083830115110571F01387028781E8838380
:102B30008091D0029091D102892B21F4F093D1029F
:102B4000E093D0022097C9F0D187C087838182604B
:102B500083838091D2029091D302892B71F4F093F8
:102B6000D302E093D2028091D4029091D502892BB6
:102B700021F4F093D502E093D402CF01DF91CF91FD
:102B80001F910F910895A0E0B0E0E8ECF5E10FC4CB
:102B9000FE01359661917191AF018091D2029091C1
:102BA000D30234D0E2E01FC46091D2027091D3020C
:102BB0004EC30F931F93CF93DF93E091D202F09116
:102BC000D302238121FF1BC0EC0100E010E08991BA
:102BD0006091D2027091D302DB011896ED91FC91C5
:102BE0001997882331F00995892B89F30FEF1FEF8F
:102BF000EECF8AE00995892B11F4C80102C08FEF4E
:102C00009FEFDF91CF911F910F910895ACE0B0E05D
:102C1000EBE0F6E1BCC37C016B018A01FC01178289
:102C20001682838181FFB0C1CE0101964C01F7016C
:102C30009381F60193FD859193FF81916F01882324
:102C400009F49EC1853239F493FD859193FF8191FA
:102C50006F01853221F4B70190E0F9D2E8CF512C11
:102C6000312C20E02032A0F48B3269F030F4803235
:102C700059F0833269F420612CC08D3239F08033F1
:102C800039F4216026C02260246023C0286021C05E
:102C900027FD27C030ED380F3A3078F426FF06C004
:102CA000FAE05F9E300D1124532E13C08AE0389E47
:102CB000300D1124332E20620CC08E3221F426FDFB
:102CC0005FC1206406C08C3611F4206802C08836CB
:102CD00041F4F60193FD859193FF81916F0181117C
:102CE000C1CF982F9F7D9554933028F40C5F1F4FD0
:102CF000FFE3F9830DC0833631F0833771F08335FC
:102D000009F057C021C0F801808189830E5F1F4FF1
:102D100044244394512C540114C03801F2E06F0E46
:102D2000711CF801A080B18026FF03C0652D70E002
:102D300002C06FEF7FEFC5012C877ED22C0183018B
:102D40002C852F77222E16C03801F2E06F0E711CF1
:102D5000F801A080B18026FF03C0652D70E002C09D
:102D60006FEF7FEFC5012C8755D22C012C85206891
:102D7000222E830123FC19C0832D90E048165906AA
:102D8000A0F4B70180E290E062D23A94F5CFF50169
:102D900027FC859127FE81915F01B70190E057D212
:102DA00031103A94F1E04F1A51084114510479F767
:102DB000DEC0843611F0893631F5F80127FF07C0EF
:102DC00060817181828193810C5F1F4F08C0608197
:102DD0007181882777FD8095982F0E5F1F4F2F7682
:102DE000B22E97FF09C090958095709561957F4FA1
:102DF0008F4F9F4F2068B22E2AE030E0A40159D2B5
:102E0000A82EA81843C0853729F42F7EB22E2AE0B9
:102E100030E025C0F22FF97FBF2E8F36C1F018F4B5
:102E2000883579F0ADC0803719F0883721F0A8C017
:102E30002F2F2061B22EB4FE0DC08B2D8460B82ED2
:102E400009C024FF0AC09F2F9660B92E06C028E053
:102E500030E005C020E130E002C020E132E0F801BE
:102E6000B7FE07C060817181828193810C5F1F4F23
:102E700006C06081718180E090E00E5F1F4FA40169
:102E800018D2A82EA818FB2DFF77BF2EB6FE0BC0B8
:102E90002B2D2E7FA51450F4B4FE0AC0B2FC08C03E
:102EA0002B2D2E7E05C07A2C2B2D03C07A2C01C031
:102EB000752C24FF0DC0FE01EA0DF11D80818033C9
:102EC00011F4297E09C022FF06C07394739404C0D4
:102ED000822F867809F0739423FD12C020FF06C06C
:102EE0005A2C731418F4530C5718732C731460F481
:102EF000B70180E290E02C87AAD173942C85F6CF9D
:102F0000731410F4371801C0312C24FF11C0B7011D
:102F100080E390E02C879BD12C8522FF16C021FFF7
:102F200003C088E590E002C088E790E0B7010CC0DC
:102F3000822F867851F021FD02C080E201C08BE231
:102F400027FD8DE2B70190E082D1A51430F4B701DE
:102F500080E390E07CD15A94F8CFAA94F401EA0D72
:102F6000F11D8081B70190E072D1A110F6CF33201E
:102F700009F45DCEB70180E290E069D13A94F7CFD1
:102F8000F7018681978102C08FEF9FEF2C96E2E1D7
:102F90001AC20F931F93CF93DF93869F8001879F61
:102FA000100D969F100D1124C8010DD0EC01009753
:102FB00021F0A80160E070E038D1CE01DF91CF911F
:102FC0001F910F910895CF93DF938230910510F4F4
:102FD00082E090E0E091D802F091D90220E030E068
:102FE000A0E0B0E0309739F140815181481759078E
:102FF000B8F04817590771F482819381109729F02E
:1030000013969C938E9312972CC09093D902809321
:10301000D80227C02115310531F04217530718F0A7
:10302000A901DB0101C0EF019A01BD01DF010280AE
:10303000F381E02DD7CF21153105F9F0281B390B8D
:103040002430310580F48A819B816115710521F05E
:10305000FB019383828304C09093D9028093D802AA
:10306000FE01329644C0FE01E20FF31F819391935B
:1030700022503109398328833AC02091D6023091F9
:10308000D702232B41F420910601309107013093A0
:10309000D7022093D6022091040130910501211519
:1030A000310541F42DB73EB7409108015091090117
:1030B000241B350BE091D602F091D702E217F307FB
:1030C000A0F42E1B3F0B2817390778F0AC014E5F98
:1030D0005F4F2417350748F04E0F5F1F5093D702FC
:1030E0004093D6028193919302C0E0E0F0E0CF01DB
:1030F000DF91CF910895CF93DF93009709F487C0B4
:10310000FC01329713821282C091D802D091D90269
:10311000209781F420813181280F391F8091D602B8
:103120009091D7028217930779F5F093D702E09335
:10313000D6026DC0DE0120E030E0AE17BF0750F4CC
:1031400012964D915C9113979D014115510509F11E
:10315000DA01F3CFB383A28340815181840F951F9D
:103160008A179B0771F48D919C911197840F951F7D
:1031700002969183808312968D919C9113979383ED
:1031800082832115310529F4F093D902E093D80206
:103190003EC0D9011396FC93EE9312974D915D9129
:1031A000A40FB51FEA17FB0779F480819181840F82
:1031B000951F0296D90111969C938E9382819381DB
:1031C00013969C938E931297E0E0F0E08A819B81A6
:1031D000009719F0FE01EC01F9CFCE01029628818B
:1031E0003981820F931F2091D6023091D702281780
:1031F000390769F4309729F41092D9021092D80255
:1032000002C013821282D093D702C093D602DF91FC
:10321000CF910895FC010590615070400110D8F7DE
:10322000809590958E0F9F1F0895DC0101C06D93CE
:1032300041505040E0F70895FC016150704001900A
:103240000110D8F7809590958E0F9F1F08950F93CA
:103250001F93CF93DF93182F092FEB018B8181FDF3
:1032600003C08FEF9FEF20C082FF10C04E815F81AF
:103270002C813D81421753077CF4E881F9819F013D
:103280002F5F3F4F39832883108306C0E885F98577
:10329000812F0995892B29F72E813F812F5F3F4F81
:1032A0003F832E83812F902FDF91CF911F910F911C
:1032B0000895FA01AA27283051F1203181F1E894CC
:1032C0006F936E7F6E5F7F4F8F4F9F4FAF4FB1E019
:1032D0003ED0B4E03CD0670F781F891F9A1FA11D14
:1032E000680F791F8A1F911DA11D6A0F711D811D15
:1032F000911DA11D20D009F468943F912AE0269FDA
:1033000011243019305D3193DEF6CF010895462F38
:103310004770405D4193B3E00FD0C9F7F6CF462F19
:103320004F70405D4A3318F0495D31FD4052419382
:1033300002D0A9F7EACFB4E0A6959795879577953F
:103340006795BA95C9F700976105710508959B01C6
:10335000AC010A2E06945795479537952795BA954F
:10336000C9F7620F731F841F951FA01D089546D0D3
:10337000A59F900DB49F900DA49F800D911D1124C9
:103380000895B7FFF4CFF3DF821B930B08952F92BC
:103390003F924F925F926F927F928F929F92AF92E5
:1033A000BF92CF92DF92EF92FF920F931F93CF9332
:1033B000DF93CDB7DEB7CA1BDB0B0FB6F894DEBFC9
:1033C0000FBECDBF09942A88398848885F846E84EF
:1033D0007D848C849B84AA84B984C884DF80EE8039
:1033E000FD800C811B81AA81B981CE0FD11D0FB642
:1033F000F894DEBF0FBECDBFED010895A29FB001CE
:10340000B39FC001A39F700D811D1124911DB29F18
:0E341000700D811D1124911D0895F894FFCFB9
:10341E00010000000000DA02200064648FC2F53C57
:10342E00001801A502B9028702B700D50097006304
:10343E000259029B02CA00BD00B902AF02AC009F46
:10344E0000A5026D02910088008702910200120011
:10345E001000180A4944202569094C3A20256909AB
:10346E00444154413A0A002569090043414E5F72B6
:10347E006563657074696F6E5F636F6D706C657494
:10348E006520697320737475636B004241434B2052
:10349E0020202020202020504C4159004D5000204B
:1034AE0020464C41505059204249524400504958F0
:1034BE00454C004D31004D52004D320047414D45B7
:1034CE0020204F5645520053434F52453A2000207C
:1034DE00202054525920414741494E3F00535155E7
:1034EE004153482053494D554C41544F520053308F
:1034FE0052002569004E414D453A005573652055E1
:10350E00502F444F574E20616E640A525F42544D05
:02351E000000AB
:00000001FF
