S00D00004E4F4445312E73726563C0
S113000018C20000AEC30000BBC3000041C2000020
S11300102DC200002BC2000029C2000027C200002C
S113002025C2000023C2000021C200001FC200003C
S11300301DC200001BC2000019C2000017C200004C
S11300400C941F1013C2000011C200000FC2000064
S11300500DC200000BC2000009C2000007C200006C
S113006005C2000003C2000001C20000FFC100007D
S1130070880083007E0078005249474854004C456C
S1130080465400444F574E00555000486F6C64204E
S11300904A6F79737469636B004C657420676F00F1
S11300A0557365206C65667420736C6964657200B1
S11300B02D3E525F42544E0043616C69627261741A
S11300C065006669742073637265656E00436F6EC4
S11300D07472617374004D75736963004F70746951
S11300E06F6E7300446562756700537461727400C7
S11300F03230343800466C6170707920506978650C
S11301006C0047616D6573004869676873636F725B
S11301106500000000000000000000065F5F0600AC
S113012000000007070007070000147F7F147F7F8B
S11301301400242E6B6B3A120000466630180C66CD
S11301406200307A4F5D377A4800040703000000EC
S11301500000001C3E63410000000041633E1C009F
S11301600000082A3E1C1C3E2A0808083E3E0808D7
S1130170000000A0E060000000000808080808086B
S1130180000000006060000000006030180C0603EE
S113019001003E7F594D7F3E000042427F7F404038
S11301A00000627359496F660000226349497F3633
S11301B00000181C16137F7F1000276745457D3902
S11301C000003C7E4B4979300000036371190F072E
S11301D00000367F49497F360000064F49693F1EBB
S11301E0000000006C6C0000000000A0EC6C00003B
S11301F00000081C36634100000014141414141485
S11302000000004163361C080000020351590F0628
S113021000003E7F415D5D1F1E007C7E13137E7CCB
S11302200000417F7F49497F36001C3E63414163A2
S11302302200417F7F41637F1C00417F7F495D41F4
S11302406300417F7F491D0103001C3E63415173DC
S113025072007F7F08087F7F000000417F7F41009C
S11302600000307040417F3F0100417F7F081C77D0
S11302706300417F7F41406070007F7F060C067FF2
S11302807F007F7F060C187F7F001C3E6341633E26
S11302901C00417F7F49090F06001E3F21717F5ECC
S11302A00000417F7F19396F460026674D597B3224
S11302B0000003417F7F410300007F7F40407F7F38
S11302C000001F3F60603F1F00007F7F3018307FB9
S11302D07F0063771C081C776300074F78784F070B
S11302E000006773594D47637100007F7F414100EF
S11302F000000103060C183060000041417F7F00BC
S11303000000080C0603060C0800808080808080B2
S113031080800000030704000000207454543C78DB
S11303204000413F7F44447C3800387C44446C287E
S11303300000307848493F7F4000387C54545C18B2
S11303400000487E7F490302000098BCA4A4F87C06
S11303500400417F7F08047C780000447D7D4000D8
S1130360000040C484FD7D000000417F7F10386C94
S1130370440000417F7F400000007C7C0C180C7C12
S113038078007C7C04047C780000387C44447C380D
S1130390000084FCF8A4243C1800183C24A4F8FCB5
S11303A08400447C78441C180000485C5454742431
S11303B0000000043E7F442400003C7C40403C7C20
S11303C040001C3C60603C1C00003C7C6030607C55
S11303D03C00446C3810386C44009CBCA0A0FC7CED
S11303E000004C64745C4C64000008083E77414192
S11303F0000000000077770000004141773E0808C4
S1130400000002030103020301006686B07070B0AD
S11304108666007E424242427E00007E7E7E7E7E72
S11304207E00FF80808080808080010101010101C5
S113043001FF11241FBECFEFD4E0DEBFCDBF12E019
S1130440A0E0B1E0EEE8FFE202C005900D92A4390D
S1130450B107D9F723E0A4E9B2E001C01D92A136A7
S1130460B207E1F70E941A0B0C94C517C9CD9093FB
S113047096028093950260939702662341F088E97F
S113048092E0FC0111922E2F281B2617D8F3089511
S11304901F920F920FB60F9211248F9381E08093D5
S11304A094028F910F900FBE0F901F901895F8949F
S11304B086B78E7F86BF8BB780628BBF7894089592
S11304C0D0D068E084E190E0D2DF4FEF50E064E602
S11304D080E6AED04FEF50E064E680E7A9D041E07B
S11304E050E061E08BE2A4D040E050E060EE8FE0A9
S11304F09FD0DDCF0895CF93DF93C4E0D0E002C056
S1130500CC0FDD1F8A95E2F78CE274D08C239D23F7
S1130510892BD1F381E0DF91CF910895FF920F935E
S11305201F93CF93DF93EC01062FF62EFF0CFF0CE5
S1130530FF0CFF0C28813981B90175956795759574
S113054067957595679581E38F0D45D0288139812D
S1130550B901660F771F62957295707F7627607F69
S1130560762782E38F0D37D06A816F7070E085E360
S11305708F0D31D08A81882389F010E086E3F80E4C
S1130580FE01E10FF11D6381772767FD70958F2DC3
S1130590810F21D01F5F8A81181790F3802F38D0E4
S11305A0802FA9DFDF91CF911F910F91FF900895C4
S11305B020919702222359F0382FA8E9B2E0E82FBE
S11305C0F92F81918D938E2F831B8217D0F385E9A8
S11305D092E0A4CF0895CF93DF93D82FC62F4ED0A7
S11305E082E042D08D2F40D08C2F3ED049D0DF9175
S11305F0CF910895CF93C82F41D083E035D08C2F6D
S113060033D036D0C82F3CD08C2F90E0CF910895B2
S1130610CF93C82F33D021E030E0C90102C0880F46
S1130620991FCA95E2F780681FD02AD0CF91089508
S11306301F93CF93DF93182FD62FC42F1FD085E09D
S113064013D0812F11D08D2F0FD08C2F0DD018D017
S1130650DF91CF911F91089511D080EC05D010C087
S1130660089510D0F9CF08958FB9779BFECF0895E0
S113067080E0FADF779BFECF8FB10895C498089588
S1130680C49A0895BE9887B3806B87BB8DB180658B
S11306908DB9F6CF08955D9BFECF8CB908955F9B0D
S11306A0FECF8CB190E0089510BC8FE189B988E148
S11306B08AB96FE473E08BE493E00C9463130895B8
S11306C08230910571F01CF4019739F01CC083301D
S11306D0910559F0049769F016C084E180930014E1
S11306E00BC085E18093001407C086E18093001459
S11306F003C087E18093001482E58A95F1F7809125
S1130700001490E0089580E090E00895BA9ABB9AAE
S113071085B7816085BF85B7826085BF85B78460F2
S113072085BF85B7886085BF8BB780648BBF8BB767
S113073080688BBF1092C6021092C7020895809100
S1130740C702813019F41092C702089580E0089519
S11307508091C602813019F41092C602089580E097
S113076008951F920F920FB60F9211248F9381E078
S11307708093C6028F910F900FBE0F901F90189513
S11307801F920F920FB60F9211248F9381E08093E2
S1130790C7028F910F900FBE0F901F90189587E09E
S11307A00E94740C8EE591E00E94820C0E941E0E41
S11307B01092AA0203C0C3DF8093AA02C9DF9091FA
S11307C0AA02892BC1F30C94270E08950F931F934B
S11307D0CF93DF930E94270E80E00E94740C8FE673
S11307E091E00E94820C0E941E0E88EE93E00E940B
S11307F02E1020E04CE668E084E40E94F80C28E027
S11308004CE660E084E40E94F80C0E941E0E88EE20
S113081093E00E942E1082E00E94740C84E40E94F3
S11308207B0C8DE791E00E94820C0E941E0E84EFE7
S113083091E00E942E10D0E110E112C000E021E00E
S113084048E160E08C2F0E94E50ECF5FC034B1F721
S11308508EE190E00E942E100E941E0ED15011F0E5
S1130860C12FECCF9CDFDF91CF911F910F910895A1
S1130870CF93DF93D82FC62F8C3238F02BE2462F3C
S113088060E08C2F0E94F80C17C0843138F42FE3F9
S1130890462F64E18C2F0E94F80C0EC026EF280F1F
S11308A0462F60E08C2F0E94F80C6AE06D0F2FE356
S11308B04C2F8C2F0E94F80CDF91CF910895CF928A
S11308C0DF92EF92FF922091140130911501409133
S11308D01601509117016091A4027091A5028091B4
S11308E0A6029091A7020E944F106093A4027093F5
S11308F0A5028093A6029093A70221DFF82E28DF99
S11309008F29B1F020E030E040E85FE36091A40279
S11309107091A5028091A6029091A7020E944E10A8
S11309206093A4027093A5028093A6029093A702F9
S1130930C090A402D090A502E090A602F090A70275
S113094020E030E040E85FE3C701B6010E940212F4
S113095018166CF480E090E0A0E8BFE38093A40252
S11309609093A502A093A602B093A70216C020E01C
S113097030E040E85FEBC701B6010E94B310882362
S113098064F480E090E0A0E8BFEB8093A40290932D
S1130990A502A093A602B093A7022091A4023091CD
S11309A0A5024091A6025091A7026091A002709105
S11309B0A1028091A2029091A3020E944F106B01A8
S11309C07C016093A0027093A1028093A202909391
S11309D0A30220E030E04CE752E40E940212882394
S11309E024F081E08093A8020CC020E030E0A9014B
S11309F0C701B6010E94B31018161CF081E0809361
S1130A00A802C701B6010E941F116093A902FF90BA
S1130A10EF90DF90CF9008958091A902E82FF0E045
S1130A20F595E795F595E795F595E795F695FE2FF8
S1130A30EE27F795E7953A96209118013091190120
S1130A40E20FF31F208130E08770A90102C05595A1
S1130A5047958A95E2F7CA0181700895CF93DF9391
S1130A6080E090E0E0911801F0911901E80FF91F7E
S1130A70108280589F4F811524E0920799F760E017
S1130A8070E0B8E019C02091180130911901F90102
S1130A90E80FF91FAC014F5F5F4FE901C40FD51F89
S1130AA028812083A15080589F4FA111ECCF6F5F04
S1130AB07F4F6F37710519F0CB01AB2FE4CF8FE770
S1130AC090E0E0911801F0911901E80FF91F1082EC
S1130AD080589F4F8F3724E0920799F78091120135
S1130AE0909113018917A8F00E944E1366E370E0F9
S1130AF00E9469126FE78B5FBBDE10921201809136
S1130B00AB029091AC0201969093AC028093AB023D
S1130B1003C08F5F80931201DF91CF910895CF922C
S1130B20DF92EF92FF920F931F93CF93DF930E9474
S1130B301E0E0F2EF5E0CF2EF02D0AE010E040C07F
S1130B400E941310882341F0BADE6091A9028AE062
S1130B5033D784DF0E941E0EF2DD882389F180E002
S1130B60C3D680E0C8D683E584D6C091AB02D091C9
S1130B70AC02DC2C8D2DB8D680E0BDD6209779F060
S1130B80CE01B8010E9469127C0180E38E0D71D6FA
S1130B90CE018E199F09B8010E946912EB01DA9403
S1130BA081E0D812E7CF87E09FD680E0A4D680E525
S1130BB060D60E941E0EC3DDC82FCADD8C2BD9F36C
S1130BC02BDF811105C08091A802882309F4B8CFD6
S1130BD081E080930A0160E08AE091E0E9DC88EE3C
S1130BE093E00E942E100E94270E80E07DD688E1BB
S1130BF082D683E891E086D681E076D680E27BD601
S1130C008EE891E07FD68091AB029091AC028ED6B3
S1130C100E941E0EDF91CF911F910F91FF90EF90D4
S1130C20DF90CF900895CF92DF92EF92FF92CF930F
S1130C30DF9382B790E00E9451131092AA0268E0F9
S1130C4082E390E014DC60E08AE091E0B1DCBEDD98
S1130C508091AA02813079F10F2EC12CD12CF0E8B9
S1130C60EF2EFFE3FF2EF02DD1E0C4E61092A80290
S1130C70C092A002D092A102E092A202F092A3023A
S1130C80D093A9021092A4021092A5021092A60277
S1130C901092A702C09313011092AC021092AB02FF
S1130CA03EDF86E021D686E991E02CD678DD80917E
S1130CB0AA028130D9F680E090E0DF91CF91FF90D5
S1130CC0EF90DF90CF9008950F931F93CF93DF930E
S1130CD0C4E6D0E00091B7021091B80281E090E040
S1130CE0EFDC01581F4F081B190B1093B802009337
S1130CF0B7020091B5021091B60282E090E0E0DC08
S1130D0001581F4F081B190B1093B6020093B5022C
S1130D1021972097F9F68091B7029091B80224E6C2
S1130D2030E0B9010E9469127093B8026093B7026F
S1130D308091B5029091B602B9010E946912709334
S1130D40B6026093B502DF91CF911F910F91089580
S1130D502F923F924F925F926F927F928F929F92C7
S1130D60AF92BF92CF92DF92EF92FF920F931F93B5
S1130D70CF93DF9300D000D000D0CDB7DEB73C01D5
S1130D807A8369835C834B833E832D8318018501B9
S1130D90B901882777FD8095982F0E9452114B0145
S1130DA05C01B3016E0D7F1D29813A81621B730BB7
S1130DB0882777FD8095982F0E9452112B013C01C2
S1130DC0B1018D819E81681B790B882777FD809501
S1130DD0982F0E9452119B01AC01C301B2010E94E1
S1130DE006122B013C016B817C81E981FA816E1B27
S1130DF07F0B882777FD8095982F0E9452119B01C5
S1130E00AC01C301B2010E94B7109B01AC01C50142
S1130E10B4010E944F100E941F11C101801B910B4D
S1130E206817790774F58D819E81800F911F86174D
S1130E3097074CF5F80111230CF43196F595E795D5
S1130E40D80112C08A0F9B1FAC014E0F5F1F64179D
S1130E50750714F069010BC0C6018E1B9F0B861722
S1130E60970714F0C01AD10AC601801B910B960192
S1130E70200F311F621773072CF78617970714F793
S1130E8004C0610102C0CD80DE80C60126960FB683
S1130E90F894DEBF0FBECDBFDF91CF911F910F91AC
S1130EA0FF90EF90DF90CF90BF90AF909F908F9086
S1130EB07F906F905F904F903F902F900895AF92E6
S1130EC0BF92CF92DF92EF92FF920F931F938235DE
S1130ED009F46EC020F48C3409F44AC089C0883502
S1130EE019F0893519F184C0C090B302D090B402CE
S1130EF0E090B702F090B80281E090E0E1DB0F2EC1
S1130F00FAE0AF2EB12CF02D04E610E02CE93FEF0F
S1130F104FEF50E060E070E01BDF9093B4028093E9
S1130F20B3028091B3029091B40264C0C090B10244
S1130F30D090B202E090B502F090B60282E090E068
S1130F40BFDB0F2EFAE0AF2EB12CF02D04E610E03B
S1130F502CE93FEF4FEF50E060E070E0F9DE909352
S1130F60B2028093B1028091B1029091B20242C068
S1130F70C090AF02D090B00283E090E0A1DB0F2ECE
S1130F80FAE0AF2EB12CF02DE12CF12C04E610E0A8
S1130F9020E030E04FEF50E060E070E0D9DE909365
S1130FA0B0028093AF028091AF029091B00222C050
S1130FB0C090AD02D090AE0284E090E081DB0F2EB1
S1130FC0FAE0AF2EB12CF02DE12CF12C04E610E068
S1130FD020E030E04FEF50E060E070E0B9DE909345
S1130FE0AE028093AD028091AD029091AE0202C038
S1130FF080E090E01F910F91FF90EF90DF90CF90F1
S1131000BF90AF90089560DE88E559DF9093B402F5
S11310108093B30289E553DF9093B2028093B102C7
S11310208CE44DDF9093B0028093AF0282E547DFFA
S11310309093AE028093AD0208958F929F92AF92E7
S1131040BF92CF92DF92EF92FF920F931F93CF93B1
S1131050DF930F2EF4E2CF2EF1E0DF2EF02D0F2ED2
S1131060FAE1EF2EF1E0FF2EF02D0EE211E021E087
S113107030E0C5E0D0E0D601AD90BD906D01F70140
S1131080819091907F01C901BE010E946912FC0107
S1131090EE0FFF1FE25DFE4F80819181D801ED913B
S11310A0FD918D01958384839782868211861086B3
S11310B0B182A082D383C2832F5F3F4F2630310594
S11310C0D1F680914001909141016091BE027091EE
S11310D0BF02EEE2F1E0408151810F2EF4E4EF2EE5
S11310E0F1E0FF2EF02DE701A881B98126E431E07B
S11310F0E9010881198115961C930E93149717968C
S11311007C936E93169719965C934E931897119649
S11311109C938E9382E090E013969C938E93129707
S113112040914201509143010091C0021091C102CB
S113113060817181A881B981E7012881398115967F
S11311403C932E93149717961C930E931697199607
S11311507C936E93189711965C934E9313969C937D
S11311608E93129740914801509149010091C20217
S11311701091C302608171810F2EFCE4CF2EF1E047
S1131180DF2EF02DE601A881B9812EE431E0E901DA
S1131190E880F9801596FC92EE92149717961C93AA
S11311A00E93169719967C936E93189711965C93E9
S11311B04E9313969C938E93129740914A015091AB
S11311C04B010091C4021091C50260817181A88114
S11311D0B981E6012881398115963C932E931497A1
S11311E017961C930E93169719967C936E931897E3
S11311F011965C934E9313969C938E931297409101
S11312003801509139010091BA021091BB026081FA
S113121071810F2EFCE3CF2EF1E0DF2EF02DE601DD
S1131220A881B9812EE331E0E901E880F9801596BF
S1131230FC92EE92149717961C930E931697199698
S11312407C936E93189711965C934E9313969C938C
S11312508E93129740913A0150913B01A091BC02A8
S1131260B091BD0260817181E881F981E601288134
S1131270398135832483B783A6837187608751833B
S113128040839383828380E493E09093C9028093A4
S1131290C8029093CB028093CA02DF91CF911F9131
S11312A00F91FF90EF90DF90CF90BF90AF909F9001
S11312B08F90089580E01AD260EA70E08AEE92E09E
S11312C00E945C138AEE92E01DD381E0E1D482E0B7
S11312D00DD260EB70E08AEE92E00E945C138AEE1D
S11312E092E010D3ABD408C081E8CDD183E090E084
S11312F0E7D996958795C7D12BDA8823A9F3089562
S11313000F931F93CF93DF93C0E08C2FC1D4CF5F93
S1131310C730D9F780E0EAD169E970E08AEE92E05B
S11313200E945C138AEE92E0EDD282E0DFD160EBA2
S113133070E08AEE92E00E945C138AEE92E0E2D2C0
S11313407DD406DA8823E9F380E0EFD16BE870E01E
S11313508AEE92E00E945C138AEE92E0D3D2C0E758
S1131360D0E008E710E081E0E0D1FE0165917491DE
S11313708AEE92E00E945C138AEE92E0C3D25ED4BD
S1131380E7D98823E9F32296C017D10761F7DF91E3
S1131390CF911F910F9108958091CA029091CB0231
S11313A023E08430920711F485CF089523E0863337
S11313B0920711F4A5CF08958C52934049F433DC7D
S11313C084EA91E09F938F930E94AD130F900F9046
S11313D0089589E574DD8734910514F12091B902EB
S11313E02431F4F0E091CA02F091CB02828193811E
S11313F00197181619068CF480E090E00480F581BA
S1131400E02D0196228133812150310982179307FF
S1131410ACF3F093CB02E093CA021092B9021DC060
S11314208A3B2FEF92078CF42091B90224316CF09F
S1131430E091CA02F091CB02848195819093CB0212
S11314408093CA021092B90208C08B5B9F4F8B38FD
S1131450910518F483E18093B9027AD9882399F02D
S1131460E091CA02F091CB0286819781009749F0FE
S11314709093C9028093C8029093CB028093CA02CE
S11314801BC08ADF19C05BD98823B1F0E091CA027E
S1131490F091CB0280859185009771F0E091C802AC
S11314A0F091C902208531853093C9022093C80286
S11314B09093CB028093CA0280E090E008950F934A
S11314C01F93CF93DF9385DF892B09F044C0C0E0DD
S11314D08C2FDED3CF5FC730D9F7E091C802F091EB
S11314E0C9028281938118161906ACF5C0E0D0E0D8
S11314F010E801E88C2FFAD080E013D1E091C80203
S1131500F091C902608171818AEE92E00E945C13BD
S11315102091C8023091C9028091CA029091CB02F5
S11315202817390711F4802F01C0812FA2D18AEE28
S113153092E0E8D1E091C802F091C9020480F581FB
S1131540E02DF093C902E093C80221968281938131
S1131550C817D9077CF267D5882351F08091B90266
S11315608F5F8093B9026AD367D561E087E01CD4AA
S1131570DF91CF911F910F9108956DE389E01ED5FE
S113158061E089E028D361E087E225D36DE087E25A
S113159022D36DE082E11FD361E382E11CD361E3D6
S11315A08EE119D369E18EE116D369E187E213D3A1
S11315B06DE387E210D36DE389E00DD321E045E4C8
S11315C06DE38BE300D561E087E7F8D461E089E55A
S11315D002D36DE08CE5FFD26DE08EE6FCD269E1CA
S11315E08BE6F9D269E18FE5F6D265E282E6F3D2C1
S11315F065E288E6F0D261E385E6EDD26DE388E644
S1131600EAD261E087E7E7D219C30895F8944CD889
S113161085B7806885BF80B7806280BF9FD017D3AD
S1131620ACDF0BDDF0DC72D88CE3E9D40E946002FD
S113163078940895CF93DF93CDB7DEB728970FB68C
S1131640F894DEBF0FBECDBFE1DF8FE892E09F9339
S11316508F930E94AD1388E0E6E5F1E0DE01119678
S113166001900D928A95E1F70F900F9088E527DCA1
S11316709981981731F0898360E0CE0101960E9428
S1131680D8021DDFF3CFE0915201F0915301808322
S11316900895E0915001F0915101808308951092D2
S11316A04B0310924A03E0915201F091530181E2FD
S11316B08083E0915201F09153011082E091520134
S11316C0F09153018FE78083E0915201F09153012F
S11316D082E28083E0915201F09153011082E09103
S11316E05201F091530187E080830895CF93C82F6E
S11316F0D6DFC0934B038C2F877089F0E0915201A1
S1131700F09153011082E0915201F091530180E174
S11317108083C06BE0915201F0915301C083CF915B
S113172008958F7780934A030895CF93C82FDEDFFF
S1131730C83048F480E0E0915001F09151011082EA
S11317408F5F8038C1F7CF910895CF93C0E08C2F7D
S1131750ECDFCF5FC830D9F7CF91089585B78068A3
S113176085BF80B7806280BFE0915201F091530140
S11317708EEA8083E0915201F091530181EA8083E3
S1131780E0915201F09153018AED8083E09152017E
S1131790F091530182E18083E0915201F091530171
S11317A088EC8083E0915201F091530188EA8083B0
S11317B0E0915201F09153018FE38083E091520153
S11317C0F091530185ED8083E0915201F091530132
S11317D080E88083E0915201F091530181E8808395
S11317E0E0915201F091530180E58083E091520130
S11317F0F091530189ED8083E0915201F0915301FE
S113180081E28083E0915201F091530180E2808370
S1131810E0915201F09153011082E0915201F09154
S113182053018BED8083E0915201F091530180E3E9
S11318308083E0915201F09153018DEA8083E0911D
S11318405201F09153011082E0915201F091530141
S113185084EA8083E0915201F091530186EA808307
S1131860E0915201F09153018FEA80836EDF17CF2C
S113187008958A3061F480914B0390E0019687705B
S1131880907880934B0310924A0381E00895882353
S113189039F1E82FF0E0EE0FFF1FEE0FFF1FEE0F00
S11318A0FF1FEE5EFF4F28E080914B03A0914A0397
S11318B0B0E090E8899FA00DB11D112480915401DE
S11318C090915501A80FB91F84918C9380914A037C
S11318D08F5F80934A03215031962111E5CF02C0D6
S11318E080E0089581E00895CF93C82FFFDEC09370
S11318F04B03CF910895CF93C82F13DFC0934A03AE
S1131900CF9108951F93CF93DF93EC0180E011E012
S1131910180FFE01E80FF11D8081ABDF882311F061
S1131920812FF5CFDF91CF911F910895CF93181692
S113193019064CF46AE070E0CCD5C82FCB01F6DF71
S113194080E38C0F96DFCF91089587706F77E62F31
S1131950F0E090E8899FE00DF11D1124809154017D
S113196090915501E80FF91F8081089587706F7772
S1131970E62FF0E090E8899FE00DF11D112480919D
S1131980540190915501E80FF91F80814823408349
S1131990089587706F77E62FF0E090E8899FE00D57
S11319A0F11D11248091540190915501E80FF91F04
S11319B08081482B40830895962F8823ACF06034AF
S11319C0A8F4462F477021E030E0B90102C0660F49
S11319D0771F4A95E2F7AB01682F892F8695869584
S11319E08695D7DF81E0089580E0089580E008952A
S11319F02F923F924F925F926F927F928F929F921B
S1131A00AF92BF92CF92DF92EF92FF920F931F9308
S1131A10CF93DF93CDB7DEB72C970FB6F894DEBF24
S1131A200FBECDBF382E262E042F122F481708F4D0
S1131A3090C0841709F479C0862E912CA42EB12C61
S1131A40482E512C622F70E068197909882777FD98
S1131A508095982F27D46B017C01B5016419750911
S1131A60882777FD8095982F1DD49B01AC01C70171
S1131A70B6017DD36D837E838F839887632D70E059
S1131A8080E090E00DD46B017C01B501882777FDDF
S1131A908095982F07D469837A838B839C839B01D9
S1131AA0AC01C701B6015FD388230CF03EC06624A5
S1131AB057FC6094762CC401AA2797FDA095BA2FF1
S1131AC089879A87AB87BC87C301B201EBD39B019B
S1131AD0AC01C701B601E2D22D813E814F81588508
S1131AE095D44B015C0169857A858B859C85DAD315
S1131AF09B01AC01C501B401D2D2A6D3B62EC70155
S1131B00B601A2D3862F6B2D57DF2DEC3CEC4CECA9
S1131B105DE3C701B601C3D26B017C0129813A811F
S1131B204B815C8120D388237CF21215C8F13012DA
S1131B3039C0211630F036C0822D212E182F022DE7
S1131B4001C0022D602F832D37DF0F5F0117D0F303
S1131B5029C0822E912CA82EB12C442E512C70E039
S1131B6068197909882777FD8095982F9BD36B0195
S1131B707C01B50164197509882777FD8095982F34
S1131B8091D39B01AC01C701B601F1D26D837E8371
S1131B908F839887822D212E182F302E0A2D6ECFF9
S1131BA0301651F22C960FB6F894DEBF0FBECDBF9F
S1131BB0DF91CF911F910F91FF90EF90DF90CF9025
S1131BC0BF90AF909F908F907F906F905F904F9059
S1131BD03F902F900895CF93DF93D82FC62F262FB1
S1131BE0482F609154038091550302DFD09355032D
S1131BF0C0935403DF91CF9108950F931F93CF9314
S1131C00DF93082F71DE80E8089F80011124C0E86B
S1131C10D0E000581F4FC8018C1B9D0BE09154016C
S1131C20F0915501E80FF91F808133DD219720974A
S1131C3091F7DF91CF911F910F910895CF93C0E059
S1131C408C2FDBDFCF5FC830D9F7CF91089520E028
S1131C5030E0B0E8A0E011C0A901481B590BE091A5
S1131C605401F0915501E40FF51F1082019700977C
S1131C7099F7211584E0380729F08B2F9A2F2058E3
S1131C803F4FEACF10924B0310924A03D7CF0895E7
S1131C90CF93C82F2BDDC830B8F420E8C29FC00111
S1131CA0112420E830E080589F4FAC01421B530BB5
S1131CB0E0915401F0915501E40FF51F1082215079
S1131CC031092115310589F7CF910895EF92FF92DB
S1131CD00F931F93CF93DF93222309F450C0A09155
S1131CE05401B091550190E8899FA00DB11D1124B4
S1131CF06CE473E0FB019D9191939E2F961B9217C8
S1131D00D0F3A22FB0E0C0E8D0E07E01EA1AFB0ACB
S1131D101E141F04D4F118C0609154017091550130
S1131D20400F511FFB01E40FF51F4A0F5B1F640FA7
S1131D30751FEB01388130839F5F492F50E04E15AA
S1131D405F0554F3222349F1D0E88D9FA0011124AB
S1131D504A1B5B0B6CE473E0FB014D5C5240CA010F
S1131D608E0F9F1FA0915401B0915501A80FB91F68
S1131D7081918C938E2F861B821788F30EC06894F2
S1131D80EE24E7F8F12CA0E0B0E090E8899F800110
S1131D90112440E050E090E0BFCFDF91CF911F913C
S1131DA00F91FF90EF900895CF93DF93D82FC62F14
S1131DB0693018F0C8506C2FF7DF2C2F4FE760E024
S1131DC08D2F84DFDF91CF9108952F923F924F9210
S1131DD05F926F927F928F929F92AF92BF92CF92B7
S1131DE0DF92EF92FF920F931F93CF93DF9300D074
S1131DF000D01F92CDB7DEB7C82EF62E242E29832D
S1131E00402E0F2EF7E0AF2EF02D512C612C712CAB
S1131E10812C10E01A82B0E0A0E0252D362D472D4C
S1131E20582D612F7A818B2F9A2F08E081D3522E5F
S1131E30632E742E852E162FB72ED82EE92E6C2DD8
S1131E408A2D83DD582ABA82BD2DAE2DAA948FEF38
S1131E50A812E3CF312CEFE3F0E0E219F3092FEFFE
S1131E603FEF4FEF5FEF6FEF7FEF9FEF0E2F60D3EA
S1131E70EF0DF11D0E2F77D30F2D5AD3E22F932E92
S1131E80A42EB52E6B83D72EE82EF92F4420D9F03B
S1131E908981281A310887FD3394252D362D472D45
S1131EA0582D612F7A818B2F9A2F022D5CD381E0DC
S1131EB090E0098002C0880F991F0A94E2F7442435
S1131EC04A94480E4222252D2E23362D3921472DA2
S1131ED04A21582D5B216B8161237A817D218B2FCF
S1131EE08E219F2F9A23098123D30F2D3CD324299C
S1131EF01FD3122F1E23232E2920342E3A20452EA1
S1131F004B205B805622672E6D20782E7E208F2EEC
S1131F108922E095ED839094A094B094EB81E095B0
S1131F20E983D094E094FF2EF0941A824D816C2DB5
S1131F308A811CDD2D81392D4A2D5B2D69817D2DF2
S1131F408E2D9F2D08E00FD32D83932EA42EB52E16
S1131F506983D72EE82EF92E412F6C2D8A8119DD45
S1131F60212F322D432D542D652D762D872D982D1F
S1131F70FAD2122F232E342E452E562E672E782E6B
S1131F80892EFA81FF5FFA83F83081F60F900F9063
S1131F900F900F900F90DF91CF911F910F91FF90B1
S1131FA0EF90DF90CF90BF90AF909F908F907F90F5
S1131FB06F905F904F903F902F90089580935503BA
S1131FC06093540308950F931F93CF93DF93C82F07
S1131FD0D62F142F022F8093550360935403622F3E
S1131FE0FADD602F812FF7DD6D2F812FF4DD6D2F4A
S1131FF08C2FF1DDDF91CF911F910F910895282F40
S113200089B7816089BF83B78D6083BF30E040E0CA
S113201050E060EC72E180E090E06ED221BF81E09C
S113202080935603089580915603813019F41092D9
S11320305603089580E008951092560308951F9260
S11320400F920FB60F9211248F9381E08093560361
S11320508F910F900FBE0F901F901895CF93DF9321
S1132060BC01882777FD8095982F1CD120E030E0B3
S11320704AE754E47CD020E030E040E752E4C6D1A3
S1132080DED0EB011C161D0634F4CDDF811121973F
S11320901C161D06D4F3DF91CF9108955058BB2729
S11320A0AA270ED075C166D130F06BD120F031F47F
S11320B09F3F11F41EF45BC10EF4E095E7FB51C1A0
S11320C0E92F77D180F3BA1762077307840795075E
S11320D018F071F49EF58FC10EF4E0950B2EBA2F13
S11320E0A02D0B01B90190010C01CA01A00111241A
S11320F0FF27591B99F0593F50F4503E68F11A16C6
S1132100F040A22F232F342F4427585FF3CF469556
S113211037952795A795F0405395C9F77EF41F1678
S1132120BA0B620B730B840BBAF09150A1F0FF0F42
S1132130BB1F661F771F881FC2F70EC0BA0F621F2E
S1132140731F841F48F4879577956795B795F7951E
S11321509E3F08F0B3CF9395880F08F09927EE0FB0
S1132160979587950895D9D008F481E008950CD007
S11321700FC107D140F0FED030F021F45F3F19F0D9
S1132180F0C0511139C1F3C014D198F39923C9F3A4
S11321905523B1F3951B550BBB27AA276217730769
S11321A0840738F09F5F5F4F220F331F441FAA1F1D
S11321B0A9F333D00E2E3AF0E0E830D091505040DD
S11321C0E695001CCAF729D0FE2F27D0660F771F8B
S11321D0881FBB1F261737074807AB07B0E809F06D
S11321E0BB0B802DBF01FF2793585F4F2AF09E3F02
S11321F0510568F0B6C000C15F3FECF3983EDCF3D4
S1132200869577956795B795F7959F5FC9F7880F7A
S1132210911D9695879597F90895E1E0660F771FCC
S1132220881FBB1F621773078407BA0720F0621B5D
S1132230730B840BBA0BEE1F88F7E095089504D056
S11322406894B111D9C00895BCD088F09F5790F01C
S1132250B92F9927B751A0F0D1F0660F771F881FC7
S1132260991F1AF0BA95C9F712C0B13081F0C3D0E2
S1132270B1E00895C0C0672F782F8827B85F39F080
S1132280B93FCCF3869577956795B395D9F73EF426
S113229090958095709561957F4F8F4F9F4F0895CE
S11322A0E89409C097FB3EF49095809570956195EC
S11322B07F4F8F4F9F4F9923A9F0F92F96E9BB27A2
S11322C09395F695879577956795B795F111F8CF1E
S11322D0FAF4BB0F11F460FF1BC06F5F7F4F8F4F89
S11322E09F4F16C0882311F096E911C0772321F07F
S11322F09EE8872F762F05C0662371F096E8862F17
S113230070E060E02AF09A95660F771F881FDAF76D
S1132310880F9695879597F90895990F0008550F9A
S1132320AA0BE0E8FEEF16161706E807F907C0F057
S113233012161306E407F50798F0621B730B840B5F
S1132340950B39F40A2661F0232B242B252B21F439
S113235008950A2609F4A140A6958FEF811D811DD9
S1132360089597F99F6780E870E060E008959FEF13
S113237080EC089500240A94161617061806090618
S1132380089500240A9412161306140605060895E7
S1132390092E0394000C11F4882352F0BB0F40F46F
S11323A0BF2B11F460FF04C06F5F7F4F8F4F9F4FAF
S11323B0089557FD9058440F551F59F05F3F71F031
S11323C04795880F97FB991F61F09F3F79F0879598
S11323D00895121613061406551FF2CF4695F1DF21
S11323E008C0161617061806991FF1CF86957105B1
S11323F0610508940895E894BB2766277727CB01E5
S113240097F908958ADF08F48FEF08950BD0C0CFB1
S1132410B1DF28F0B6DF18F0952309F0A2CFA7CFDB
S11324201124EACFC6DFA0F3959FD1F3950F50E0B6
S1132430551F629FF001729FBB27F00DB11D639F72
S1132440AA27F00DB11DAA1F649F6627B00DA11D18
S1132450661F829F2227B00DA11D621F739FB00DBE
S1132460A11D621F839FA00D611D221F749F33272E
S1132470A00D611D231F849F600D211D822F762FC7
S11324806A2F11249F5750408AF0E1F088234AF0C4
S1132490EE0FFF1FBB1F661F771F881F9150504010
S11324A0A9F79E3F510570F05CCFA6CF5F3FECF3D8
S11324B0983EDCF3869577956795B795F795E795FC
S11324C09F5FC1F7FE2B880F911D9695879597F90D
S11324D0089597FB072E16F4009406D077FD08D0D4
S11324E05ED007FC05D03EF4909581959F4F0895EA
S11324F0709561957F4F0895052E97FB16F400940F
S11325000FD057FD05D05FD007FC02D046F408C0B9
S113251050954095309521953F4F4F4F5F4F08950B
S113252090958095709561957F4F8F4F9F4F08953B
S11325300F93083090F0982F872F762F652F542F04
S1132540432F322F22270850F4CF220F331F441F6A
S1132550551F661F771F881F991F0A95B2F70F91A1
S1132560089597FB10F8169400080F93083098F01C
S11325700850232F342F452F562F672F782F892F5C
S1132580902DF4CF059497958795779567955795F2
S11325904795379527950A95AAF70F910895AA1B91
S11325A0BB1B51E107C0AA1FBB1FA617B70710F03A
S11325B0A61BB70B881F991F5A95A9F7809590956C
S11325C0BC01CD010895A1E21A2EAA1BBB1BFD017B
S11325D00DC0AA1FBB1FEE1FFF1FA217B307E407FE
S11325E0F50720F0A21BB30BE40BF50B661F771F56
S11325F0881F991F1A9469F7609570958095909536
S11326009B01AC01BD01CF0108958F929F92AF92BF
S1132610BF92CF92DF92EF92FF92CF93DF93EC01C0
S1132620688179818A819B81611571058105910594
S113263021F464E279ED8BE597E02DE133EF41E09D
S113264050E05ADF49015A019B01AC01A7EAB1E409
S113265046D46B017C01ACEEB4EFA50194014BD4DC
S1132660C60ED71EE81EF91EF7FE06C081E0C81A82
S1132670D108E10880E8F80AC882D982EA82FB829C
S1132680C6019F77DF91CF91FF90EF90DF90CF90BD
S1132690BF90AF909F908F900895B7CF80E091E066
S11326A0B4CFA0E0B0E08093000190930101A09327
S11326B00201B09303010895FB01DC0105900D9222
S11326C00020E1F708950F931F93CF93DF93EC015C
S11326D08B01009731F46115710519F480E090E0E5
S11326E037C06EE070E081E090E00BD2FC0100970F
S11326F0A9F380E883830115110571F0138702871C
S113270081E883838091570390915803892B21F4A6
S1132710F0935803E09357032097C9F0D187C087FB
S11327208381826083838091590390915A03892B1A
S113273071F4F0935A03E093590380915B039091F1
S11327405C03892B21F4F0935C03E0935B03CF01DA
S1132750DF91CF911F910F910895A0E0B0E0E2EBDB
S1132760F3E1DDC3FE01359661917191AF01809172
S1132770590390915A0302D0E2E0EDC3ACE0B0E01B
S1132780E3ECF3E1BCC37C016B018A01FC01178219
S11327901682838181FFB0C1CE0101964C01F701FD
S11327A09381F60193FD859193FF81916F018823B5
S11327B009F49EC1853239F493FD859193FF81918B
S11327C06F01853221F4B70190E0F9D2E8CF512CA2
S11327D0312C20E02032A0F48B3269F030F48032C6
S11327E059F0833269F420612CC08D3239F0803382
S11327F039F4216026C02260246023C0286021C0EF
S113280027FD27C030ED380F3A3078F426FF06C094
S1132810FAE05F9E300D1124532E13C08AE0389ED7
S1132820300D1124332E20620CC08E3221F426FD8B
S11328305FC1206406C08C3611F4206802C088365B
S113284041F4F60193FD859193FF81916F0181110C
S1132850C1CF982F9F7D9554933028F40C5F1F4F60
S1132860FFE3F9830DC0833631F0833771F083358C
S113287009F057C021C0F801808189830E5F1F4F82
S113288044244394512C540114C03801F2E06F0ED7
S1132890711CF801A080B18026FF03C0652D70E093
S11328A002C06FEF7FEFC5012C877ED22C0183011C
S11328B02C852F77222E16C03801F2E06F0E711C82
S11328C0F801A080B18026FF03C0652D70E002C02E
S11328D06FEF7FEFC5012C8755D22C012C85206822
S11328E0222E830123FC19C0832D90E0481659063B
S11328F0A0F4B70180E290E062D23A94F5CFF501FA
S113290027FC859127FE81915F01B70190E057D2A2
S113291031103A94F1E04F1A51084114510479F7F7
S1132920DEC0843611F0893631F5F80127FF07C07F
S113293060817181828193810C5F1F4F08C0608127
S11329407181882777FD8095982F0E5F1F4F2F7612
S1132950B22E97FF09C090958095709561957F4F31
S11329608F4F9F4F2068B22E2AE030E0A40159D245
S1132970A82EA81843C0853729F42F7EB22E2AE04A
S113298030E025C0F22FF97FBF2E8F36C1F018F446
S1132990883579F0ADC0803719F0883721F0A8C0A8
S11329A02F2F2061B22EB4FE0DC08B2D8460B82E63
S11329B009C024FF0AC09F2F9660B92E06C028E0E4
S11329C030E005C020E130E002C020E132E0F8014F
S11329D0B7FE07C060817181828193810C5F1F4FB4
S11329E006C06081718180E090E00E5F1F4FA401FA
S11329F018D2A82EA818FB2DFF77BF2EB6FE0BC049
S1132A002B2D2E7FA51450F4B4FE0AC0B2FC08C0CE
S1132A102B2D2E7E05C07A2C2B2D03C07A2C01C0C1
S1132A20752C24FF0DC0FE01EA0DF11D8081803359
S1132A3011F4297E09C022FF06C07394739404C064
S1132A40822F867809F0739423FD12C020FF06C0FC
S1132A505A2C731418F4530C5718732C731460F411
S1132A60B70180E290E02C87AAD173942C85F6CF2D
S1132A70731410F4371801C0312C24FF11C0B701AE
S1132A8080E390E02C879BD12C8522FF16C021FF88
S1132A9003C088E590E002C088E790E0B7010CC06D
S1132AA0822F867851F021FD02C080E201C08BE2C2
S1132AB027FD8DE2B70190E082D1A51430F4B7016F
S1132AC080E390E07CD15A94F8CFAA94F401EA0D03
S1132AD0F11D8081B70190E072D1A110F6CF3320AF
S1132AE009F45DCEB70180E290E069D13A94F7CF62
S1132AF0F7018681978102C08FEF9FEF2C96E2E168
S1132B001AC20F931F93CF93DF93869F8001879FF1
S1132B10100D969F100D1124C8010DD0EC010097E3
S1132B2021F0A80160E070E038D1CE01DF91CF91AF
S1132B301F910F910895CF93DF938230910510F484
S1132B4082E090E0E0915F03F091600320E030E0E8
S1132B50A0E0B0E0309739F140815181481759071E
S1132B60B8F04817590771F482819381109729F0BE
S1132B7013969C938E9312972CC09093600380932A
S1132B805F0327C02115310531F04217530718F0B0
S1132B90A901DB0101C0EF019A01BD01DF0102803F
S1132BA0F381E02DD7CF21153105F9F0281B390B1E
S1132BB02430310580F48A819B816115710521F0EF
S1132BC0FB019383828304C09093600380935F032B
S1132BD0FE01329644C0FE01E20FF31F81939193EC
S1132BE022503109398328833AC020915D03309102
S1132BF05E03232B41F420910601309107013093A9
S1132C005E0320935D032091040130910501211599
S1132C10310541F42DB73EB74091080150910901A7
S1132C20241B350BE0915D03F0915E03E217F3077B
S1132C30A0F42E1B3F0B2817390778F0AC014E5F28
S1132C405F4F2417350748F04E0F5F1F50935E0304
S1132C5040935D038193919302C0E0E0F0E0CF01E3
S1132C60DF91CF910895CF93DF93009709F487C044
S1132C70FC01329713821282C0915F03D0916003EA
S1132C80209781F420813181280F391F80915D03C1
S1132C9090915E038217930779F5F0935E03E093B6
S1132CA05D036DC0DE0120E030E0AE17BF0750F4D5
S1132CB012964D915C9113979D014115510509F1AF
S1132CC0DA01F3CFB383A28340815181840F951F2E
S1132CD08A179B0771F48D919C911197840F951F0E
S1132CE002969183808312968D919C91139793837E
S1132CF082832115310529F4F0936003E0935F0387
S1132D003EC0D9011396FC93EE9312974D915D91B9
S1132D10A40FB51FEA17FB0779F480819181840F12
S1132D20951F0296D90111969C938E93828193816B
S1132D3013969C938E931297E0E0F0E08A819B8136
S1132D40009719F0FE01EC01F9CFCE01029628811B
S1132D503981820F931F20915D0330915E03281700
S1132D60390769F4309729F41092600310925F03D5
S1132D7002C013821282D0935E03C0935D03DF917D
S1132D80CF910895FC010590615070400110D8F76F
S1132D90809590958E0F9F1F0895DC0101C06D935F
S1132DA041505040E0F70895FC016150704001909B
S1132DB00110D8F7809590958E0F9F1F08950F935B
S1132DC01F93CF93DF93182F092FEB018B8181FD84
S1132DD003C08FEF9FEF20C082FF10C04E815F8140
S1132DE02C813D81421753077CF4E881F9819F01CE
S1132DF02F5F3F4F39832883108306C0E885F98508
S1132E00812F0995892B29F72E813F812F5F3F4F11
S1132E103F832E83812F902FDF91CF911F910F91AC
S1132E200895FA01AA27283051F1203181F1E8945C
S1132E306F936E7F6E5F7F4F8F4F9F4FAF4FB1E0A9
S1132E403ED0B4E03CD0670F781F891F9A1FA11DA4
S1132E50680F791F8A1F911DA11D6A0F711D811DA5
S1132E60911DA11D20D009F468943F912AE0269F6A
S1132E7011243019305D3193DEF6CF010895462FC9
S1132E804770405D4193B3E00FD0C9F7F6CF462FAA
S1132E904F70405D4A3318F0495D31FD4052419313
S1132EA002D0A9F7EACFB4E0A695979587957795D0
S1132EB06795BA95C9F700976105710508959B0157
S1132EC0AC010A2E06945795479537952795BA95E0
S1132ED0C9F7620F731F841F951FA01D089546D064
S1132EE0A59F900DB49F900DA49F800D911D11245A
S1132EF00895B7FFF4CFF3DF821B930B08952F924D
S1132F003F924F925F926F927F928F929F92AF9275
S1132F10BF92CF92DF92EF92FF920F931F93CF93C2
S1132F20DF93CDB7DEB7CA1BDB0B0FB6F894DEBF59
S1132F300FBECDBF09942A88398848885F846E847F
S1132F407D848C849B84AA84B984C884DF80EE80C9
S1132F50FD800C811B81AA81B981CE0FD11D0FB6D2
S1132F60F894DEBF0FBECDBFED010895A29FB0015E
S1132F70B39FC001A39F700D811D1124911DB29FA9
S1112F80700D811D1124911D0895F894FFCF4A
S1132F8E0100000000006103200014020000000094
S1132F9E000064648FC2F53C001800002C0300008E
S1132FAEFA022203EA0002010801DC00E4004003F5
S1132FBED602CC0218030E03F500F0002C03E00237
S1132FCED600CD00FA020403C200B8002203360371
S1132FDE00120010001801020304050607084241FE
S1132FEE434B2020202020202020504C41590020EB
S1132FFE20464C41505059204249524400504958A1
S113300E454C0047414D4520204F564552005343F1
S113301E4F52453A20002020205452592041474116
S113302E494E3F00464C41505059540053746172FE
S113303E74696E67205352414D20746573742E2E3D
S113304E2E0057726974652070686173652065720D
S113305E726F723A206578745F72616D5B253464A9
S113306E5D203D2025303258202873686F756C64BE
S113307E2062652025303258290A0052657472691F
S113308E6576616C207068617365206572726F720B
S113309E3A206578745F72616D5B2534645D203D02
S11330AE2025303258202873686F756C6420626551
S11330BE2025303258290A005352414D207465732D
S11330CE7420636F6D706C657465642077697468C1
S11330DE0A253464206572726F727320696E2077CC
S11330EE7269746520706861736520616E640A2567
S11330FE3464206572726F727309696E207265741E
S113310E72696576616C2070686173650A0A005590
S107311E41525400C2
S9030000FC
