S00D00004E4F4445312E73726563C0
S113000009C200009EC30000ABC3000031C200005F
S11300101DC200001BC2000019C2000017C200006C
S113002015C2000013C2000011C200000FC200007C
S11300300DC200000BC2000009C2000007C200008C
S11300400C94A10B03C2000001C20000FFC1000018
S1130050FDC10000FBC10000F9C10000F7C10000B0
S1130060F5C10000F3C10000F1C10000EFC10000C0
S1130070880083007E0078005249474854004C456C
S1130080465400444F574E00555000486F6C64204E
S11300904A6F79737469636B004C657420676F00F1
S11300A0557365206C65667420736C6964657200B1
S11300B02D3E525F42544E0043616C69627261741A
S11300C065006669742073637265656E00436F6EC4
S11300D07472617374004D75736963004F70746951
S11300E06F6E73004465627567004869676873637F
S11300F06F726500000000000000000000065F5FF2
S1130100060000000007070007070000147F7F14A3
S11301107F7F1400242E6B6B3A1200004666301861
S11301200C666200307A4F5D377A4800040703009A
S113013000000000001C3E63410000000041633EDB
S11301401C000000082A3E1C1C3E2A0808083E3EEB
S11301500808000000A0E06000000000080808088B
S11301600808000000006060000000006030180C07
S1130170060301003E7F594D7F3E000042427F7FCF
S113018040400000627359496F6600002263494988
S11301907F360000181C16137F7F10002767454523
S11301A07D3900003C7E4B497930000003637119AE
S11301B00F070000367F49497F360000064F496922
S11301C03F1E000000006C6C0000000000A0EC6CFE
S11301D000000000081C36634100000014141414CD
S11301E014140000004163361C0800000203515936
S11301F00F0600003E7F415D5D1F1E007C7E1313D1
S11302007E7C0000417F7F49497F36001C3E63416C
S113021041632200417F7F41637F1C00417F7F490E
S11302205D416300417F7F491D0103001C3E634122
S1130230517372007F7F08087F7F000000417F7F39
S113024041000000307040417F3F0100417F7F0842
S11302501C776300417F7F41406070007F7F060C04
S1130260067F7F007F7F060C187F7F001C3E634162
S1130270633E1C00417F7F49090F06001E3F217128
S11302807F5E0000417F7F19396F460026674D5914
S11302907B32000003417F7F410300007F7F4040A9
S11302A07F7F00001F3F60603F1F00007F7F30188A
S11302B0307F7F0063771C081C776300074F7878D2
S11302C04F0700006773594D47637100007F7F41FA
S11302D0410000000103060C183060000041417F1A
S11302E07F000000080C0603060C08008080808054
S11302F080808080000003070400000020745454B0
S11303003C784000413F7F44447C3800387C44447E
S11303106C280000307848493F7F4000387C5454B2
S11303205C180000487E7F490302000098BCA4A426
S1130330F87C0400417F7F08047C780000447D7DC4
S11303404000000040C484FD7D000000417F7F1018
S1130350386C440000417F7F400000007C7C0C1816
S11303600C7C78007C7C04047C780000387C444459
S11303707C38000084FCF8A4243C1800183C24A415
S1130380F8FC8400447C78441C180000485C5454F5
S11303907424000000043E7F442400003C7C404060
S11303A03C7C40001C3C60603C1C00003C7C603099
S11303B0607C3C00446C3810386C44009CBCA0A0A9
S11303C0FC7C00004C64745C4C64000008083E77BC
S11303D04141000000000077770000004141773E72
S11303E00808000002030103020301006686B070DE
S11303F070B08666007E424242427E00007E7E7E6F
S11304007E7E7E00FF8080808080808001010101EB
S1130410010101FF11241FBECFEFD4E0DEBFCDBF29
S113042011E0A0E0B1E0EEE8FFE102C005900D921A
S1130430A431B107D9F721E0A4E1B1E001C01D92D4
S1130440A33AB207E1F7ABD50C94C50FD9CD90937D
S113045016018093150160931701662341F088E12A
S113046091E0FC0111922E2F281B2617D8F3089532
S11304701F920F920FB60F9211248F9381E08093F5
S113048014018F910F900FBE0F901F901895F89440
S113049086B78E7F86BF8BB780628BBF78940895B2
S11304A0D0D068E088E290E0D2DF4FEF50E064E61D
S11304B080E6AED04FEF50E064E680E7A9D041E09B
S11304C050E061E08BE2A4D040E050E060EE8FE0C9
S11304D09FD0DDCF0895CF93DF93C4E0D0E002C076
S11304E0CC0FDD1F8A95E2F78CE274D08C239D2318
S11304F0892BD1F381E0DF91CF910895FF920F937F
S11305001F93CF93DF93EC01062FF62EFF0CFF0C05
S1130510FF0CFF0C28813981B90175956795759594
S113052067957595679581E38F0D45D0288139814D
S1130530B901660F771F62957295707F7627607F89
S1130540762782E38F0D37D06A816F7070E085E380
S11305508F0D31D08A81882389F010E086E3F80E6C
S1130560FE01E10FF11D6381772767FD70958F2DE3
S1130570810F21D01F5F8A81181790F3802F38D004
S1130580802FA9DFDF91CF911F910F91FF900895E4
S113059020911701222359F0382FA8E1B1E0E82F68
S11305A0F92F81918D938E2F831B8217D0F385E1D0
S11305B091E0A4CF0895CF93DF93D82FC62F4ED0C8
S11305C082E042D08D2F40D08C2F3ED049D0DF9195
S11305D0CF910895CF93C82F41D083E035D08C2F8D
S11305E033D036D0C82F3CD08C2F90E0CF910895D3
S11305F0CF93C82F33D021E030E0C90102C0880F67
S1130600991FCA95E2F780681FD02AD0CF91089528
S11306101F93CF93DF93182FD62FC42F1FD085E0BD
S113062013D0812F11D08D2F0FD08C2F0DD018D037
S1130630DF91CF911F91089511D080EC05D010C0A7
S1130640089510D0F9CF08958FB9779BFECF089500
S113065080E0FADF779BFECF8FB10895C4980895A8
S1130660C49A0895BE9887B3806B87BB8DB18065AB
S11306708DB9F6CF08955D9BFECF8CB908955F9B2D
S1130680FECF8CB190E0089510BC8FE189B988E168
S11306908AB96FE373E08BE393E00C94330E08950F
S11306A08230910571F01CF4019739F01CC083303D
S11306B0910559F0049769F016C084E18093001401
S11306C00BC085E18093001407C086E18093001479
S11306D003C087E18093001482E58A95F1F7809145
S11306E0001490E0089580E090E00895BA9ABB9ACF
S11306F085B7816085BF85B7826085BF85B7846013
S113070085BF85B7886085BF8BB780648BBF8BB787
S113071080688BBF1092300110923101089580914E
S11307203101813019F410923101089580E0089567
S113073080913001813019F410923001089580E0E5
S113074008951F920F920FB60F9211248F9381E098
S1130750809330018F910F900FBE0F901F901895CA
S11307601F920F920FB60F9211248F9381E0809302
S113077031018F910F900FBE0F901F9018950F931A
S11307801F93CF93DF93C4E6D0E000912A01109128
S11307902B0181E090E084DF01581F4F081B190BE7
S11307A010932B0100932A01009128011091290133
S11307B082E090E075DF01581F4F081B190B10935E
S11307C029010093280121972097F9F680912A01A5
S11307D090912B0124E630E0B9010E94C70D70937B
S11307E02B0160932A018091280190912901B9017C
S11307F00E94C70D7093290160932801DF91CF9166
S11308001F910F9108952F923F924F925F926F9292
S11308107F928F929F92AF92BF92CF92DF92EF928C
S1130820FF920F931F93CF93DF9300D000D000D09B
S1130830CDB7DEB73C017A8369835C834B833E8307
S11308402D8318018501B901882777FD8095982F9C
S11308500E94B40C4B015C01B3016E0D7F1D298114
S11308603A81621B730B882777FD8095982F0E942D
S1130870B40C2B013C01B1018D819E81681B790B65
S1130880882777FD8095982F0E94B40C9B01AC01BA
S1130890C301B2010E94640D2B013C016B817C8178
S11308A0E981FA816E1B7F0B882777FD8095982F4D
S11308B00E94B40C9B01AC01C301B201BAD79B01E5
S11308C0AC01C501B4014DD70E94810CC101801B4C
S11308D0910B6817790774F58D819E81800F911FA4
S11308E0861797074CF5F80111230CF43196F5950A
S11308F0E795D80112C08A0F9B1FAC014E0F5F1FF2
S11309006417750714F069010BC0C6018E1B9F0B99
S11309108617970714F0C01AD10AC601801B910BE1
S11309209601200F311F621773072CF7861797075C
S113093014F704C0610102C0CD80DE80C601269692
S11309400FB6F894DEBF0FBECDBFDF91CF911F91DC
S11309500F91FF90EF90DF90CF90BF90AF909F905A
S11309608F907F906F905F904F903F902F9008955D
S1130970AF92BF92CF92DF92EF92FF920F931F93A9
S1130980823509F46EC020F48C3409F44AC089C05D
S1130990883519F0893519F184C0C0902601D090AA
S11309A02701E0902A01F0902B0181E090E078DEAD
S11309B00F2EFAE0AF2EB12CF02D04E610E02CE956
S11309C03FEF4FEF50E060E070E01DDF90932701B0
S11309D080932601809126019091270164C0C090E4
S11309E02401D0902501E0902801F090290182E0B3
S11309F090E056DE0F2EFAE0AF2EB12CF02D04E677
S1130A0010E02CE93FEF4FEF50E060E070E0FBDED8
S1130A1090932501809324018091240190912501D4
S1130A2042C0C0902201D090230183E090E038DEE0
S1130A300F2EFAE0AF2EB12CF02DE12CF12C04E6B0
S1130A4010E020E030E04FEF50E060E070E0DBDEEB
S1130A50909323018093220180912201909123019C
S1130A6022C0C0902001D090210184E090E018DEE3
S1130A700F2EFAE0AF2EB12CF02DE12CF12C04E670
S1130A8010E020E030E04FEF50E060E070E0BBDECB
S1130A909093210180932001809120019091210164
S1130AA002C080E090E01F910F91FF90EF90DF90E3
S1130AB0CF90BF90AF90089562DE88E559DF9093A0
S1130AC027018093260189E553DF909325018093C4
S1130AD024018CE44DDF909323018093220182E56D
S1130AE047DF90932101809320010895CF93DF93F2
S1130AF0C2E8D1E0D0936901C093680110926B0100
S1130B0010926A0110926D0110926C01E4E6F1E01A
S1130B108AEE90E09183808383E090E09093670174
S1130B208093660126E331E03093870120938601A8
S1130B306EE671E0709389016093880110928B01D5
S1130B4010928A0144EE50E05983488390938501C2
S1130B5080938401F0933B01E0933A01C0E5D1E036
S1130B60D0933D01C0933C0110923F0110923E018D
S1130B704CED50E0D9014D935C93909339018093EF
S1130B8038012AE531E03093550120935401109245
S1130B90570110925601F0935901E093580186EDE4
S1130BA090E09983888382E090E09093530180934E
S1130BB05201D0935F01C0935E01109261011092C3
S1130BC06001F0936301E09362014DEC50E0D901C0
S1130BD04D935C9390935D0180935C01C8E7D1E0F1
S1130BE0D0937301C0937201109275011092740135
S1130BF0F0937701E093760122EC30E0DB012D9352
S1130C003C93909371018093700170937D01609384
S1130C107C0110927F0110927E01F0938101E09398
S1130C20800128EB30E03983288390937B01809303
S1130C307A01F0933301E0933201F0933501E093AC
S1130C403401DF91CF91089580E0F6D160EA70E03D
S1130C5080E491E00E942C0E80E491E0EBD281E0EC
S1130C6076D482E0E9D160EB70E080E491E0F4D7DF
S1130C7080E491E0DFD245D408C081E8B0D183E0BC
S1130C8090E00EDD96958795AAD152DD8823A9F3CD
S1130C9008950F931F93CF93DF93C0E08C2F57D405
S1130CA0CF5FC730D9F780E0C7D169E970E080E44D
S1130CB091E0D2D780E491E0BDD282E0BDD160EB77
S1130CC070E080E491E0C8D780E491E0B3D219D415
S1130CD02FDD8823E9F380E0CED16BE870E080E477
S1130CE091E0BAD780E491E0A5D2C0E7D0E008E76C
S1130CF010E081E0C0D1FE016591749180E491E03F
S1130D00ABD780E491E096D2FCD312DD8823E9F3DB
S1130D102296C017D10769F7DF91CF911F910F91E8
S1130D200895809134019091350121E08A3592072C
S1130D3011F48ACF08958857914009F4AACF0895F1
S1130D4089E516DE8734910514F120912C012431B4
S1130D50F4F0E0913401F09135018281938101979F
S1130D60181619068CF480E090E00480F581E02DDB
S1130D700196228133812150310982179307ACF304
S1130D80F0933501E093340110922C011DC08A3B8D
S1130D902FEF92078CF420912C0124316CF0E09118
S1130DA03401F091350184819581909335018093CC
S1130DB0340110922C0108C08B5B9F4F8B38910536
S1130DC018F483E180932C01B3DC882399F0E0913B
S1130DD03401F091350186819781009749F0909311
S1130DE033018093320190933501809334011BC009
S1130DF098DF19C094DC8823B1F0E0913401F091BC
S1130E00350180859185009771F0E0913201F09170
S1130E10330120853185309333012093320190933F
S1130E2035018093340180E090E008950F931F937F
S1130E30CF93DF9385DF892B09F043C0C0E08C2F6B
S1130E4086D3CF5FC730D9F7E0913201F0913301F7
S1130E508281938118161906A4F5C0E0D0E010E849
S1130E6001E88C2FE9D080E002D1E0913201F091C9
S1130E7033016081718180E491E0EED620913201EA
S1130E80309133018091340190913501281739074D
S1130E9011F4802F01C0812F92D180E491E0CAD156
S1130EA0E0913201F09133010480F581E02DF0935B
S1130EB03301E0933201219682819381C817D907C7
S1130EC084F233D4882351F080912C018F5F809376
S1130ED02C0117D333D461E087E0E1D3DF91CF91C4
S1130EE01F910F9108956DE389E0EAD361E089E0F1
S1130EF0D7D261E087E2D4D26DE087E2D1D26DE04F
S1130F0082E1CED261E382E1CBD261E38EE1C8D249
S1130F1069E18EE1C5D269E187E2C2D26DE387E27D
S1130F20BFD26DE389E0BCD221E045E46DE38BE3FD
S1130F30CCD361E087E7C4D361E089E5B1D26DE049
S1130F408CE5AED26DE08EE6ABD269E18BE6A8D239
S1130F5069E18FE5A5D265E282E6A2D265E288E680
S1130F609FD261E385E69CD26DE388E699D261E085
S1130F7087E796D2C6C20895F89486DB85B7806861
S1130F8085BF80B7806280BF8FD0C4D2ACDFAEDDB6
S1130F9093DDACDB8CE3B5D383DA78940895CF93F7
S1130FA0DF93CDB7DEB728970FB6F894DEBF0FBE38
S1130FB0CDBFE2DF88E0ECE0F1E0DE0111960190C4
S1130FC00D928A95E1F788E5D3DC9981981729F089
S1130FD0898360E0CE010196DBDA28DFF4CFE0916B
S1130FE00A01F0910B018083089510922F01109251
S1130FF02E01E0910A01F0910B0181E28083E091DE
S11310000A01F0910B011082E0910A01F0910B01A9
S11310108FE78083E0910A01F0910B0182E28083E3
S1131020E0910A01F0910B011082E0910A01F09124
S11310300B0187E080830895CF93C82FD6DFC09338
S11310402F018C2F877089F0E0910A01F0910B0138
S11310501082E0910A01F0910B0180E18083C06B62
S1131060E0910A01F0910B01C083CF9108958F772D
S113107080932E010895CF93C82FDEDFC83048F443
S113108080E0E0910801F091090110828F5F8038BF
S1131090C1F7CF910895CF93C0E08C2FECDFCF5FE1
S11310A0C830D9F7CF91089585B7806885BF80B7D8
S11310B0806280BFE0910A01F0910B018EEA808387
S11310C0E0910A01F0910B0181EA8083E0910A0129
S11310D0F0910B018AED8083E0910A01F0910B01FC
S11310E082E18083E0910A01F0910B0188EC808316
S11310F0E0910A01F0910B0188EA8083E0910A01F2
S1131100F0910B018FE38083E0910A01F0910B01D0
S113111085ED8083E0910A01F0910B0180E88083E2
S1131120E0910A01F0910B0181E88083E0910A01CA
S1131130F0910B0180E58083E0910A01F0910B01AD
S113114089ED8083E0910A01F0910B0181E28083B3
S1131150E0910A01F0910B0180E28083E0910A01A1
S1131160F0910B011082E0910A01F0910B018BEDDB
S11311708083E0910A01F0910B0180E38083E09188
S11311800A01F0910B018DEA8083E0910A01F0914C
S11311900B011082E0910A01F0910B0184EA808333
S11311A0E0910A01F0910B0186EA8083E0910A0143
S11311B0F0910B018FEA80836EDF17CF08958A3098
S11311C061F480912F0190E001968770907880936C
S11311D02F0110922E0181E00895882339F1E82F20
S11311E0F0E0EE0FFF1FEE0FFF1FEE0FFF1FEC509E
S11311F0F04028E080912F01A0912E01B0E090E80A
S1131200899FA00DB11D11248091060190910701C1
S1131210A80FB91F84918C9380912E018F5F8093C6
S11312202E01215031962111E5CF02C080E00895AE
S113123081E008951F93CF93DF93EC0180E011E0E8
S1131240180FFE01E80FF11D8081B9DF882311F02A
S1131250812FF5CFDF91CF911F91089587706F771C
S1131260E62FF0E090E8899FE00DF11D11248091B4
S1131270060190910701E80FF91F8081482B4083F4
S11312800895962F8823ACF06034A8F4462F477055
S113129021E030E0B90102C0660F771F4A95E2F7FA
S11312A0AB01682F892F869586958695D7DF81E0D7
S11312B0089580E0089580E008952F923F924F9220
S11312C05F926F927F928F929F92AF92BF92CF92D2
S11312D0DF92EF92FF920F931F93CF93DF93CDB7DB
S11312E0DEB72C970FB6F894DEBF0FBECDBF382EF5
S11312F0262E042F122F481708F490C0841709F4DF
S113130079C0862E912CA42EB12C482E512C622FFC
S113131070E068197909882777FD8095982F24D380
S11313206B017C01B50164197509882777FD8095E7
S1131330982F1AD39B01AC01C701B6017AD26D83F1
S11313407E838F839887632D70E080E090E00AD3DA
S11313506B017C01B501882777FD8095982F04D314
S113136069837A838B839C839B01AC01C701B6019B
S11313705CD288230CF03EC0662457FC6094762C23
S1131380C401AA2797FDA095BA2F89879A87AB87AE
S1131390BC87C301B201E8D29B01AC01C701B6010D
S11313A0DFD12D813E814F8158858ED34B015C0165
S11313B069857A858B859C85D7D29B01AC01C50153
S11313C0B401CFD1A3D2B62EC701B6019FD2862FC6
S11313D06B2D57DF2DEC3CEC4CEC5DE3C701B60103
S11313E0C0D16B017C0129813A814B815C811DD282
S11313F088237CF21215C8F1301239C0211630F05E
S113140036C0822D212E182F022D01C0022D602FEF
S1131410832D37DF0F5F0117D0F329C0822E912C63
S1131420A82EB12C442E512C70E068197909882714
S113143077FD8095982F98D26B017C01B5016419D2
S11314407509882777FD8095982F8ED29B01AC0172
S1131450C701B601EED16D837E838F839887822D79
S1131460212E182F302E0A2D6ECF301651F22C96C5
S11314700FB6F894DEBF0FBECDBFDF91CF911F91A1
S11314800F91FF90EF90DF90CF90BF90AF909F901F
S11314908F907F906F905F904F903F902F90089522
S11314A0CF93DF93D82FC62F262F482F6091940116
S11314B08091960102DFD0939601C0939401DF914D
S11314C0CF910895CF93C82FB7DD80E8C89FA001BE
S11314D0112480E890E040585F4F9A01281B390B93
S11314E0E0910601F0910701E20FF31F2081E091E2
S11314F00801F091090120830197009771F7CF91BA
S11315000895CF93C0E08C2FDDDFCF5FC830D9F7CB
S1131510CF91089520E030E0B0E8A0E011C0A90127
S1131520481B590BE0910601F0910701E40FF51FE8
S113153010820197009799F7211584E0380729F064
S11315408B2F9A2F20583F4FEACFDBCF0895CF93AC
S1131550C82F72DDC83020F580E8C89FB00111247F
S113156020E830E060587F4FAB01421B530BE09101
S11315700601F0910701E40FF51F10822150310993
S11315802115310589F721E030E0C90102C0880F37
S1131590991FCA95E2F790912D01892B80932D0113
S11315A0CF910895EF92FF920F931F93CF93DF9300
S11315B0222309F45FC0A0910601B091070130E82D
S11315C0839FA00DB11D11244CE851E0FA019D91B7
S11315D091939E2F941B9217D0F3A22FB0E0C0E8F2
S11315E0D0E07E01EA1AFB0A1E141F040CF448C062
S11315F018C06091060170910701400F511FFB0153
S1131600E40FF51F4A0F5B1F640F751FEB01388150
S113161030839F5F492F50E04E155F0554F322231A
S1131620D1F0D0E88D9FB00111246A1B7B0BCCE86C
S1131630D1E0FE016D507140AB014E0F5F1FA091D0
S11316400601B0910701A40FB51F91919C939E2FA1
S11316509C1B921788F321E030E0A90102C0440FDB
S1131660551F8A95E2F7CA0190912D01892B809329
S11316702D010EC06894EE24E7F8F12CA0E0B0E050
S113168050E8859F8001112440E050E090E0B1CF04
S1131690DF91CF911F910F91FF90EF900895CF9319
S11316A0DF93D82FC62F693018F0C8506C2FF7DF9E
S11316B02C2F4FE760E08D2F75DFDF91CF910895D8
S11316C0809396016093940108950F931F93CF9391
S11316D0DF93C82FD62F142F022F80939601609387
S11316E09401622FDDDE602F812FDADE6D2F812FD2
S11316F0D7DE6D2F8C2FD4DEDF91CF911F910F9108
S11317000895282F89B7816089BF83B78D6083BF0F
S113171030E040E050E060EC72E180E090E04AD2DA
S113172021BF81E0809398010895809198018130D0
S113173019F410929801089580E008951092980188
S113174008951F920F920FB60F9211248F9381E088
S1131750809398018F910F900FBE0F901F90189552
S11317605058BB27AA270ED075C166D130F06BD173
S113177020F031F49F3F11F41EF45BC10EF4E095A8
S1131780E7FB51C1E92F77D180F3BA1762077307DA
S11317908407950718F071F49EF58FC10EF4E09557
S11317A00B2EBA2FA02D0B01B90190010C01CA0117
S11317B0A0011124FF27591B99F0593F50F4503EC2
S11317C068F11A16F040A22F232F342F4427585FB4
S11317D0F3CF469537952795A795F0405395C9F7CC
S11317E07EF41F16BA0B620B730B840BBAF0915084
S11317F0A1F0FF0FBB1F661F771F881FC2F70EC023
S1131800BA0F621F731F841F48F4879577956795F5
S1131810B795F7959E3F08F0B3CF9395880F08F0DE
S11318209927EE0F979587950895D9D008F481E00C
S113183008950CD00FC107D140F0FED030F021F450
S11318405F3F19F0F0C0511139C1F3C014D198F3BE
S11318509923C9F35523B1F3951B550BBB27AA272D
S113186062177307840738F09F5F5F4F220F331F9F
S1131870441FAA1FA9F333D00E2E3AF0E0E830D06B
S113188091505040E695001CCAF729D0FE2F27D06E
S1131890660F771F881FBB1F261737074807AB073C
S11318A0B0E809F0BB0B802DBF01FF2793585F4FB1
S11318B02AF09E3F510568F0B6C000C15F3FECF3CB
S11318C0983EDCF3869577956795B795F7959F5F76
S11318D0C9F7880F911D9695879597F90895E1E0CA
S11318E0660F771F881FBB1F621773078407BA0729
S11318F020F0621B730B840BBA0BEE1F88F7E09584
S1131900089504D06894B111D9C00895BCD088F06A
S11319109F5790F0B92F9927B751A0F0D1F0660FD7
S1131920771F881F991F1AF0BA95C9F712C0B130F2
S113193081F0C3D0B1E00895C0C0672F782F882705
S1131940B85F39F0B93FCCF3869577956795B39531
S1131950D9F73EF490958095709561957F4F8F4FA0
S11319609F4F0895E89409C097FB3EF490958095A5
S1131970709561957F4F8F4F9F4F9923A9F0F92F51
S113198096E9BB279395F695879577956795B795CF
S1131990F111F8CFFAF4BB0F11F460FF1BC06F5FB5
S11319A07F4F8F4F9F4F16C0882311F096E911C0C7
S11319B0772321F09EE8872F762F05C0662371F0E8
S11319C096E8862F70E060E02AF09A95660F771FFC
S11319D0881FDAF7880F9695879597F90895990FD8
S11319E00008550FAA0BE0E8FEEF16161706E807E5
S11319F0F907C0F012161306E407F50798F0621B06
S1131A00730B840B950B39F40A2661F0232B242BDA
S1131A10252B21F408950A2609F4A140A6958FEFF9
S1131A20811D811D089597F99F6780E870E060E04B
S1131A3008959FEF80EC089500240A941616170663
S1131A4018060906089500240A94121613061406AB
S1131A5005060895092E0394000C11F4882352F00E
S1131A60BB0F40F4BF2B11F460FF04C06F5F7F4FC6
S1131A708F4F9F4F089557FD9058440F551F59F0AD
S1131A805F3F71F04795880F97FB991F61F09F3F67
S1131A9079F087950895121613061406551FF2CF90
S1131AA04695F1DF08C0161617061806991FF1CFE0
S1131AB086957105610508940895E894BB27662707
S1131AC07727CB0197F908950BD0C4CFB5DF28F061
S1131AD0BADF18F0952309F0A6CFABCF1124EECFCF
S1131AE0CADFA0F3959FD1F3950F50E0551F629F75
S1131AF0F001729FBB27F00DB11D639FAA27F00D63
S1131B00B11DAA1F649F6627B00DA11D661F829F89
S1131B102227B00DA11D621F739FB00DA11D621F6E
S1131B20839FA00D611D221F749F3327A00D611D8B
S1131B30231F849F600D211D822F762F6A2F11246D
S1131B409F5750408AF0E1F088234AF0EE0FFF1FC0
S1131B50BB1F661F771F881F91505040A9F79E3FF7
S1131B60510570F060CFAACF5F3FECF3983EDCF3F1
S1131B70869577956795B795F795E7959F5FC1F734
S1131B80FE2B880F911D9695879597F9089597FBDD
S1131B90072E16F4009406D077FD08D027D007FC52
S1131BA005D03EF4909581959F4F08957095619569
S1131BB07F4F0895052E97FB16F400940FD057FD20
S1131BC005D028D007FC02D046F408C050954095B3
S1131BD0309521953F4F4F4F5F4F089590958095D5
S1131BE0709561957F4F8F4F9F4F0895AA1BBB1B24
S1131BF051E107C0AA1FBB1FA617B70710F0A61B09
S1131C00B70B881F991F5A95A9F780959095BC0129
S1131C10CD010895A1E21A2EAA1BBB1BFD010DC024
S1131C20AA1FBB1FEE1FFF1FA217B307E407F50788
S1131C3020F0A21BB30BE40BF50B661F771F881F64
S1131C40991F1A9469F760957095809590959B01FA
S1131C50AC01BD01CF010895FB01DC0105900D929B
S1131C600020E1F708950F931F93CF93DF93EC01C6
S1131C708B01009731F46115710519F480E090E04F
S1131C8037C06EE070E081E090E037D0FC0100974F
S1131C90A9F380E883830115110571F01387028786
S1131CA081E883838091990190919A01892B21F491
S1131CB0F0939A01E09399012097C9F0D187C087E6
S1131CC083818260838380919B0190919C01892B05
S1131CD071F4F0939C01E0939B0180919D0190919C
S1131CE09E01892B21F4F0939E01E0939D01CF0185
S1131CF0DF91CF911F910F9108950F931F93CF936D
S1131D00DF93869F8001879F100D969F100D1124ED
S1131D10C8010DD0EC01009721F0A80160E070E04B
S1131D202DD1CE01DF91CF911F910F910895CF93C3
S1131D30DF938230910510F482E090E0E091A101FC
S1131D40F091A20120E030E0A0E0B0E0309739F15A
S1131D504081518148175907B8F04817590771F461
S1131D6082819381109729F013969C938E931297F6
S1131D702CC09093A2018093A10127C021153105A5
S1131D8031F04217530718F0A901DB0101C0EF013C
S1131D909A01BD01DF010280F381E02DD7CF211527
S1131DA03105F9F0281B390B2430310580F48A8180
S1131DB09B816115710521F0FB019383828304C02B
S1131DC09093A2018093A101FE01329644C0FE01CA
S1131DD0E20FF31F819391932250310939832883B1
S1131DE03AC020919F013091A001232B41F420910E
S1131DF00201309103013093A00120939F012091AF
S1131E000001309101012115310541F42DB73EB790
S1131E104091040150910501241B350BE0919F0171
S1131E20F091A001E217F307A0F42E1B3F0B281733
S1131E30390778F0AC014E5F5F4F2417350748F03F
S1131E404E0F5F1F5093A00140939F018193919384
S1131E5002C0E0E0F0E0CF01DF91CF910895CF938D
S1131E60DF93009709F487C0FC0132971382128232
S1131E70C091A101D091A201209781F420813181E8
S1131E80280F391F80919F019091A0018217930719
S1131E9079F5F093A001E0939F016DC0DE0120E08D
S1131EA030E0AE17BF0750F412964D915C91139732
S1131EB09D014115510509F1DA01F3CFB383A283E2
S1131EC040815181840F951F8A179B0771F48D916E
S1131ED09C911197840F951F02969183808312968B
S1131EE08D919C911397938382832115310529F455
S1131EF0F093A201E093A1013EC0D9011396FC9393
S1131F00EE9312974D915D91A40FB51FEA17FB074D
S1131F1079F480819181840F951F0296D9011196DD
S1131F209C938E938281938113969C938E931297A4
S1131F30E0E0F0E08A819B81009719F0FE01EC015A
S1131F40F9CFCE01029628813981820F931F209107
S1131F509F013091A0012817390769F4309729F4BB
S1131F601092A2011092A10102C013821282D09396
S1131F70A001C0939F01DF91CF910895DC0101C0BE
S1111F806D9341505040E0F70895F894FFCF60
S1131F8E0000A30120000018001200100102030437
S1071F9E0506070821
S9030000FC
