S00D00004E4F4445312E73726563C0
S113000018C20000B1C30000BEC3000041C200001A
S11300102DC200002BC2000029C2000027C200002C
S113002025C2000023C2000021C200001FC200003C
S11300301DC200001BC2000019C2000017C200004C
S11300400C94831013C2000011C200000FC2000000
S11300500DC200000BC2000009C2000007C200006C
S113006005C2000003C2000001C20000FFC100007D
S1130070880083007E0078005249474854004C456C
S1130080465400444F574E00555000486F6C64204E
S11300904A6F79737469636B004C657420676F00F1
S11300A0557365206C65667420736C6964657200B1
S11300B02D3E525F42544E0043616C69627261741A
S11300C065006669742073637265656E00436F6EC4
S11300D07472617374004D75736963004F70746951
S11300E06F6E7300446562756700537461727400C7
S11300F03230343800466C6170707920506978650C
S11301006C0047616D6573004869676873636F725B
S11301106500000000000000000000065F5F0600AC
S113012000000007070007070000147F7F147F7F8B
S11301301400242E6B6B3A120000466630180C66CD
S11301406200307A4F5D377A4800040703000000EC
S11301500000001C3E63410000000041633E1C009F
S11301600000082A3E1C1C3E2A0808083E3E0808D7
S1130170000000A0E060000000000808080808086B
S1130180000000006060000000006030180C0603EE
S113019001003E7F594D7F3E000042427F7F404038
S11301A00000627359496F660000226349497F3633
S11301B00000181C16137F7F1000276745457D3902
S11301C000003C7E4B4979300000036371190F072E
S11301D00000367F49497F360000064F49693F1EBB
S11301E0000000006C6C0000000000A0EC6C00003B
S11301F00000081C36634100000014141414141485
S11302000000004163361C080000020351590F0628
S113021000003E7F415D5D1F1E007C7E13137E7CCB
S11302200000417F7F49497F36001C3E63414163A2
S11302302200417F7F41637F1C00417F7F495D41F4
S11302406300417F7F491D0103001C3E63415173DC
S113025072007F7F08087F7F000000417F7F41009C
S11302600000307040417F3F0100417F7F081C77D0
S11302706300417F7F41406070007F7F060C067FF2
S11302807F007F7F060C187F7F001C3E6341633E26
S11302901C00417F7F49090F06001E3F21717F5ECC
S11302A00000417F7F19396F460026674D597B3224
S11302B0000003417F7F410300007F7F40407F7F38
S11302C000001F3F60603F1F00007F7F3018307FB9
S11302D07F0063771C081C776300074F78784F070B
S11302E000006773594D47637100007F7F414100EF
S11302F000000103060C183060000041417F7F00BC
S11303000000080C0603060C0800808080808080B2
S113031080800000030704000000207454543C78DB
S11303204000413F7F44447C3800387C44446C287E
S11303300000307848493F7F4000387C54545C18B2
S11303400000487E7F490302000098BCA4A4F87C06
S11303500400417F7F08047C780000447D7D4000D8
S1130360000040C484FD7D000000417F7F10386C94
S1130370440000417F7F400000007C7C0C180C7C12
S113038078007C7C04047C780000387C44447C380D
S1130390000084FCF8A4243C1800183C24A4F8FCB5
S11303A08400447C78441C180000485C5454742431
S11303B0000000043E7F442400003C7C40403C7C20
S11303C040001C3C60603C1C00003C7C6030607C55
S11303D03C00446C3810386C44009CBCA0A0FC7CED
S11303E000004C64745C4C64000008083E77414192
S11303F0000000000077770000004141773E0808C4
S1130400000002030103020301006686B07070B0AD
S11304108666007E424242427E00007E7E7E7E7E72
S11304207E00FF80808080808080010101010101C5
S113043001FF11241FBECFEFD4E0DEBFCDBF12E019
S1130440A0E0B1E0E6E5F0E302C005900D92AA3B1E
S1130450B107D9F723E0AAEBB2E001C01D92A73897
S1130460B207E1F70E94470B0C942918C9CD909369
S1130470BC028093BB026093BD02662341F08EEB05
S113048092E0FC0111922E2F281B2617D8F3089511
S11304901F920F920FB60F9211248F9381E08093D5
S11304A0BA028F910F900FBE0F901F901895F89479
S11304B086B78E7F86BF8BB780628BBF7894089592
S11304C0D3D068E084E190E0D2DF4FEF50E064E6FF
S11304D080E6B1D04FEF50E064E680E7ACD041E075
S11304E050E061E08BE2A7D041E050E062E08BE2B3
S11304F0A2D040E050E060EE8FE09DD0D8CF0895C8
S1130500CF93DF93C4E0D0E002C0CC0FDD1F8A9507
S1130510E2F78CE272D08C239D23892BD1F381E006
S1130520DF91CF910895FF920F931F93CF93DF93A1
S1130530EC01062FF62EFF0CFF0CFF0CFF0C28819C
S11305403981B90175956795759567957595679521
S113055081E38F0D43D028813981B901660F771F5C
S113056062957295707F7627607F762782E38F0D80
S113057035D06A816F7070E085E38F0D2FD08A814A
S1130580882379F010E086E3F80EFE01E10FF11DF7
S1130590638170E08F2D810F21D01F5F8A8118172E
S11305A0A0F3802F38D0802FABDFDF91CF911F9144
S11305B00F91FF9008952091BD02222359F0382F06
S11305C0AEEBB2E0E82FF92F81918D938E2F831B30
S11305D08217D0F38BEB92E0A6CF0895CF93DF93ED
S11305E0D82FC62F4ED082E042D08D2F40D08C2FF2
S11305F03ED049D0DF91CF910895CF93C82F41D0F9
S113060083E035D08C2F33D036D0C82F3CD08C2FFC
S113061090E0CF910895CF93C82F33D021E030E0FC
S1130620C90102C0880F991FCA95E2F780681FD0DC
S11306302AD0CF9108951F93CF93DF93182FD62FED
S1130640C42F1FD085E013D0812F11D08D2F0FD050
S11306508C2F0DD018D0DF91CF911F91089511D018
S113066080EC05D010C0089510D0F9CF08958FB94B
S1130670779BFECF089580E0FADF779BFECF8FB1A2
S11306800895C4980895C49A0895BE9887B3806B5A
S113069087BB8DB180658DB9F6CF08955D9BFECF84
S11306A08CB908955F9BFECF8CB190E0089510BC87
S11306B08FE189B988E18AB962E573E08EE493E059
S11306C00C94C71308958230910571F01CF40197BE
S11306D039F01CC08330910559F0049769F016C0B5
S11306E084E1809300140BC085E18093001407C05B
S11306F086E18093001403C087E18093001482E5AF
S11307008A95F1F78091001490E0089580E090E0DC
S11307100895BA9ABB9A85B7816085BF85B7826010
S113072085BF85B7846085BF85B7886085BF8BB773
S113073080648BBF8BB780688BBF1092EC021092E1
S1130740ED0208958091ED02813019F41092ED02CA
S1130750089580E008958091EC02813019F410929C
S1130760EC02089580E008951F920F920FB60F9245
S113077011248F9381E08093EC028F910F900FBE30
S11307800F901F9018951F920F920FB60F9211247D
S11307908F9381E08093ED028F910F900FBE0F90A5
S11307A01F90189587E00E94D80C86E591E00E947E
S11307B0E60C0E94820E1092D00287E691E09F938D
S11307C08F930E9411140F900F9003C0BBDF80938E
S11307D0D002C1DF9091D002892BC1F30C948B0E0F
S11307E008950F931F93CF93DF930E948B0E80E0A5
S11307F00E94D80C8AE691E00E94E60C0E94820EC8
S113080088EE93E00E94921020E04CE668E084E4D5
S11308100E945C0D28E04CE660E084E40E945C0DDC
S11308200E94820E88EE93E00E94921082E00E9461
S1130830D80C84E40E94DF0C88E791E00E94E60C67
S11308400E94820E84EF91E00E949210D0E110E1A8
S113085012C000E021E048E160E08C2F0E94490FC3
S1130860CF5FC034B1F78EE190E00E9492100E94F5
S1130870820ED15011F0C12FECCF94DFDF91CF91D4
S11308801F910F910895CF93DF93D82FC62F8C32E9
S113089038F02BE2462F60E08C2F0E945C0D17C0CD
S11308A0843138F42FE3462F64E18C2F0E945C0DD1
S11308B00EC026EF280F462F60E08C2F0E945C0D9F
S11308C06AE06D0F2FE34C2F8C2F0E945C0DDF919B
S11308D0CF910895CF92DF92EF92FF9220910C0175
S11308E030910D0140910E0150910F016091CA02A7
S11308F07091CB028091CC029091CD020E94B310F2
S11309006093CA027093CB028093CC029093CD0281
S113091019DFF82E20DF8F29B1F020E030E040E825
S11309205FE36091CA027091CB028091CC029091F6
S1130930CD020E94B2106093CA027093CB028093DE
S1130940CC029093CD02C090CA02D090CB02E0902A
S1130950CC02F090CD0220E030E040E85FE3C70134
S1130960B6010E94661218166CF480E090E0A0E8CC
S1130970BFE38093CA029093CB02A093CC02B093BE
S1130980CD0216C020E030E040E85FEBC701B601BD
S11309900E941711882364F480E090E0A0E8BFEB84
S11309A08093CA029093CB02A093CC02B093CD0261
S11309B02091CA023091CB024091CC025091CD02D9
S11309C06091C6027091C7028091C8029091C902D9
S11309D00E94B3106B017C016093C6027093C7023E
S11309E08093C8029093C90220E030E04CE752E4BF
S11309F00E946612882324F081E08093CE020CC00A
S1130A0020E030E0A901C701B6010E9417111816B1
S1130A101CF081E08093CE02C701B6010E948311CD
S1130A206093CF02FF90EF90DF90CF900895809174
S1130A30CF02E82FF0E0F595E795F595E795F59564
S1130A40E795F695FE2FEE27F795E7953A962091D0
S1130A50100130911101E20FF31F208130E0877003
S1130A60A90102C0559547958A95E2F7CA0181709C
S1130A700895CF93DF9380E090E0E0911001F0912E
S1130A801101E80FF91F108280589F4F811524E04F
S1130A90920799F760E070E0B8E019C02091100166
S1130AA030911101F901E80FF91FAC014F5F5F4F5D
S1130AB0E901C40FD51F28812083A15080589F4F7E
S1130AC0A111ECCF6F5F7F4F6F37710519F0CB0128
S1130AD0AB2FE4CF8FE790E0E0911001F09111018A
S1130AE0E80FF91F108280589F4F8F3724E0920738
S1130AF099F780910A0190910B018917A8F00E943F
S1130B00B21366E370E00E94CD126FE78B5FBBDE29
S1130B1010920A018091D1029091D2020196909391
S1130B20D2028093D10203C08F5F80930A01DF91C8
S1130B30CF9108958F929F92AF92BF92CF92DF92FE
S1130B40EF92FF920F931F93CF93DF930E94820E35
S1130B508EE791E09F938F930E9411140F900F9052
S1130B600F2EF7E6CF2EF1E0DF2EF02D0F2EF5E05D
S1130B708F2EF02D0AE010E00F2EF1E8EF2EF1E0B9
S1130B80FF2EF02D4DC00E947710882341F0A2DE85
S1130B906091CF028AE074D76CDF0E94820ED2DDAE
S1130BA0882309F43DC080E003D780E008D783E5BB
S1130BB0C4D6C091D102D091D202DF92CF920E94CA
S1130BC011140F900F90982C892DF2D680E0F7D64F
S1130BD0209779F0CE01B8010E94CD125C0180E328
S1130BE08A0DABD6CE018A199B09B8010E94CD1299
S1130BF0EB019A9481E09812E7CF87E0D9D680E0A0
S1130C00DED680E59AD60E94820E9CDDC82FA3DD35
S1130C108C2BD9F3FF92EF920E9411140F900F9036
S1130C2006DF811105C08091CE02882309F4ABCF81
S1130C3084E891E09F938F930E94111488EE93E0CF
S1130C400E9492100E948B0E80E0B2D688E1B7D643
S1130C5087E891E0BBD681E0ABD680E2B0D682E9EA
S1130C6091E0B4D68091D1029091D202C3D60E9471
S1130C70820E0F900F90DF91CF911F910F91FF90F3
S1130C80EF90DF90CF90BF90AF909F908F9008959A
S1130C90CF92DF92EF92FF92CF93DF9382B790E0EF
S1130CA00E94B5131092D0029CDD8091D002813055
S1130CB079F10F2EC12CD12CF0E8EF2EFFE3FF2E9B
S1130CC0F02DD1E0C4E61092CE02C092C602D092BA
S1130CD0C702E092C802F092C902D093CF021092E8
S1130CE0CA021092CB021092CC021092CD02C09391
S1130CF00B011092D2021092D1021CDF86E058D66A
S1130D008AE991E063D64EDD8091D0028130D9F634
S1130D1080E090E0DF91CF91FF90EF90DF90CF9053
S1130D2008950F931F93CF93DF93C4E6D0E000910F
S1130D30DD021091DE0281E090E0C5DC01581F4F16
S1130D40081B190B1093DE020093DD020091DB02F5
S1130D501091DC0282E090E0B6DC01581F4F081BC2
S1130D60190B1093DC020093DB0221972097F9F60C
S1130D708091DD029091DE0224E630E0B9010E9408
S1130D80CD127093DE026093DD028091DB029091BC
S1130D90DC02B9010E94CD127093DC026093DB0285
S1130DA0DF91CF911F910F9108952F923F924F920F
S1130DB05F926F927F928F929F92AF92BF92CF92E7
S1130DC0DF92EF92FF920F931F93CF93DF9300D0A4
S1130DD000D000D0CDB7DEB73C017A8369835C8351
S1130DE04B833E832D8318018501B901882777FD44
S1130DF08095982F0E94B6114B015C01B3016E0DD2
S1130E007F1D29813A81621B730B882777FD8095AA
S1130E10982F0E94B6112B013C01B1018D819E8156
S1130E20681B790B882777FD8095982F0E94B6114F
S1130E309B01AC01C301B2010E946A122B013C0167
S1130E406B817C81E981FA816E1B7F0B882777FD9A
S1130E508095982F0E94B6119B01AC01C301B20189
S1130E600E941B119B01AC01C501B4010E94B31087
S1130E700E948311C101801B910B6817790774F5D7
S1130E808D819E81800F911F861797074CF5F8017D
S1130E9011230CF43196F595E795D80112C08A0F09
S1130EA09B1FAC014E0F5F1F6417750714F0690197
S1130EB00BC0C6018E1B9F0B8617970714F0C01A30
S1130EC0D10AC601801B910B9601200F311F6217B6
S1130ED073072CF78617970714F704C0610102C043
S1130EE0CD80DE80C60126960FB6F894DEBF0FBE15
S1130EF0CDBFDF91CF911F910F91FF90EF90DF90C5
S1130F00CF90BF90AF909F908F907F906F905F90A5
S1130F104F903F902F900895AF92BF92CF92DF925F
S1130F20EF92FF920F931F93823509F46EC020F461
S1130F308C3409F44AC089C0883519F0893519F10F
S1130F4084C0C090D902D090DA02E090DD02F09023
S1130F50DE0281E090E0B7DB0F2EFAE0AF2EB12C79
S1130F60F02D04E610E02CE93FEF4FEF50E060E095
S1130F7070E01BDF9093DA028093D9028091D9024A
S1130F809091DA0264C0C090D702D090D802E09069
S1130F90DB02F090DC0282E090E095DB0F2EFAE0B9
S1130FA0AF2EB12CF02D04E610E02CE93FEF4FEF0B
S1130FB050E060E070E0F9DE9093D8028093D702AD
S1130FC08091D7029091D80242C0C090D502D090AF
S1130FD0D60283E090E077DB0F2EFAE0AF2EB12C3F
S1130FE0F02DE12CF12C04E610E020E030E04FEF8E
S1130FF050E060E070E0D9DE9093D6028093D50291
S11310008091D5029091D60222C0C090D302D09094
S1131010D40284E090E057DB0F2EFAE0AF2EB12C1F
S1131020F02DE12CF12C04E610E020E030E04FEF4D
S113103050E060E070E0B9DE9093D4028093D30274
S11310408091D3029091D40202C080E090E01F917D
S11310500F91FF90EF90DF90CF90BF90AF900895E5
S113106060DE88E559DF9093DA028093D90289E53E
S113107053DF9093D8028093D7028CE44DDF909392
S1131080D6028093D50282E547DF9093D402809301
S1131090D30208958F929F92AF92BF92CF92DF9224
S11310A0EF92FF920F931F93CF93DF930F2EFCE1E8
S11310B0CF2EF1E0DF2EF02D0F2EF2E1EF2EF1E036
S11310C0FF2EF02D06E211E021E030E0C5E0D0E093
S11310D0D601AD90BD906D01F701819091907F0193
S11310E0C901BE010E94CD12FC01EE0FFF1FEA5D93
S11310F0FE4F80819181D801ED91FD918D01958301
S113110084839782868211861086B182A082D383DB
S1131110C2832F5F3F4F26303105D1F680913801CD
S1131120909139016091E4027091E502E6E2F1E008
S1131130408151810F2EFCE3EF2EF1E0FF2EF02DC4
S1131140E701A881B9812EE331E0E9010881198121
S113115015961C930E93149717967C936E9316977B
S113116019965C934E93189711969C938E9382E0F4
S113117090E013969C938E93129740913A0150916C
S11311803B010091E6021091E70260817181A88120
S1131190B981E7012881398115963C932E931497E0
S11311A017961C930E93169719967C936E93189723
S11311B011965C934E9313969C938E931297409141
S11311C04001509141010091E8021091E9026081CF
S11311D071810F2EF4E4CF2EF1E0DF2EF02DE60125
S11311E0A881B98126E431E0E901E880F980159607
S11311F0FC92EE92149717961C930E9316971996D9
S11312007C936E93189711965C934E9313969C93CC
S11312108E93129740914201509143010091EA024A
S11312201091EB0260817181A881B981E601288166
S1131230398115963C932E93149717961C930E930D
S1131240169719967C936E93189711965C934E9308
S113125013969C938E9312974091300150913101D3
S11312600091E0021091E102608171810F2EF4E39C
S1131270CF2EF1E0DF2EF02DE601A881B98126E31F
S113128031E0E901E880F9801596FC92EE9214971A
S113129017961C930E93169719967C936E93189732
S11312A011965C934E9313969C938E931297409150
S11312B0320150913301A091E202B091E3026081C6
S11312C07181E881F981E60128813981358324839C
S11312D0B783A68371876087518340839383828316
S11312E086E693E09093EF028093EE029093F102EE
S11312F08093F002DF91CF911F910F91FF90EF90B7
S1131300DF90CF90BF90AF909F908F90089580E032
S113131051D260EA70E080E193E00E94C01380E162
S113132093E054D381E018D582E044D260EB70E0BE
S113133080E193E00E94C01380E193E047D3E2D4BC
S113134008C081E804D283E090E0BDD996958795E2
S1131350FED101DA8823A9F308950F931F93CF9345
S1131360DF93C0E08C2FF8D4CF5FC730D9F780E08B
S113137021D269E970E080E193E00E94C01380E12A
S113138093E024D382E016D260EB70E080E193E036
S11313900E94C01380E193E019D3B4D4DCD988232C
S11313A0E9F380E026D26BE870E080E193E00E94EC
S11313B0C01380E193E00AD3C0E7D0E008E710E06F
S11313C081E017D2FE016591749180E193E00E945F
S11313D0C01380E193E0FAD295D4BDD98823E9F310
S11313E02296C017D10761F7DF91CF911F910F911A
S11313F008958091F0029091F10223E08A329207DD
S113140011F485CF089523E08C35920711F4A5CF0C
S113141008958255934049F43BDC88EA91E09F9318
S11314208F930E9411140F900F90089589E574DD35
S11314308734910514F12091DF022431F4F0E09116
S1131440F002F091F1028281938101971816190636
S11314508CF480E090E00480F581E02D01962281F7
S113146033812150310982179307ACF3F093F102D1
S1131470E093F0021092DF021DC08A3B2FEF920727
S11314808CF42091DF0224316CF0E091F002F091B1
S1131490F102848195819093F1028093F00210927D
S11314A0DF0208C08B5B9F4F8B38910518F483E1F2
S11314B08093DF0250D9882399F0E091F002F091F3
S11314C0F10286819781009749F09093EF0280930F
S11314D0EE029093F1028093F0021BC08ADF19C0E0
S11314E031D98823B1F0E091F002F091F1028085C6
S11314F09185009771F0E091EE02F091EF02208562
S113150031853093EF022093EE029093F1028093A1
S1131510F00280E090E008950F931F93CF93DF9340
S113152085DF892B09F044C0C0E08C2F15D4CF5F30
S1131530C730D9F7E091EE02F091EF0282819381F6
S113154018161906ACF5C0E0D0E010E801E88C2FBD
S113155031D180E04AD1E091EE02F091EF02608156
S1131560718180E193E00E94C0132091EE023091DA
S1131570EF028091F0029091F1022817390711F4DB
S1131580802F01C0812FD9D180E193E01FD2E09157
S1131590EE02F091EF020480F581E02DF093EF026A
S11315A0E093EE02219682819381C817D9077CF2D9
S11315B09ED5882351F08091DF028F5F8093DF02F4
S11315C0A1D39ED561E087E053D4DF91CF911F91E1
S11315D00F9108956DE389E055D561E089E05FD30B
S11315E061E087E25CD36DE087E259D36DE082E18C
S11315F056D361E382E153D361E38EE150D369E1D1
S11316008EE14DD369E187E24AD36DE387E247D3A4
S11316106DE389E044D321E045E46DE38BE337D502
S113162061E087E72FD561E089E539D36DE08CE58A
S113163036D36DE08EE633D369E18BE630D369E1CE
S11316408FE52DD365E282E62AD365E288E627D3C7
S113165061E385E624D36DE388E621D361E087E77F
S11316601ED350C30895F89422D885B7806885BFE7
S113167080B7806280BFD6D04ED3ACDF0BDDF0DC08
S113168048D88CE320D50E94600278940895CF93C3
S1131690DF93CDB7DEB728970FB6F894DEBF0FBE41
S11316A0CDBFE1DF88E0EEE4F1E0DE0111960190C8
S11316B00D928A95E1F703E912E088E52DDC898330
S11316C09885292F332727FD30953F939F939F813A
S11316D0292F332727FD30953F939F939E81292FF0
S11316E0332727FD30953F939F939D81292F3327DF
S11316F027FD30953F939F939C81292F332727FD06
S113170030953F939F939B81292F332727FD309555
S11317103F939F939A81292F332727FD30953F9339
S11317209F93282F332727FD30953F938F931F9343
S11317300F930E94111460E0CE0101960E94DB0217
S1131740EBDE0FB6F894DEBF0FBECDBFB6CFE0918F
S11317504A01F0914B0180830895E0914801F09192
S11317604901808308951092710310927003E091EF
S11317704A01F0914B0181E28083E0914A01F091AA
S11317804B011082E0914A01F0914B018FE7808375
S1131790E0914A01F0914B0182E28083E0914A0199
S11317A0F0914B011082E0914A01F0914B0187E0E6
S11317B080830895CF93C82FD6DFC09371038C2FF5
S11317C0877089F0E0914A01F0914B011082E09119
S11317D04A01F0914B0180E18083C06BE0914A01A2
S11317E0F0914B01C083CF9108958F77809370035C
S11317F00895CF93C82FDEDFC83048F480E0E0912D
S11318004801F091490110828F5F8038C1F7CF9170
S11318100895CF93C0E08C2FECDFCF5FC830D9F7A9
S1131820CF91089585B7806885BF80B7806280BFF7
S1131830E0914A01F0914B018EEA8083E0914A01E4
S1131840F0914B0181EA8083E0914A01F0914B01D0
S11318508AED8083E0914A01F0914B0182E180831B
S1131860E0914A01F0914B0188EC8083E0914A01B8
S1131870F0914B0188EA8083E0914A01F0914B0199
S11318808FE38083E0914A01F0914B0185ED8083E1
S1131890E0914A01F0914B0180E88083E0914A0194
S11318A0F0914B0181E88083E0914A01F0914B0172
S11318B080E58083E0914A01F0914B0189ED8083BA
S11318C0E0914A01F0914B0181E28083E0914A0169
S11318D0F0914B0180E28083E0914A01F0914B0149
S11318E01082E0914A01F0914B018BED8083E091ED
S11318F04A01F0914B0180E38083E0914A01F09129
S11319004B018DEA8083E0914A01F0914B011082F2
S1131910E0914A01F0914B0184EA8083E0914A010D
S1131920F0914B0186EA8083E0914A01F0914B01EA
S11319308FEA80836EDF17CF08958A3061F4809137
S1131940710390E0019687709078809371031092F0
S1131950700381E00895882339F1E82FF0E0EE0F59
S1131960FF1FEE0FFF1FEE0FFF1FEE5EFF4F28E07D
S113197080917103A0917003B0E090E8899FA00D5D
S1131980B11D112480914C0190914D01A80FB91FF4
S113199084918C93809170038F5F809370032150A6
S11319A031962111E5CF02C080E0089581E00895C9
S11319B0CF93C82FFFDEC0937103CF910895CF93C7
S11319C0C82F13DFC0937003CF9108951F93CF9353
S11319D0DF93EC0180E011E0180FFE01E80FF11D28
S11319E08081ABDF882311F0812FF5CFDF91CF9178
S11319F01F910895CF93181619064CF46AE070E00D
S1131A00CCD5C82FCB01F6DF80E38C0F96DFCF91C6
S1131A10089587706F77E62FF0E090E8899FE00DD6
S1131A20F11D112480914C0190914D01E80FF91F93
S1131A308081089587706F77E62FF0E090E8899FA2
S1131A40E00DF11D112480914C0190914D01E80F9E
S1131A50F91F808148234083089587706F77E62FAC
S1131A60F0E090E8899FE00DF11D112480914C0174
S1131A7090914D01E80FF91F8081482B4083089510
S1131A80962F8823ACF06034A8F4462F477021E0E9
S1131A9030E0B90102C0660F771F4A95E2F7AB0147
S1131AA0682F892F869586958695D7DF81E00895DE
S1131AB080E0089580E008952F923F924F925F92C4
S1131AC06F927F928F929F92AF92BF92CF92DF924A
S1131AD0EF92FF920F931F93CF93DF93CDB7DEB7AF
S1131AE02C970FB6F894DEBF0FBECDBF382E262E2E
S1131AF0042F122F481708F490C0841709F479C0F2
S1131B00862E912CA42EB12C482E512C622F70E0DD
S1131B1068197909882777FD8095982F27D46B0158
S1131B207C01B50164197509882777FD8095982F84
S1131B301DD49B01AC01C701B6017DD36D837E83A7
S1131B408F839887632D70E080E090E00DD46B0163
S1131B507C01B501882777FD8095982F07D4698388
S1131B607A838B839C839B01AC01C701B6015FD34D
S1131B7088230CF03EC0662457FC6094762CC40184
S1131B80AA2797FDA095BA2F89879A87AB87BC8728
S1131B90C301B201EBD39B01AC01C701B601E2D290
S1131BA02D813E814F81588595D44B015C01698517
S1131BB07A858B859C85DAD39B01AC01C501B40180
S1131BC0D2D2A6D3B62EC701B601A2D3862F6B2DCF
S1131BD057DF2DEC3CEC4CEC5DE3C701B601C3D2FE
S1131BE06B017C0129813A814B815C8120D388235C
S1131BF07CF21215C8F1301239C0211630F036C00B
S1131C00822D212E182F022D01C0022D602F832D2D
S1131C1037DF0F5F0117D0F329C0822E912CA82E35
S1131C20B12C442E512C70E068197909882777FD6E
S1131C308095982F9BD36B017C01B50164197509BC
S1131C40882777FD8095982F91D39B01AC01C7011C
S1131C50B601F1D26D837E838F839887822D212EE6
S1131C60182F302E0A2D6ECF301651F22C960FB647
S1131C70F894DEBF0FBECDBFDF91CF911F910F91BE
S1131C80FF90EF90DF90CF90BF90AF909F908F9098
S1131C907F906F905F904F903F902F900895CF93D7
S1131CA0DF93D82FC62F262F482F60917A03809177
S1131CB07B0302DFD0937B03C0937A03DF91CF9140
S1131CC008950F931F93CF93DF93082F71DE80E85D
S1131CD0089F80011124C0E8D0E000581F4FC801BC
S1131CE08C1B9D0BE0914C01F0914D01E80FF91F05
S1131CF0808133DD2197209791F7DF91CF911F9158
S1131D000F910895CF93C0E08C2FDBDFCF5FC830F5
S1131D10D9F7CF91089520E030E0B0E8A0E011C0F9
S1131D20A901481B590BE0914C01F0914D01E40FBE
S1131D30F51F10820197009799F7211584E0380761
S1131D4029F08B2F9A2F20583F4FEACF109271031E
S1131D5010927003D7CF0895CF93C82F2BDDC830CE
S1131D60B8F420E8C29FC001112420E830E0805874
S1131D709F4FAC01421B530BE0914C01F0914D017C
S1131D80E40FF51F1082215031092115310589F71F
S1131D90CF910895EF92FF920F931F93CF93DF9308
S1131DA0222309F450C0A0914C01B0914D0190E858
S1131DB0899FA00DB11D112462E773E0FB019D9181
S1131DC091939E2F961B9217D0F3A22FB0E0C0E8F8
S1131DD0D0E07E01EA1AFB0A1E141F04D4F118C0D5
S1131DE060914C0170914D01400F511FFB01E40FB4
S1131DF0F51F4A0F5B1F640F751FEB013881308399
S1131E009F5F492F50E04E155F0554F3222349F19B
S1131E10D0E88D9FA00111244A1B5B0B62E773E09D
S1131E20FB01435F5240CA018E0F9F1FA0914C01DA
S1131E30B0914D01A80FB91F81918C938E2F861BF1
S1131E40821788F30EC06894EE24E7F8F12CA0E022
S1131E50B0E090E8899F8001112440E050E090E0D8
S1131E60BFCFDF91CF911F910F91FF90EF90089515
S1131E70CF93DF93D82FC62F693018F0C8506C2F3A
S1131E80F7DF2C2F4FE760E08D2F84DFDF91CF91B8
S1131E9008952F923F924F925F926F927F928F920A
S1131EA09F92AF92BF92CF92DF92EF92FF920F93E5
S1131EB01F93CF93DF9300D000D01F92CDB7DEB72E
S1131EC0C82EF62E242E2983402E0F2EF7E0AF2E97
S1131ED0F02D512C612C712C812C10E01A82B0E071
S1131EE0A0E0252D362D472D582D612F7A818B2F7B
S1131EF09A2F08E081D3522E632E742E852E162F2E
S1131F00B72ED82EE92E6C2D8A2D83DD582ABA825D
S1131F10BD2DAE2DAA948FEFA812E3CF312CEFE3A1
S1131F20F0E0E219F3092FEF3FEF4FEF5FEF6FEFB0
S1131F307FEF9FEF0E2F60D3EF0DF11D0E2F77D3A0
S1131F400F2D5AD3E22F932EA42EB52E6B83D72EAA
S1131F50E82EF92F4420D9F08981281A310887FD09
S1131F603394252D362D472D582D612F7A818B2FB3
S1131F709A2F022D5CD381E090E0098002C0880F83
S1131F80991F0A94E2F744244A94480E4222252DCC
S1131F902E23362D3921472D4A21582D5B216B8163
S1131FA061237A817D218B2F8E219F2F9A23098192
S1131FB023D30F2D3CD324291FD3122F1E23232ECA
S1131FC02920342E3A20452E4B205B805622672E42
S1131FD06D20782E7E208F2E8922E095ED839094BB
S1131FE0A094B094EB81E095E983D094E094FF2E23
S1131FF0F0941A824D816C2D8A811CDD2D81392D3E
S11320004A2D5B2D69817D2D8E2D9F2D08E00FD3E8
S11320102D83932EA42EB52E6983D72EE82EF92E68
S1132020412F6C2D8A8119DD212F322D432D542D02
S1132030652D762D872D982DFAD2122F232E342E2E
S1132040452E562E672E782E892EFA81FF5FFA834D
S1132050F83081F60F900F900F900F900F90DF9152
S1132060CF911F910F91FF90EF90DF90CF90BF9091
S1132070AF909F908F907F906F905F904F903F9024
S11320802F90089580937B0360937A0308950F93B0
S11320901F93CF93DF93C82FD62F142F022F809333
S11320A07B0360937A03622FFADD602F812FF7DDC3
S11320B06D2F812FF4DD6D2F8C2FF1DDDF91CF910A
S11320C01F910F910895282F89B7816089BF83B725
S11320D08D6083BF30E040E050E060EC72E180E06E
S11320E090E06ED221BF81E080937C0308958091BB
S11320F07C03813019F410927C03089580E00895E4
S113210010927C0308951F920F920FB60F92112420
S11321108F9381E080937C038F910F900FBE0F907B
S11321201F901895CF93DF93BC01882777FD809586
S1132130982F1CD120E030E04AE754E47CD020E022
S113214030E040E752E4C6D1DED0EB011C161D0698
S113215034F4CDDF811121971C161D06D4F3DF91D1
S1132160CF9108955058BB27AA270ED075C166D1C8
S113217030F06BD120F031F49F3F11F41EF45BC1B9
S11321800EF4E095E7FB51C1E92F77D180F3BA173C
S1132190620773078407950718F071F49EF58FC1E1
S11321A00EF4E0950B2EBA2FA02D0B01B90190016E
S11321B00C01CA01A0011124FF27591B99F0593FB2
S11321C050F4503E68F11A16F040A22F232F342FFA
S11321D04427585FF3CF469537952795A795F04048
S11321E05395C9F77EF41F16BA0B620B730B840B5D
S11321F0BAF09150A1F0FF0FBB1F661F771F881F15
S1132200C2F70EC0BA0F621F731F841F48F487956C
S113221077956795B795F7959E3F08F0B3CF93955B
S1132220880F08F09927EE0F979587950895D9D0D0
S113223008F481E008950CD00FC107D140F0FED01E
S113224030F021F45F3F19F0F0C0511139C1F3C0EF
S113225014D198F39923C9F35523B1F3951B550B66
S1132260BB27AA2762177307840738F09F5F5F4F65
S1132270220F331F441FAA1FA9F333D00E2E3AF0A6
S1132280E0E830D091505040E695001CCAF729D0C0
S1132290FE2F27D0660F771F881FBB1F261737070F
S11322A04807AB07B0E809F0BB0B802DBF01FF273F
S11322B093585F4F2AF09E3F510568F0B6C000C1A5
S11322C05F3FECF3983EDCF3869577956795B79579
S11322D0F7959F5FC9F7880F911D9695879597F994
S11322E00895E1E0660F771F881FBB1F621773070D
S11322F08407BA0720F0621B730B840BBA0BEE1F22
S113230088F7E095089504D06894B111D9C0089570
S1132310BCD088F09F5790F0B92F9927B751A0F0FF
S1132320D1F0660F771F881F991F1AF0BA95C9F765
S113233012C0B13081F0C3D0B1E00895C0C0672F9E
S1132340782F8827B85F39F0B93FCCF38695779515
S11323506795B395D9F73EF49095809570956195FE
S11323607F4F8F4F9F4F0895E89409C097FB3EF429
S113237090958095709561957F4F8F4F9F4F9923CE
S1132380A9F0F92F96E9BB279395F695879577954C
S11323906795B795F111F8CFFAF4BB0F11F460FF0C
S11323A01BC06F5F7F4F8F4F9F4F16C0882311F064
S11323B096E911C0772321F09EE8872F762F05C078
S11323C0662371F096E8862F70E060E02AF09A9513
S11323D0660F771F881FDAF7880F9695879597F908
S11323E00895990F0008550FAA0BE0E8FEEF1616A2
S11323F01706E807F907C0F012161306E407F507F5
S113240098F0621B730B840B950B39F40A2661F068
S1132410232B242B252B21F408950A2609F4A1400B
S1132420A6958FEF811D811D089597F99F6780E818
S113243070E060E008959FEF80EC089500240A9412
S11324401616170618060906089500240A9412168B
S11324501306140605060895092E0394000C11F4BE
S1132460882352F0BB0F40F4BF2B11F460FF04C06B
S11324706F5F7F4F8F4F9F4F089557FD9058440FC4
S1132480551F59F05F3F71F04795880F97FB991FCF
S113249061F09F3F79F0879508951216130614068C
S11324A0551FF2CF4695F1DF08C016161706180619
S11324B0991FF1CF86957105610508940895E894F4
S11324C0BB2766277727CB0197F908958ADF08F49D
S11324D08FEF08950BD0C0CFB1DF28F0B6DF18F02E
S11324E0952309F0A2CFA7CF1124EACFC6DFA0F32A
S11324F0959FD1F3950F50E0551F629FF001729F95
S1132500BB27F00DB11D639FAA27F00DB11DAA1FB3
S1132510649F6627B00DA11D661F829F2227B00D00
S1132520A11D621F739FB00DA11D621F839FA00D8B
S1132530611D221F749F3327A00D611D231F849FDB
S1132540600D211D822F762F6A2F11249F57504032
S11325508AF0E1F088234AF0EE0FFF1FBB1F661FCD
S1132560771F881F91505040A9F79E3F510570F086
S11325705CCFA6CF5F3FECF3983EDCF3869577956E
S11325806795B795F795E7959F5FC1F7FE2B880F81
S1132590911D9695879597F9089597FB072E16F444
S11325A0009406D077FD08D05ED007FC05D03EF439
S11325B0909581959F4F0895709561957F4F0895EB
S11325C0052E97FB16F400940FD057FD05D05FD06D
S11325D007FC02D046F408C05095409530952195EB
S11325E03F4F4F4F5F4F089590958095709561953B
S11325F07F4F8F4F9F4F08950F93083090F0982F7F
S1132600872F762F652F542F432F322F22270850E0
S1132610F4CF220F331F441F551F661F771F881FD7
S1132620991F0A95B2F70F91089597FB10F8169425
S113263000080F93083098F00850232F342F452FAB
S1132640562F672F782F892F902DF4CF05949795C7
S113265087957795679557954795379527950A9563
S1132660AAF70F910895AA1BBB1B51E107C0AA1F2B
S1132670BB1FA617B70710F0A61BB70B881F991F1F
S11326805A95A9F780959095BC01CD010895A1E2D2
S11326901A2EAA1BBB1BFD010DC0AA1FBB1FEE1FD8
S11326A0FF1FA217B307E407F50720F0A21BB30B23
S11326B0E40BF50B661F771F881F991F1A9469F79F
S11326C060957095809590959B01AC01BD01CF01FB
S11326D008958F929F92AF92BF92CF92DF92EF9222
S11326E0FF92CF93DF93EC01688179818A819B818A
S11326F0611571058105910521F464E279ED8BE59D
S113270097E02DE133EF41E050E05ADF49015A01EF
S11327109B01AC01A7EAB1E446D46B017C01ACEEA9
S1132720B4EFA50194014BD4C60ED71EE81EF91EC2
S1132730F7FE06C081E0C81AD108E10880E8F80A6B
S1132740C882D982EA82FB82C6019F77DF91CF914A
S1132750FF90EF90DF90CF90BF90AF909F908F90BD
S11327600895B7CF80E091E0B4CFA0E0B0E08093CB
S1132770000190930101A0930201B0930301089515
S1132780FB01DC0105900D920020E1F708950F9301
S11327901F93CF93DF93EC018B01009731F4611504
S11327A0710519F480E090E037C06EE070E081E0DC
S11327B090E00BD2FC010097A9F380E88383011514
S11327C0110571F01387028781E8838380917D036B
S11327D090917E03892B21F4F0937E03E0937D0393
S11327E02097C9F0D187C0878381826083838091D9
S11327F07F0390918003892B71F4F0938003E0931D
S11328007F038091810390918203892B21F4F093BB
S11328108203E0938103CF01DF91CF911F910F9148
S11328200895A0E0B0E0E6E1F4E1DDC3FE013596F1
S113283061917191AF0180917F039091800302D0E7
S1132840E2E0EDC3ACE0B0E0E7E2F4E1BCC37C015C
S11328506B018A01FC0117821682838181FFB0C15A
S1132860CE0101964C01F7019381F60193FD859108
S113287093FF81916F01882309F49EC1853239F455
S113288093FD859193FF81916F01853221F4B70106
S113289090E0F9D2E8CF512C312C20E02032A0F482
S11328A08B3269F030F4803259F0833269F420615C
S11328B02CC08D3239F0803339F4216026C0226077
S11328C0246023C0286021C027FD27C030ED380FC5
S11328D03A3078F426FF06C0FAE05F9E300D1124EA
S11328E0532E13C08AE0389E300D1124332E2062FB
S11328F00CC08E3221F426FD5FC1206406C08C36E4
S113290011F4206802C0883641F4F60193FD8591E4
S113291093FF81916F018111C1CF982F9F7D9554B1
S1132920933028F40C5F1F4FFFE3F9830DC0833607
S113293031F0833771F0833509F057C021C0F801B5
S1132940808189830E5F1F4F44244394512C54018A
S113295014C03801F2E06F0E711CF801A080B18040
S113296026FF03C0652D70E002C06FEF7FEFC50145
S11329702C877ED22C0183012C852F77222E16C022
S11329803801F2E06F0E711CF801A080B18026FFBF
S113299003C0652D70E002C06FEF7FEFC5012C8787
S11329A055D22C012C852068222E830123FC19C0CA
S11329B0832D90E048165906A0F4B70180E290E018
S11329C062D23A94F5CFF50127FC859127FE8191D7
S11329D05F01B70190E057D231103A94F1E04F1AF9
S11329E051084114510479F7DEC0843611F0893658
S11329F031F5F80127FF07C06081718182819381DD
S1132A000C5F1F4F08C060817181882777FD809516
S1132A10982F0E5F1F4F2F76B22E97FF09C0909507
S1132A208095709561957F4F8F4F9F4F2068B22E90
S1132A302AE030E0A40159D2A82EA81843C0853753
S1132A4029F42F7EB22E2AE030E025C0F22FF97F40
S1132A50BF2E8F36C1F018F4883579F0ADC08037B9
S1132A6019F0883721F0A8C02F2F2061B22EB4FEB0
S1132A700DC08B2D8460B82E09C024FF0AC09F2F7F
S1132A809660B92E06C028E030E005C020E130E0B1
S1132A9002C020E132E0F801B7FE07C06081718115
S1132AA0828193810C5F1F4F06C06081718180E039
S1132AB090E00E5F1F4FA40118D2A82EA818FB2D7A
S1132AC0FF77BF2EB6FE0BC02B2D2E7FA51450F41E
S1132AD0B4FE0AC0B2FC08C02B2D2E7E05C07A2C91
S1132AE02B2D03C07A2C01C0752C24FF0DC0FE01D0
S1132AF0EA0DF11D8081803311F4297E09C022FF83
S1132B0006C07394739404C0822F867809F073947A
S1132B1023FD12C020FF06C05A2C731418F4530C62
S1132B205718732C731460F4B70180E290E02C877B
S1132B30AAD173942C85F6CF731410F4371801C0FE
S1132B40312C24FF11C0B70180E390E02C879BD186
S1132B502C8522FF16C021FF03C088E590E002C047
S1132B6088E790E0B7010CC0822F867851F021FDF0
S1132B7002C080E201C08BE227FD8DE2B70190E044
S1132B8082D1A51430F4B70180E390E07CD15A944B
S1132B90F8CFAA94F401EA0DF11D8081B70190E009
S1132BA072D1A110F6CF332009F45DCEB70180E2D3
S1132BB090E069D13A94F7CFF7018681978102C0FA
S1132BC08FEF9FEF2C96E2E11AC20F931F93CF93DE
S1132BD0DF93869F8001879F100D969F100D11240F
S1132BE0C8010DD0EC01009721F0A80160E070E06D
S1132BF038D1CE01DF91CF911F910F910895CF93DA
S1132C00DF938230910510F482E090E0E091850337
S1132C10F091860320E030E0A0E0B0E0309739F195
S1132C204081518148175907B8F04817590771F482
S1132C3082819381109729F013969C938E93129717
S1132C402CC0909386038093850327C021153105FA
S1132C5031F04217530718F0A901DB0101C0EF015D
S1132C609A01BD01DF010280F381E02DD7CF211548
S1132C703105F9F0281B390B2430310580F48A81A1
S1132C809B816115710521F0FB019383828304C04C
S1132C909093860380938503FE01329644C0FE011F
S1132CA0E20FF31F819391932250310939832883D2
S1132CB03AC02091830330918403232B41F4209163
S1132CC006013091070130938403209383032091FC
S1132CD00401309105012115310541F42DB73EB7AA
S1132CE04091080150910901241B350BE0918303A5
S1132CF0F0918403E217F307A0F42E1B3F0B28176F
S1132D00390778F0AC014E5F5F4F2417350748F060
S1132D104E0F5F1F509384034093830381939193D9
S1132D2002C0E0E0F0E0CF01DF91CF910895CF93AE
S1132D30DF93009709F487C0FC0132971382128253
S1132D40C0918503D0918603209781F4208131813D
S1132D50280F391F8091830390918403821793076E
S1132D6079F5F0938403E09383036DC0DE0120E0E2
S1132D7030E0AE17BF0750F412964D915C91139753
S1132D809D014115510509F1DA01F3CFB383A28303
S1132D9040815181840F951F8A179B0771F48D918F
S1132DA09C911197840F951F0296918380831296AC
S1132DB08D919C911397938382832115310529F476
S1132DC0F0938603E09385033EC0D9011396FC93E8
S1132DD0EE9312974D915D91A40FB51FEA17FB076F
S1132DE079F480819181840F951F0296D9011196FF
S1132DF09C938E938281938113969C938E931297C6
S1132E00E0E0F0E08A819B81009719F0FE01EC017B
S1132E10F9CFCE01029628813981820F931F209128
S1132E208303309184032817390769F4309729F410
S1132E30109286031092850302C013821282D093EB
S1132E408403C0938303DF91CF910895FC0105901F
S1132E50615070400110D8F7809590958E0F9F1F98
S1132E600895DC0101C06D9341505040E0F708958E
S1132E70FC016150704001900110D8F78095909545
S1132E808E0F9F1F08950F931F93CF93DF93182FD7
S1132E90092FEB018B8181FD03C08FEF9FEF20C0D1
S1132EA082FF10C04E815F812C813D814217530700
S1132EB07CF4E881F9819F012F5F3F4F3983288398
S1132EC0108306C0E885F985812F0995892B29F798
S1132ED02E813F812F5F3F4F3F832E83812F902F81
S1132EE0DF91CF911F910F910895FA01AA272830FD
S1132EF051F1203181F1E8946F936E7F6E5F7F4FC3
S1132F008F4F9F4FAF4FB1E03ED0B4E03CD0670F3E
S1132F10781F891F9A1FA11D680F791F8A1F911D91
S1132F20A11D6A0F711D811D911DA11D20D009F4E1
S1132F3068943F912AE0269F11243019305D319323
S1132F40DEF6CF010895462F4770405D4193B3E00C
S1132F500FD0C9F7F6CF462F4F70405D4A3318F0B3
S1132F60495D31FD4052419302D0A9F7EACFB4E064
S1132F70A6959795879577956795BA95C9F700971C
S1132F806105710508959B01AC010A2E06945795BD
S1132F90479537952795BA95C9F7620F731F841F14
S1132FA0951FA01D089546D0A59F900DB49F900D28
S1132FB0A49F800D911D11240895B7FFF4CFF3DF72
S1132FC0821B930B08952F923F924F925F926F92C0
S1132FD07F928F929F92AF92BF92CF92DF92EF92A5
S1132FE0FF920F931F93CF93DF93CDB7DEB7CA1B26
S1132FF0DB0B0FB6F894DEBF0FBECDBF09942A8851
S1133000398848885F846E847D848C849B84AA84F8
S1133010B984C884DF80EE80FD800C811B81AA8185
S1133020B981CE0FD11D0FB6F894DEBF0FBECDBF50
S1133030ED010895A29FB001B39FC001A39F700D3D
S1133040811D1124911DB29F700D811D1124911DAC
S10930500895F894FFCF7F
S11330560100000000008703200064648FC2F53C71
S1133066001800005203000020034803EA0002018E
S11330760801DC00E4006603FC02F2023E033403AA
S1133086F500F00052030603D600CD0020032A0300
S1133096C200B80048035C030012001000180102C5
S11330A60304050607084241434B20202020202024
S11330B62020504C4159004D50002020464C415090
S11330C65059204249524400504958454C004D310C
S11330D6004D52004D320047414D4520204F564584
S11330E6520053434F52453A20002020205452594F
S11330F620414741494E3F00464C415050595400E7
S11331065374617274696E67205352414D2074651D
S113311673742E2E2E00577269746520706861735D
S113312665206572726F723A206578745F72616D9C
S11331365B2534645D203D20253032582028736891
S11331466F756C642062652025303258290A005256
S1133156657472696576616C207068617365206553
S113316672726F723A206578745F72616D5B253492
S1133176645D203D2025303258202873686F756CB5
S1133186642062652025303258290A005352414D85
S1133196207465737420636F6D706C657465642048
S11331A6776974680A253464206572726F727320B5
S11331B6696E207772697465207068617365206131
S11331C66E640A253464206572726F727309696EBF
S11331D62072657472696576616C207068617365C6
S11331E60A0A0053656E64696E672043616E3A206D
S11331F609256909256909256909256909256909C9
S10D320625690925690925690A00F4
S9030000FC
