S00D00004E4F4445312E73726563C0
S113000009C200009EC30000ABC3000031C200005F
S11300101DC200001BC2000019C2000017C200006C
S113002015C2000013C2000011C200000FC200007C
S11300300DC200000BC2000009C2000007C200008C
S11300400C94C00E03C2000001C20000FFC10000F6
S1130050FDC10000FBC10000F9C10000F7C10000B0
S1130060F5C10000F3C10000F1C10000EFC10000C0
S1130070880083007E0078005249474854004C456C
S1130080465400444F574E00555000486F6C64204E
S11300904A6F79737469636B004C657420676F00F1
S11300A0557365206C65667420736C6964657200B1
S11300B02D3E525F42544E0043616C69627261741A
S11300C065006669742073637265656E00436F6EC4
S11300D07472617374004D75736963004F70746951
S11300E06F6E73004465627567004869676873637F
S11300F06F726500000000000000000000065F5FF2
S1130100060000000007070007070000147F7F14A3
S11301107F7F1400242E6B6B3A1200004666301861
S11301200C666200307A4F5D377A4800040703009A
S113013000000000001C3E63410000000041633EDB
S11301401C000000082A3E1C1C3E2A0808083E3EEB
S11301500808000000A0E06000000000080808088B
S11301600808000000006060000000006030180C07
S1130170060301003E7F594D7F3E000042427F7FCF
S113018040400000627359496F6600002263494988
S11301907F360000181C16137F7F10002767454523
S11301A07D3900003C7E4B497930000003637119AE
S11301B00F070000367F49497F360000064F496922
S11301C03F1E000000006C6C0000000000A0EC6CFE
S11301D000000000081C36634100000014141414CD
S11301E014140000004163361C0800000203515936
S11301F00F0600003E7F415D5D1F1E007C7E1313D1
S11302007E7C0000417F7F49497F36001C3E63416C
S113021041632200417F7F41637F1C00417F7F490E
S11302205D416300417F7F491D0103001C3E634122
S1130230517372007F7F08087F7F000000417F7F39
S113024041000000307040417F3F0100417F7F0842
S11302501C776300417F7F41406070007F7F060C04
S1130260067F7F007F7F060C187F7F001C3E634162
S1130270633E1C00417F7F49090F06001E3F217128
S11302807F5E0000417F7F19396F460026674D5914
S11302907B32000003417F7F410300007F7F4040A9
S11302A07F7F00001F3F60603F1F00007F7F30188A
S11302B0307F7F0063771C081C776300074F7878D2
S11302C04F0700006773594D47637100007F7F41FA
S11302D0410000000103060C183060000041417F1A
S11302E07F000000080C0603060C08008080808054
S11302F080808080000003070400000020745454B0
S11303003C784000413F7F44447C3800387C44447E
S11303106C280000307848493F7F4000387C5454B2
S11303205C180000487E7F490302000098BCA4A426
S1130330F87C0400417F7F08047C780000447D7DC4
S11303404000000040C484FD7D000000417F7F1018
S1130350386C440000417F7F400000007C7C0C1816
S11303600C7C78007C7C04047C780000387C444459
S11303707C38000084FCF8A4243C1800183C24A415
S1130380F8FC8400447C78441C180000485C5454F5
S11303907424000000043E7F442400003C7C404060
S11303A03C7C40001C3C60603C1C00003C7C603099
S11303B0607C3C00446C3810386C44009CBCA0A0A9
S11303C0FC7C00004C64745C4C64000008083E77BC
S11303D04141000000000077770000004141773E72
S11303E00808000002030103020301006686B070DE
S11303F070B08666007E424242427E00007E7E7E6F
S11304007E7E7E00FF8080808080808001010101EB
S1130410010101FF11241FBECFEFD4E0DEBFCDBF29
S113042011E0A0E0B1E0EAEDFCE202C005900D921B
S1130430A434B107D9F721E0A4E4B1E001C01D92CE
S1130440A03EB207E1F7FBD70C946B16D9CD90937D
S113045046018093450160934701662341F088E497
S113046091E0FC0111922E2F281B2617D8F3089532
S11304701F920F920FB60F9211248F9381E08093F5
S113048044018F910F900FBE0F901F901895F89410
S113049086B78E7F86BF8BB780628BBF78940895B2
S11304A0D0D068E088E290E0D2DF4FEF50E064E61D
S11304B080E6AED04FEF50E064E680E7A9D041E09B
S11304C050E061E08BE2A4D040E050E060EE8FE0C9
S11304D09FD0DDCF0895CF93DF93C4E0D0E002C076
S11304E0CC0FDD1F8A95E2F78CE274D08C239D2318
S11304F0892BD1F381E0DF91CF910895FF920F937F
S11305001F93CF93DF93EC01062FF62EFF0CFF0C05
S1130510FF0CFF0C28813981B90175956795759594
S113052067957595679581E38F0D45D0288139814D
S1130530B901660F771F62957295707F7627607F89
S1130540762782E38F0D37D06A816F7070E085E380
S11305508F0D31D08A81882389F010E086E3F80E6C
S1130560FE01E10FF11D6381772767FD70958F2DE3
S1130570810F21D01F5F8A81181790F3802F38D004
S1130580802FA9DFDF91CF911F910F91FF900895E4
S113059020914701222359F0382FA8E4B1E0E82F35
S11305A0F92F81918D938E2F831B8217D0F385E4CD
S11305B091E0A4CF0895CF93DF93D82FC62F4ED0C8
S11305C082E042D08D2F40D08C2F3ED049D0DF9195
S11305D0CF910895CF93C82F41D083E035D08C2F8D
S11305E033D036D0C82F3CD08C2F90E0CF910895D3
S11305F0CF93C82F33D021E030E0C90102C0880F67
S1130600991FCA95E2F780681FD02AD0CF91089528
S11306101F93CF93DF93182FD62FC42F1FD085E0BD
S113062013D0812F11D08D2F0FD08C2F0DD018D037
S1130630DF91CF911F91089511D080EC05D010C0A7
S1130640089510D0F9CF08958FB9779BFECF089500
S113065080E0FADF779BFECF8FB10895C4980895A8
S1130660C49A0895BE9887B3806B87BB8DB18065AB
S11306708DB9F6CF08955D9BFECF8CB908955F9B2D
S1130680FECF8CB190E0089510BC8FE189B988E168
S11306908AB96FE373E08BE393E00C94041208953A
S11306A08230910571F01CF4019739F01CC083303D
S11306B0910559F0049769F016C084E18093001401
S11306C00BC085E18093001407C086E18093001479
S11306D003C087E18093001482E58A95F1F7809145
S11306E0001490E0089580E090E00895BA9ABB9ACF
S11306F085B7816085BF85B7826085BF85B7846013
S113070085BF85B7886085BF8BB780648BBF8BB787
S113071080688BBF10926D0110926E0108958091D4
S11307206E01813019F410926E01089580E00895ED
S113073080916D01813019F410926D01089580E06B
S113074008951F920F920FB60F9211248F9381E098
S113075080936D018F910F900FBE0F901F9018958D
S11307601F920F920FB60F9211248F9381E0809302
S11307706E018F910F900FBE0F901F901895CF931D
S11307800E94A90D80E0A9D680E291E0A4D70E943E
S1130790A00DCCE30E94B40E8823E1F3C150D1F73D
S11307A020E04CE668E084E4E8D728E04CE660E02A
S11307B084E4E3D70E94A00DC4E10E94B40E882310
S11307C0E1F3C150D1F782E088D684E4A1D68EE269
S11307D091E081D70E94A00DC8E70E94B40E88233F
S11307E0E1F3C150D1F70E94A90DCF910895CF93A1
S11307F0DF93D82FC62F8C3230F02BE2462F60E0E7
S11308008C2FBBD714C0843130F42FE3462F64E11E
S11308108C2FB3D70CC026EF280F462F60E08C2F07
S1130820ACD76AE06D0F2FE34C2F8C2FA6D7DF9146
S1130830CF910895CF92DF92EF92FF9220910C0115
S113084030910D0140910E0150910F0160915401BE
S11308507091550180915601909157010E94D00EDC
S113086060935401709355018093560190935701FE
S113087056DFF82E5DDF8F29F1F084E391E09F933A
S11308808F930E944E1220E030E040E85FE36091D5
S113089054017091550180915601909157010E9425
S11308A0CF0E609354017093550180935601909339
S11308B057010F900F90C0905401D0905501E090D3
S11308C05601F090570120E030E040E85FE3C701B3
S11308D0B6010E94831018166CF480E090E0A0E842
S11308E0BFE38093540190935501A0935601B093B4
S11308F0570116C020E030E040E85FEBC701B601C5
S11309000E94340F882364F480E090E0A0E8BFEBF9
S11309108093540190935501A0935601B0935701CD
S11309202091540130915501409156015091570145
S11309306091500170915101809152019091530145
S11309400E94D00E6B017C016093500170935101A1
S1130950809352019093530120E030E04CE752E43D
S11309600E948310882324F081E0809358010CC0F6
S113097020E030E0A901C701B6010E94340F181627
S11309801CF081E080935801C701B6010E94A00FBA
S113099060935901FF90EF90DF90CF90089580917C
S11309A05901E82FF0E0F595E795F595E795F5956C
S11309B0E795F695FE2FEE27F795E7953A96209161
S11309C0100130911101E20FF31F208130E0877094
S11309D0A90102C0559547958A95E2F740FF06C0E4
S11309E083E490E00E945F1281E0089580E008951E
S11309F0CF93DF9380E090E0E0911001F09111013A
S1130A00E80FF91F108280589F4F811524E0920748
S1130A1099F760E070E0B8E019C0209110013091BE
S1130A201101F901E80FF91FAC014F5F5F4FE901B4
S1130A30C40FD51F28812083A15080589F4FA11136
S1130A40ECCF6F5F7F4F6F37710519F0CB01AB2F80
S1130A50E4CF8FE790E0E0911001F0911101E80FED
S1130A60F91F108280589F4F8F3724E0920799F71F
S1130A7080910A0190910B018917A8F00E94EF114F
S1130A8066E370E00E9441116FE78B5FB0DE109265
S1130A900A0180915B0190915C01019690935C0145
S1130AA080935B0103C08F5F80930A01DF91CF9134
S1130AB00895AF92BF92CF92DF92EF92FF920F937D
S1130AC01F93CF93DF930E94A00D0F2EF5E0AF2E5E
S1130AD0F02D0F2EFAE0CF2ED12CF02D0F2EF8E3AF
S1130AE0EF2EF1E0FF2EF02D4BC00E94B40E8823B0
S1130AF041F0A0DE609159018AE023D679DF0E949B
S1130B00A00D0DDE882309F43BC080E0E6D480E02C
S1130B10FFD483E5A5D500915B0110915C01BA2C4B
S1130B208B2DDBD480E0F4D4C801B6010E944111BE
S1130B30EC01DF93CF93FF92EF920E944E120F903D
S1130B400F900F900F900115110551F08C2F805DBF
S1130B5087D5C8018C1B9D0BB6010E9441118B01E6
S1130B60BA9481E0B812DCCF87E0B7D480E0D0D467
S1130B7080E576D5E5D7D3DDC82FDADD8C2BD9F324
S1130B800EDF811105C080915801882309F4ADCF8F
S1130B906091590125E0260F65504FE085E0EDD5C1
S1130BA0609159012BEF260F6B5F4FE085E0E5D58F
S1130BB047E0609159018AE0E5D687E08ED480E26F
S1130BC0A7D48BE391E087D580915B0190915C0180
S1130BD096D5B6D7DF91CF911F910F91FF90EF90EB
S1130BE0DF90CF90BF90AF90089582B790E00E94BD
S1130BF0F211C5DD80915A01813031F05ADF98DD60
S1130C0080915A018130D1F780E090E008950F93EC
S1130C101F93CF93DF93C4E6D0E000916701109156
S1130C20680181E090E03CDD01581F4F081B190B5F
S1130C3010936801009367010091650110916601AA
S1130C4082E090E02DDD01581F4F081B190B109313
S1130C5066010093650121972097F9F68091670159
S1130C609091680124E630E0B9010E94411170932B
S1130C706801609367018091650190916601B901F3
S1130C800E9441117093660160936501DF91CF91D9
S1130C901F910F9108952F923F924F925F926F92FE
S1130CA07F928F929F92AF92BF92CF92DF92EF92F8
S1130CB0FF920F931F93CF93DF9300D000D000D007
S1130CC0CDB7DEB73C017A8369835C834B833E8373
S1130CD02D8318018501B901882777FD8095982F08
S1130CE00E94D30F4B015C01B3016E0D7F1D29815E
S1130CF03A81621B730B882777FD8095982F0E9499
S1130D00D30F2B013C01B1018D819E81681B790BAE
S1130D10882777FD8095982F0E94D30F9B01AC0103
S1130D20C301B2010E9487102B013C016B817C81BD
S1130D30E981FA816E1B7F0B882777FD8095982FB8
S1130D400E94D30F9B01AC01C301B2010E94380F72
S1130D509B01AC01C501B4010E94D00E0E94A00FFA
S1130D60C101801B910B6817790774F58D819E81F1
S1130D70800F911F861797074CF5F80111230CF487
S1130D803196F595E795D80112C08A0F9B1FAC01E7
S1130D904E0F5F1F6417750714F069010BC0C6017D
S1130DA08E1B9F0B8617970714F0C01AD10AC60131
S1130DB0801B910B9601200F311F621773072CF7CC
S1130DC08617970714F704C0610102C0CD80DE8046
S1130DD0C60126960FB6F894DEBF0FBECDBFDF91D5
S1130DE0CF911F910F91FF90EF90DF90CF90BF9024
S1130DF0AF909F908F907F906F905F904F903F90B7
S1130E002F900895AF92BF92CF92DF92EF92FF920C
S1130E100F931F93823509F46EC020F48C3409F4C7
S1130E204AC089C0883519F0893519F184C0C09049
S1130E306301D0906401E0906701F090680181E063
S1130E4090E02EDC0F2EFAE0AF2EB12CF02D04E64C
S1130E5010E02CE93FEF4FEF50E060E070E01BDF63
S1130E609093640180936301809163019091640184
S1130E7064C0C0906101D0906201E0906501F0907F
S1130E80660182E090E00CDC0F2EFAE0AF2EB12C6C
S1130E90F02D04E610E02CE93FEF4FEF50E060E066
S1130EA070E0F9DE909362018093610180916101A9
S1130EB09091620142C0C0905F01D090600183E0D4
S1130EC090E0EEDB0F2EFAE0AF2EB12CF02DE12CEA
S1130ED0F12C04E610E020E030E04FEF50E060E059
S1130EE070E0D9DE9093600180935F0180915F018F
S1130EF09091600122C0C0905D01D0905E0184E0B9
S1130F0090E0CEDB0F2EFAE0AF2EB12CF02DE12CC9
S1130F10F12C04E610E020E030E04FEF50E060E018
S1130F2070E0B9DE90935E0180935D0180915D0174
S1130F3090915E0102C080E090E01F910F91FF90BC
S1130F40EF90DF90CF90BF90AF90089560DE88E57A
S1130F5059DF909364018093630189E553DF909393
S1130F606201809361018CE44DDF90936001809372
S1130F705F0182E547DF90935E0180935D010895F0
S1130F80CF93DF93CFEBD1E0D093A601C093A5011B
S1130F901092A8011092A7011092AA011092A9011F
S1130FA0E1EAF1E08AEE90E09183808383E090E0CF
S1130FB09093A4018093A30123E731E03093C4010B
S1130FC02093C3016BEA71E07093C6016093C5017D
S1130FD01092C8011092C70144EE50E0598348832F
S1130FE09093C2018093C101F0937801E09377015B
S1130FF0CDE8D1E0D0937A01C093790110927C01BD
S113100010927B014CED50E0D9014D935C93909389
S113101076018093750127E931E0309392012093A2
S113102091011092940110929301F0939601E09330
S1131030950186ED90E09983888382E090E0909317
S1131040900180938F01D0939C01C0939B011092D7
S11310509E0110929D01F093A001E0939F014DEC3D
S113106050E0D9014D935C9390939A018093990138
S1131070C5EBD1E0D093B001C093AF011092B2019F
S11310801092B101F093B401E093B30122EC30E08B
S1131090DB012D933C939093AE018093AD0170934B
S11310A0BA016093B9011092BC011092BB01F09394
S11310B0BE01E093BD0128EB30E03983288390938F
S11310C0B8018093B701F0937001E0936F01F0933E
S11310D07201E0937101DF91CF91089580E0FDD119
S11310E060EA70E08DE791E00E94FD118DE791E0E8
S11310F0F2D281E04BD582E0F0D160EB70E08DE775
S113110091E00E94FD118DE791E0E5D219D508C068
S113111081E8B6D183E090E0C3DA96958795B0D1A3
S113112007DB8823A9F308950F931F93CF93DF93CD
S1131130C0E08C2F2BD5CF5FC730D9F780E0CDD15D
S113114069E970E08DE791E00E94FD118DE791E07F
S1131150C2D282E0C2D160EB70E08DE791E00E94E0
S1131160FD118DE791E0B7D2EBD4E2DA8823E9F3FD
S113117080E0D2D16BE870E08DE791E00E94FD1130
S11311808DE791E0A8D2C0E7D0E008E710E081E065
S1131190C3D1FE01659174918DE791E00E94FD1128
S11311A08DE791E098D2CCD4C3DA8823E9F3229670
S11311B0C017D10761F7DF91CF911F910F91089567
S11311C0809171019091720121E08739920711F4A5
S11311D085CF0895855B914009F4A6CF089589E5EC
S11311E011DE8734910514F1209169012431F4F062
S11311F0E0917101F0917201828193810197181637
S113120019068CF480E090E00480F581E02D0196CD
S1131210228133812150310982179307ACF3F09373
S11312207201E0937101109269011DC08A3B2FEF96
S113123092078CF42091690124316CF0E0917101E2
S1131240F091720184819581909372018093710170
S11312501092690108C08B5B9F4F8B38910518F47D
S113126083E18093690164DA882399F0E091710144
S1131270F091720186819781009749F090937001F3
S113128080936F0190937201809371011BC098DF6A
S113129019C045DA8823B1F0E0917101F09172012F
S11312A080859185009771F0E0916F01F091700154
S11312B0208531853093700120936F0190937201E2
S11312C08093710180E090E008950F931F93CF9372
S11312D0DF9385DF892B09F044C0C0E08C2F56D4FE
S11312E0CF5FC730D9F7E0916F01F091700182812F
S11312F0938118161906ACF5C0E0D0E010E801E8B7
S11313008C2FEBD080E004D1E0916F01F09170015B
S1131310608171818DE791E00E94FD1120916F0140
S113132030917001809171019091720128173907F1
S113133011F4802F01C0812F93D18DE791E0CBD19F
S1131340E0916F01F09170010480F581E02DF0933C
S11313507001E0936F01219682819381C817D907A8
S11313607CF202D5882351F0809169018F5F8093CC
S11313706901E6D302D561E087E0B0D4DF91CF9173
S11313801F910F9108956DE389E0B9D461E089E07C
S1131390E7D261E087E2E4D26DE087E2E1D26DE07A
S11313A082E1DED261E382E1DBD261E38EE1D8D275
S11313B069E18EE1D5D269E187E2D2D26DE387E2B9
S11313C0CFD26DE389E0CCD221E045E46DE38BE339
S11313D09BD461E087E793D461E089E5C1D26DE0F5
S11313E08CE5BED26DE08EE6BBD269E18BE6B8D265
S11313F069E18FE5B5D265E282E6B2D265E288E6BC
S1131400AFD261E385E6ACD26DE388E6A9D261E0B0
S113141087E7A6D295C30895F89436D985B780682E
S113142085BF80B7806280BF90D093D3ACDFA8DD46
S11314308DDD5CD98CE384D433D878940895CF932C
S1131440DF93CDB7DEB728970FB6F894DEBF0FBE93
S1131450CDBFE2DFCADB88E0E8E1F1E0DE0111960E
S113146001900D928A95E1F788E5CCDC9981981773
S113147029F0898360E0CE0101968AD826DFF4CF73
S1131480E0911601F09117018083089510926C0188
S113149010926B01E0911601F091170181E28083B3
S11314A0E0911601F09117011082E0911601F0917C
S11314B017018FE78083E0911601F091170182E212
S11314C08083E0911601F09117011082E0911601DA
S11314D0F091170187E080830895CF93C82FD6DF5A
S11314E0C0936C018C2F877089F0E0911601F09104
S11314F017011082E0911601F091170180E18083B9
S1131500C06BE0911601F0911701C083CF9108954B
S11315108F7780936B010895CF93C82FDEDFC83097
S113152048F480E0E0911401F091150110828F5F7E
S11315308038C1F7CF910895CF93C0E08C2FECDFB2
S1131540CF5FC830D9F7CF91089585B7806885BF3C
S113155080B7806280BFE0911601F09117018EEA96
S11315608083E0911601F091170181EA8083E09174
S11315701601F09117018AED8083E0911601F09134
S1131580170182E18083E0911601F091170188EC44
S11315908083E0911601F091170188EA8083E0913D
S11315A01601F09117018FE38083E0911601F09109
S11315B0170185ED8083E0911601F091170180E811
S11315C08083E0911601F091170181E88083E09116
S11315D01601F091170180E58083E0911601F091E6
S11315E0170189ED8083E0911601F091170181E2E2
S11315F08083E0911601F091170180E28083E091ED
S11316001601F09117011082E0911601F091170173
S11316108BED8083E0911601F091170180E38083C4
S1131620E0911601F09117018DEA8083E091160193
S1131630F09117011082E0911601F091170184EAEC
S11316408083E0911601F091170186EA8083E0918E
S11316501601F09117018FEA80836EDF17CF08958A
S11316608A3061F480916C0190E0019687709078E3
S113167080936C0110926B0181E00895882339F105
S1131680E82FF0E0EE0FFF1FEE0FFF1FEE0FFF1F1E
S1131690EC50F04028E080916C01A0916B01B0E027
S11316A090E8899FA00DB11D1124809112019091A1
S11316B01301A80FB91F84918C9380916B018F5FE4
S11316C080936B01215031962111E5CF02C080E057
S11316D0089581E008951F93CF93DF93EC0180E098
S11316E011E0180FFE01E80FF11D8081B9DF882396
S11316F011F0812FF5CFDF91CF911F910895CF93F2
S1131700181619064CF46AE070E0BBD5C82FCB015B
S1131710F6DF80E38C0FA4DFCF91089587706F7795
S1131720E62FF0E090E8899FE00DF11D11248091EF
S1131730120190911301E80FF91F8081482B408317
S11317400895962F8823ACF06034A8F4462F477090
S113175021E030E0B90102C0660F771F4A95E2F735
S1131760AB01682F892F869586958695D7DF81E012
S1131770089580E0089580E008952F923F924F925B
S11317805F926F927F928F929F92AF92BF92CF920D
S1131790DF92EF92FF920F931F93CF93DF93CDB716
S11317A0DEB72C970FB6F894DEBF0FBECDBF382E30
S11317B0262E042F122F481708F490C0841709F41A
S11317C079C0862E912CA42EB12C482E512C622F38
S11317D070E068197909882777FD8095982FE3D3FD
S11317E06B017C01B50164197509882777FD809523
S11317F0982FD9D39B01AC01C701B60139D36D83AE
S11318007E838F839887632D70E080E090E0C9D356
S11318106B017C01B501882777FD8095982FC3D390
S113182069837A838B839C839B01AC01C701B601D6
S11318301BD388230CF03EC0662457FC6094762C9E
S1131840C401AA2797FDA095BA2F89879A87AB87E9
S1131850BC87C301B201A7D39B01AC01C701B60188
S11318609ED22D813E814F81588551D44B015C011C
S113187069857A858B859C8596D39B01AC01C501CE
S1131880B4018ED262D3B62EC701B6015ED3862FC1
S11318906B2D57DF2DEC3CEC4CEC5DE3C701B6013E
S11318A07FD26B017C0129813A814B815C81DCD23E
S11318B088237CF21215C8F1301239C0211630F099
S11318C036C0822D212E182F022D01C0022D602F2B
S11318D0832D37DF0F5F0117D0F329C0822E912C9F
S11318E0A82EB12C442E512C70E068197909882750
S11318F077FD8095982F57D36B017C01B50164194E
S11319007509882777FD8095982F4DD39B01AC01ED
S1131910C701B601ADD26D837E838F839887822DF4
S1131920212E182F302E0A2D6ECF301651F22C9600
S11319300FB6F894DEBF0FBECDBFDF91CF911F91DC
S11319400F91FF90EF90DF90CF90BF90AF909F905A
S11319508F907F906F905F904F903F902F9008955D
S1131960CF93DF93D82FC62F262F482F6091D10114
S11319708091D30102DFD093D301C093D101DF91D1
S1131980CF9108954F925F926F927F928F929F9220
S1131990AF92BF92CF92DF92EF92FF921F93CF93B9
S11319A0DF93CDB7DEB764970FB6F894DEBF0FBEF2
S11319B0CDBFF82EE62EB42EC42ED12C6627772761
S11319C06C197D09882777FD8095982FECD22B011F
S11319D03C01B601882777FD8095982FE4D26D836A
S11319E07E838F8398879B01AC01C301B2013CD2F3
S11319F018160CF470C06B2D70E080E090E0D1D22A
S1131A009B01AC0184D369877A878B879C878E2D51
S1131A1090E0A0E0B0E08D879E87AF87B88B8F2DD4
S1131A2090E0A0E0B0E0898B9A8BAB8BBC8B6D858A
S1131A307E858F859889B7D24B015C01A301920101
S1131A40C301B20164D39B01AC0169857A858B859E
S1131A509C85A5D1C3D369837A838B839C8369894D
S1131A607A898B899C899FD26B017C0129813A8177
S1131A704B815C81C501B40192D167D2162FA301B9
S1131A809201C701B6018CD160D2862F612F59DE35
S1131A9029813A814B815C81C501B40181D155D240
S1131AA0162FA3019201C701B60179D14ED2862F18
S1131AB0612F47DE2AE037ED43EA5CE3C301B2015C
S1131AC06FD12B013C012D813E814F815885CCD1B2
S1131AD018160CF0ACCF64960FB6F894DEBF0FBEA8
S1131AE0CDBFDF91CF911F91FF90EF90DF90CF900A
S1131AF0BF90AF909F908F907F906F905F904F902A
S1131B000895CF93C82FE9DC80E8C89FA001112471
S1131B1080E890E040585F4F9A01281B390BE09110
S1131B201201F0911301E20FF31F2081E0911401DF
S1131B30F091150120830197009771F7CF910895D3
S1131B40CF93C0E08C2FDDDFCF5FC830D9F7CF91C2
S1131B50089520E030E0B0E8A0E011C0A901481BDE
S1131B60590BE0911201F0911301E40FF51F10825B
S1131B700197009799F7211584E0380729F08B2FF6
S1131B809A2F20583F4FEACFDBCF0895CF93C82F29
S1131B90A4DCC83020F580E8C89FB001112420E8F7
S1131BA030E060587F4FAB01421B530BE0911201B0
S1131BB0F0911301E40FF51F108221503109211512
S1131BC0310589F721E030E0C90102C0880F991F6F
S1131BD0CA95E2F790916A01892B80936A01CF91AB
S1131BE00895EF92FF920F931F93CF93DF932223D5
S1131BF009F45FC0A0911201B091130130E8839FF2
S1131C00A00DB11D112449EC51E0FA019D9191936D
S1131C109E2F941B9217D0F3A22FB0E0C0E8D0E01F
S1131C207E01EA1AFB0A1E141F040CF448C018C0F3
S1131C306091120170911301400F511FFB01E40FD9
S1131C40F51F4A0F5B1F640F751FEB01388130834A
S1131C509F5F492F50E04E155F0554F32223D1F0C6
S1131C60D0E88D9FB00111246A1B7B0BC9ECD1E035
S1131C70FE016A547140AB014E0F5F1FA091120127
S1131C80B0911301A40FB51F91919C939E2F9C1B9F
S1131C90921788F321E030E0A90102C0440F551FD8
S1131CA08A95E2F7CA0190916A01892B80936A01AF
S1131CB00EC06894EE24E7F8F12CA0E0B0E050E800
S1131CC0859F8001112440E050E090E0B1CFDF9186
S1131CD0CF911F910F91FF90EF900895CF93DF93D1
S1131CE0D82FC62F693018F0C8506C2FF7DF2C2F6F
S1131CF04FE760E08D2F75DFDF91CF9108958093DA
S1131D00D3016093D10108950F931F93CF93DF9371
S1131D10C82FD62F142F022F8093D3016093D101A3
S1131D20622F1EDE602F812F1BDE6D2F812F18DEA8
S1131D306D2F8C2F15DEDF91CF911F910F91089598
S1131D40282F89B7816089BF83B78D6083BF30E056
S1131D5040E050E060EC72E180E090E0A5D221BF69
S1131D6081E08093D50108958091D501813019F4E3
S1131D701092D501089580E008951092D501089538
S1131D801F920F920FB60F9211248F9381E08093CC
S1131D90D5018F910F900FBE0F901F90189550583A
S1131DA0BB27AA270ED075C166D130F06BD120F0C5
S1131DB031F49F3F11F41EF45BC10EF4E095E7FB90
S1131DC051C1E92F77D180F3BA17620773078407EB
S1131DD0950718F071F49EF58FC10EF4E0950B2E63
S1131DE0BA2FA02D0B01B90190010C01CA01A00169
S1131DF01124FF27591B99F0593F50F4503E68F1C4
S1131E001A16F040A22F232F342F4427585FF3CF04
S1131E10469537952795A795F0405395C9F77EF4D5
S1131E201F16BA0B620B730B840BBAF09150A1F01E
S1131E30FF0FBB1F661F771F881FC2F70EC0BA0FA4
S1131E40621F731F841F48F4879577956795B7952C
S1131E50F7959E3F08F0B3CF9395880F08F0992724
S1131E60EE0F979587950895D9D008F481E00895E9
S1131E700CD00FC107D140F0FED030F021F45F3F09
S1131E8019F0F0C0511139C1F3C014D198F399235A
S1131E90C9F35523B1F3951B550BBB27AA2762172A
S1131EA07307840738F09F5F5F4F220F331F441F6F
S1131EB0AA1FA9F333D00E2E3AF0E0E830D09150A7
S1131EC05040E695001CCAF729D0FE2F27D0660F94
S1131ED0771F881FBB1F261737074807AB07B0E8D3
S1131EE009F0BB0B802DBF01FF2793585F4F2AF0E9
S1131EF09E3F510568F0B6C000C15F3FECF3983EC9
S1131F00DCF3869577956795B795F7959F5FC9F745
S1131F10880F911D9695879597F90895E1E0660FCE
S1131F20771F881FBB1F621773078407BA0720F047
S1131F30621B730B840BBA0BEE1F88F7E0950895B0
S1131F4004D06894B111D9C00895BCD088F09F57CB
S1131F5090F0B92F9927B751A0F0D1F0660F771FF1
S1131F60881F991F1AF0BA95C9F712C0B13081F0D1
S1131F70C3D0B1E00895C0C0672F782F8827B85F19
S1131F8039F0B93FCCF3869577956795B395D9F732
S1131F903EF490958095709561957F4F8F4F9F4F3C
S1131FA00895E89409C097FB3EF490958095709548
S1131FB061957F4F8F4F9F4F9923A9F0F92F96E991
S1131FC0BB279395F695879577956795B795F11106
S1131FD0F8CFFAF4BB0F11F460FF1BC06F5F7F4FA3
S1131FE08F4F9F4F16C0882311F096E911C07723B5
S1131FF021F09EE8872F762F05C0662371F096E8BE
S1132000862F70E060E02AF09A95660F771F881F8C
S1132010DAF7880F9695879597F90895990F000830
S1132020550FAA0BE0E8FEEF16161706E807F907A6
S1132030C0F012161306E407F50798F0621B730B41
S1132040840B950B39F40A2661F0232B242B252BC2
S113205021F408950A2609F4A140A6958FEF811D65
S1132060811D089597F99F6780E870E060E0089506
S11320709FEF80EC089500240A941616170618069C
S11320800906089500240A94121613061406050678
S11320900895092E0394000C11F4882352F0BB0F09
S11320A040F4BF2B11F460FF04C06F5F7F4F8F4F6C
S11320B09F4F089557FD9058440F551F59F05F3FA7
S11320C071F04795880F97FB991F61F09F3F79F056
S11320D087950895121613061406551FF2CF4695D8
S11320E0F1DF08C0161617061806991FF1CF86955A
S11320F07105610508940895E894BB27662777273E
S1132100CB0197F908958ADF08F48FEF08950BD077
S1132110C0CFB1DF28F0B6DF18F0952309F0A2CFC5
S1132120A7CF1124EACFC6DFA0F3959FD1F3950F73
S113213050E0551F629FF001729FBB27F00DB11D47
S1132140639FAA27F00DB11DAA1F649F6627B00DD7
S1132150A11D661F829F2227B00DA11D621F739FC0
S1132160B00DA11D621F839FA00D611D221F749FCE
S11321703327A00D611D231F849F600D211D822F15
S1132180762F6A2F11249F5750408AF0E1F088235C
S11321904AF0EE0FFF1FBB1F661F771F881F915069
S11321A05040A9F79E3F510570F05CCFA6CF5F3F2A
S11321B0ECF3983EDCF3869577956795B795F7959C
S11321C0E7959F5FC1F7FE2B880F911D9695879524
S11321D097F9089511F40EF44BCF3EC073DFD0F39A
S11321E09923D9F3CEF39F57550B87FF43D000248F
S11321F0A0E640EA900180585695979528F4805CB3
S1132200660F771F881F20F026173707480730F41A
S1132210621B730B840B202931294A2BA695179432
S11322200794202531254A2758F7660F771F881F02
S113223020F026173707480730F4620B730B840B22
S1132240200D311D411DA09581F7B901842F9158AE
S1132250880F9695879508959F3F31F0915020F40B
S1132260879577956795B795880F911D969587956E
S113227097F9089591505040660F771F881FD2F741
S1132280089597FB072E16F4009406D077FD08D026
S113229027D007FC05D03EF4909581959F4F089573
S11322A0709561957F4F0895052E97FB16F4009461
S11322B00FD057FD05D028D007FC02D046F408C043
S11322C050954095309521953F4F4F4F5F4F08955E
S11322D090958095709561957F4F8F4F9F4F08958E
S11322E0AA1BBB1B51E107C0AA1FBB1FA617B70738
S11322F010F0A61BB70B881F991F5A95A9F7809554
S11323009095BC01CD010895A1E21A2EAA1BBB1B16
S1132310FD010DC0AA1FBB1FEE1FFF1FA217B307AD
S1132320E407F50720F0A21BB30BE40BF50B661FC3
S1132330771F881F991F1A9469F760957095809587
S113234090959B01AC01BD01CF0108958F929F929E
S1132350AF92BF92CF92DF92EF92FF92CF93DF932F
S1132360EC01688179818A819B8161157105810500
S1132370910521F464E279ED8BE597E02DE133EFEB
S113238041E050E091DF49015A019B01AC01A7EA09
S1132390B1E44BD46B017C01ACEEB4EFA501940124
S11323A050D4C60ED71EE81EF91EF7FE06C081E003
S11323B0C81AD108E10880E8F80AC882D982EA82FA
S11323C0FB82C6019F77DF91CF91FF90EF90DF9062
S11323D0CF90BF90AF909F908F900895B7CF80E03B
S11323E091E0B4CFA0E0B0E08093000190930101AC
S11323F0A0930201B09303010895FB01DC01059051
S11324000D920020E1F708950F931F93CF93DF936C
S1132410EC018B01009731F46115710519F480E02A
S113242090E037C06EE070E081E090E010D2FC01F3
S11324300097A9F380E883830115110571F01387D0
S1132440028781E883838091D6019091D701892BFB
S113245021F4F093D701E093D6012097C9F0D187F6
S1132460C0878381826083838091D8019091D90150
S1132470892B71F4F093D901E093D8018091DA01AA
S11324809091DB01892B21F4F093DB01E093DA01D5
S1132490CF01DF91CF911F910F910895A0E0B0E09B
S11324A0E3E5F2E1E2C3FE01359661917191AF017A
S11324B08091D8019091D90107D0E2E0F2C36091F4
S11324C0D8017091D90121C3ACE0B0E0E9E6F2E1B2
S11324D0BCC37C016B018A01FC01178216828381D3
S11324E081FFB0C1CE0101964C01F7019381F60141
S11324F093FD859193FF81916F01882309F49EC117
S1132500853239F493FD859193FF81916F01853272
S113251021F4B70190E0F9D2E8CF512C312C20E01E
S11325202032A0F48B3269F030F4803259F08332D7
S113253069F420612CC08D3239F0803339F4216084
S113254026C02260246023C0286021C027FD27C044
S113255030ED380F3A3078F426FF06C0FAE05F9E7B
S1132560300D1124532E13C08AE0389E300D1124EF
S1132570332E20620CC08E3221F426FD5FC120640C
S113258006C08C3611F4206802C0883641F4F60186
S113259093FD859193FF81916F018111C1CF982F94
S11325A09F7D9554933028F40C5F1F4FFFE3F9830C
S11325B00DC0833631F0833771F0833509F057C08D
S11325C021C0F801808189830E5F1F4F4424439406
S11325D0512C540114C03801F2E06F0E711CF80143
S11325E0A080B18026FF03C0652D70E002C06FEFAC
S11325F07FEFC5012C877ED22C0183012C852F7798
S1132600222E16C03801F2E06F0E711CF801A08072
S1132610B18026FF03C0652D70E002C06FEF7FEF2D
S1132620C5012C8755D22C012C852068222E8301CC
S113263023FC19C0832D90E048165906A0F4B70175
S113264080E290E062D23A94F5CFF50127FC8591BF
S113265027FE81915F01B70190E057D231103A947F
S1132660F1E04F1A51084114510479F7DEC0843661
S113267011F0893631F5F80127FF07C060817181B7
S1132680828193810C5F1F4F08C06081718188270C
S113269077FD8095982F0E5F1F4F2F76B22E97FFF0
S11326A009C090958095709561957F4F8F4F9F4F8E
S11326B02068B22E2AE030E0A40159D2A82EA8182E
S11326C043C0853729F42F7EB22E2AE030E025C09E
S11326D0F22FF97FBF2E8F36C1F018F4883579F0C8
S11326E0ADC0803719F0883721F0A8C02F2F2061A2
S11326F0B22EB4FE0DC08B2D8460B82E09C024FF09
S11327000AC09F2F9660B92E06C028E030E005C0AD
S113271020E130E002C020E132E0F801B7FE07C05A
S113272060817181828193810C5F1F4F06C060813B
S1132730718180E090E00E5F1F4FA40118D2A82E93
S1132740A818FB2DFF77BF2EB6FE0BC02B2D2E7FB6
S1132750A51450F4B4FE0AC0B2FC08C02B2D2E7E82
S113276005C07A2C2B2D03C07A2C01C0752C24FFB4
S11327700DC0FE01EA0DF11D8081803311F4297E24
S113278009C022FF06C07394739404C0822F867814
S113279009F0739423FD12C020FF06C05A2C731451
S11327A018F4530C5718732C731460F4B70180E2B7
S11327B090E02C87AAD173942C85F6CF731410F46F
S11327C0371801C0312C24FF11C0B70180E390E019
S11327D02C879BD12C8522FF16C021FF03C088E5DE
S11327E090E002C088E790E0B7010CC0822F8678A1
S11327F051F021FD02C080E201C08BE227FD8DE291
S1132800B70190E082D1A51430F4B70180E390E0E1
S11328107CD15A94F8CFAA94F401EA0DF11D808179
S1132820B70190E072D1A110F6CF332009F45DCE48
S1132830B70180E290E069D13A94F7CFF70186813D
S1132840978102C08FEF9FEF2C96E2E11AC20F939B
S11328501F93CF93DF93869F8001879F100D969FD0
S1132860100D1124C8010DD0EC01009721F0A8012E
S113287060E070E038D1CE01DF91CF911F910F91CC
S11328800895CF93DF938230910510F482E090E0B5
S1132890E091DE01F091DF0120E030E0A0E0B0E063
S11328A0309739F14081518148175907B8F04817DA
S11328B0590771F482819381109729F013969C93A0
S11328C08E9312972CC09093DF018093DE0127C072
S11328D02115310531F04217530718F0A901DB0126
S11328E001C0EF019A01BD01DF010280F381E02DF7
S11328F0D7CF21153105F9F0281B390B24303105C8
S113290080F48A819B816115710521F0FB01938319
S1132910828304C09093DF018093DE01FE0132962E
S113292044C0FE01E20FF31F8193919322503109B9
S1132930398328833AC02091DC013091DD01232BB7
S113294041F420910601309107013093DD01209379
S1132950DC0120910401309105012115310541F478
S11329602DB73EB74091080150910901241B350B46
S1132970E091DC01F091DD01E217F307A0F42E1BD6
S11329803F0B2817390778F0AC014E5F5F4F2417CF
S1132990350748F04E0F5F1F5093DD014093DC0173
S11329A08193919302C0E0E0F0E0CF01DF91CF91F9
S11329B00895CF93DF93009709F487C0FC01329701
S11329C013821282C091DE01D091DF01209781F43D
S11329D020813181280F391F8091DC019091DD0124
S11329E08217930779F5F093DD01E093DC016DC064
S11329F0DE0120E030E0AE17BF0750F412964D918F
S1132A005C9113979D014115510509F1DA01F3CF4A
S1132A10B383A28340815181840F951F8A179B073A
S1132A2071F48D919C911197840F951F0296918357
S1132A30808312968D919C911397938382832115A1
S1132A40310529F4F093DF01E093DE013EC0D901A2
S1132A501396FC93EE9312974D915D91A40FB51FBD
S1132A60EA17FB0779F480819181840F951F029600
S1132A70D90111969C938E938281938113969C9392
S1132A808E931297E0E0F0E08A819B81009719F021
S1132A90FE01EC01F9CFCE01029628813981820F23
S1132AA0931F2091DC013091DD012817390769F467
S1132AB0309729F41092DF011092DE0102C01382D4
S1132AC01282D093DD01C093DC01DF91CF91089590
S1132AD0FC010590615070400110D8F780959095E5
S1132AE08E0F9F1F0895DC0101C06D93415050402B
S1132AF0E0F70895FC016150704001900110D8F78F
S1132B00809590958E0F9F1F08950F931F93CF93D9
S1132B10DF93182F092FEB018B8181FD03C08FEF09
S1132B209FEF20C082FF10C04E815F812C813D81C8
S1132B30421753077CF4E881F9819F012F5F3F4FCF
S1132B4039832883108306C0E885F985812F099588
S1132B50892B29F72E813F812F5F3F4F3F832E839F
S1132B60812F902FDF91CF911F910F910895FA013A
S1132B70AA27283051F1203181F1E8946F936E7FB8
S1132B806E5F7F4F8F4F9F4FAF4FB1E03ED0B4E0A9
S1132B903CD0670F781F891F9A1FA11D680F791FEA
S1132BA08A1F911DA11D6A0F711D811D911DA11DFB
S1132BB020D009F468943F912AE0269F112430190B
S1132BC0305D3193DEF6CF010895462F4770405DA6
S1132BD04193B3E00FD0C9F7F6CF462F4F70405D55
S1132BE04A3318F0495D31FD4052419302D0A9F7B0
S1132BF0EACFB4E0A6959795879577956795BA95AA
S1132C00C9F700976105710508959B01AC010A2E6F
S1132C1006945795479537952795BA95C9F7620F46
S1132C20731F841F951FA01D089546D0A59F900D66
S1132C30B49F900DA49F800D911D11240895B7FF9A
S1132C40F4CFF3DF821B930B08952F923F924F92A0
S1132C505F926F927F928F929F92AF92BF92CF9228
S1132C60DF92EF92FF920F931F93CF93DF93CDB731
S1132C70DEB7CA1BDB0B0FB6F894DEBF0FBECDBFA9
S1132C8009942A88398848885F846E847D848C847A
S1132C909B84AA84B984C884DF80EE80FD800C8183
S1132CA01B81AA81B981CE0FD11D0FB6F894DEBF66
S1132CB00FBECDBFED010895A29FB001B39FC00127
S1132CC0A39F700D811D1124911DB29F700D811D54
S10D2CD01124911D0895F894FFCF1C
S1132CDA010000000000E001200064648FC2F53C9A
S1132CEA0018001800120010010203040506070860
S1132CFA2020464C415050592042495244005049E0
S1132D0A58454C0076656C0025690053434F52457B
S1072D1A3A20000057
S9030000FC
