S00D00004E4F4445312E73726563C0
S1130000E5C10000EFC2000010C300000DC20000F3
S1130010F9C10000F7C10000F5C10000F3C1000000
S1130020F1C10000EFC10000EDC10000EBC1000010
S1130030E9C10000E7C10000E5C10000E3C1000020
S11300400C94080ADFC10000DDC10000DBC1000020
S1130050D9C10000D7C10000D5C10000D3C1000040
S1130060D1C10000CFC10000CDC10000CBC1000050
S113007043616C69627261746500666974207363BC
S11300807265656E00436F6E7472617374004D75B2
S1130090736963004F7074696F6E730044656275B1
S11300A067004869676873636F7265000000000049
S11300B00000000000065F5F060000000007070064
S11300C007070000147F7F147F7F1400242E6B6BBE
S11300D03A120000466630180C666200307A4F5DB2
S11300E0377A48000407030000000000001C3E6348
S11300F0410000000041633E1C000000082A3E1C31
S11301001C3E2A0808083E3E0808000000A0E060E3
S113011000000000080808080808000000006060EB
S1130120000000006030180C060301003E7F594DAA
S11301307F3E000042427F7F404000006273594985
S11301406F660000226349497F360000181C1613AD
S11301507F7F1000276745457D3900003C7E4B4971
S113016079300000036371190F070000367F494995
S11301707F360000064F49693F1E000000006C6C8A
S11301800000000000A0EC6C00000000081C3663B6
S113019041000000141414141414000000416336C8
S11301A01C080000020351590F0600003E7F415D08
S11301B05D1F1E007C7E13137E7C0000417F7F49FF
S11301C0497F36001C3E634141632200417F7F41E9
S11301D0637F1C00417F7F495D416300417F7F490C
S11301E01D0103001C3E6341517372007F7F0808A8
S11301F07F7F000000417F7F41000000307040415C
S11302007F3F0100417F7F081C776300417F7F416E
S1130210406070007F7F060C067F7F007F7F060CA6
S1130220187F7F001C3E6341633E1C00417F7F4971
S1130230090F06001E3F21717F5E0000417F7F1978
S1130240396F460026674D597B32000003417F7F9A
S1130250410300007F7F40407F7F00001F3F6060BC
S11302603F1F00007F7F3018307F7F0063771C08BA
S11302701C776300074F78784F0700006773594D68
S113028047637100007F7F41410000000103060CB9
S1130290183060000041417F7F000000080C060315
S11302A0060C080080808080808080800000030726
S11302B004000000207454543C784000413F7F44C3
S11302C0447C3800387C44446C2800003078484929
S11302D03F7F4000387C54545C180000487E7F49BE
S11302E00302000098BCA4A4F87C0400417F7F08AA
S11302F0047C780000447D7D4000000040C484FDFF
S11303007D000000417F7F10386C440000417F7FF6
S1130310400000007C7C0C180C7C78007C7C04047D
S11303207C780000387C44447C38000084FCF8A4C9
S1130330243C1800183C24A4F8FC8400447C784431
S11303401C180000485C54547424000000043E7FD0
S1130350442400003C7C40403C7C40001C3C6060E9
S11303603C1C00003C7C6030607C3C00446C3810D9
S1130370386C44009CBCA0A0FC7C00004C64745C01
S11303804C64000008083E774141000000000077FB
S1130390770000004141773E080800000203010392
S11303A0020301006686B07070B08666007E424229
S11303B042427E00007E7E7E7E7E7E00FF808080C4
S11303C08080808001010101010101FF11241FBE11
S11303D0CFEFD4E0DEBFCDBF13E0A0E0B1E0EAE0B0
S11303E0F2E202C005900D92A637B107D9F723E0D7
S11303F0A6E7B3E001C01D92A93FB207E1F7B5D467
S11304000C940311FDCD909378038093770360934C
S11304107903662341F08AE793E0FC0111922E2FC1
S1130420281B2617D8F308951F920F920FB60F9228
S113043011248F9381E0809376038F910F900FBEE8
S11304400F901F901895F89486B78E7F86BF8BB750
S113045080628BBF7894089557D068E088E290E07A
S1130460D2DF4FEF50E064E680E631D04FEF50E04A
S113047064E680E72CD041E050E061E08BE227D0D5
S113048040E050E060EE8FE022D0DDDF8EE011D05E
S11304909F938F9384E291E09F938F930E94DD0C4E
S11304A085E391E00E94EE0C0F900F900F900F9057
S11304B00895CF93C82F35D083E029D08C2F27D02F
S11304C02AD0C82F30D08C2F90E0CF9108951F935D
S11304D0CF93DF93182FD62FC42F23D085E017D0C6
S11304E0812F15D08D2F13D08C2F11D01CD0DF91DC
S11304F0CF911F9108958BEA91E00E94EE0C11D0E8
S113050080EC05D010C0089510D0F5CF08958FB9B0
S1130510779BFECF089580E0FADF779BFECF8FB103
S11305200895C4980895C49A0895BE9887B3806BBB
S113053087BB8DB180658DB9F6DF8DEB91E00C94AE
S1130540EE0C08955D9BFECF8CB908955F9BFECFA2
S11305508CB190E0089510BC8FE189B988E18AB923
S113056066EA72E082EA92E00C94930C0895823079
S1130570910571F01CF4019739F01CC0833091058A
S113058059F0049769F016C084E1809300140BC0FD
S113059085E18093001407C086E18093001403C0B2
S11305A087E18093001482E58A95F1F78091001425
S11305B090E0089580E090E00895BA9ABB9A85B7D8
S11305C0816085BF85B7826085BF85B7846085BF3C
S11305D085B7886085BF8BB780648BBF8BB7806815
S11305E08BBF08951F920F920FB60F9211242F9371
S11305F03F934F935F936F937F938F939F93AF93A7
S1130600BF93EF93FF93CED2FF91EF91BF91AF9140
S11306109F918F917F916F915F914F913F912F9116
S11306200F900FBE0F901F9018951F920F920FB648
S11306300F9211242F933F934F935F936F937F9364
S11306408F939F93AF93BF93EF93FF93A7D2FF91A1
S1130650EF91BF91AF919F918F917F916F915F9136
S11306604F913F912F910F900FBE0F901F901895AF
S11306700F931F93CF93DF93C4E6D0E000918C03D4
S113068010918D0381E090E072DF01581F4F081B29
S1130690190B10938D0300938C0300918A0310911E
S11306A08B0382E090E063DF01581F4F081B190B96
S11306B010938B0300938A0321972097F9F6809176
S11306C08C0390918D0324E630E0B9010E942E0C36
S11306D070938D0360938C0380918A0390918B03B4
S11306E0B9010E942E0C70938B0360938A03DF91EF
S11306F0CF911F910F9108952F923F924F925F9245
S11307006F927F928F929F92AF92BF92CF92DF921D
S1130710EF92FF920F931F93CF93DF9300D000D0FB
S113072000D0CDB7DEB73C017A8369835C834B8309
S11307303E832D8318018501B901882777FD8095B3
S1130740982F79D74B015C01B3016E0D7F1D298170
S11307503A81621B730B882777FD8095982F6BD79E
S11307602B013C01B1018D819E81681B790B882787
S113077077FD8095982F5FD79B01AC01C301B2012F
S11307800E94CB0B2B013C016B817C81E981FA81B6
S11307906E1B7F0B882777FD8095982F4CD79B0184
S11307A0AC01C301B201ACD69B01AC01C501B401DB
S11307B03FD60ED7C101801B910B6817790774F5DA
S11307C08D819E81800F911F861797074CF5F80144
S11307D011230CF43196F595E795D80112C08A0FD0
S11307E09B1FAC014E0F5F1F6417750714F069015E
S11307F00BC0C6018E1B9F0B8617970714F0C01AF7
S1130800D10AC601801B910B9601200F311F62177C
S113081073072CF78617970714F704C0610102C009
S1130820CD80DE80C60126960FB6F894DEBF0FBEDB
S1130830CDBFDF91CF911F910F91FF90EF90DF908B
S1130840CF90BF90AF909F908F907F906F905F906C
S11308504F903F902F900895AF92BF92CF92DF9226
S1130860EF92FF920F931F93823509F46EC020F428
S11308708C3409F44AC089C0883519F0893519F1D6
S113088084C0C0908803D0908903E0908C03F090DA
S11308908D0381E090E06BDE0F2EFAE0AF2EB12CD9
S11308A0F02D04E610E02CE93FEF4FEF50E060E05C
S11308B070E022DF909389038093880380918803FA
S11308C09091890364C0C0908603D0908703E09020
S11308D08A03F0908B0382E090E049DE0F2EFAE069
S11308E0AF2EB12CF02D04E610E02CE93FEF4FEFD2
S11308F050E060E070E000DF90938703809386030C
S1130900809186039091870342C0C0908403D09065
S1130910850383E090E02BDE0F2EFAE0AF2EB12C9E
S1130920F02DE12CF12C04E610E020E030E04FEF54
S113093050E060E070E0E0DE9093850380938403F0
S1130940809184039091850322C0C0908203D0904B
S1130950830384E090E00BDE0F2EFAE0AF2EB12C7F
S1130960F02DE12CF12C04E610E020E030E04FEF14
S113097050E060E070E0C0DE9093830380938203D4
S1130980809182039091830302C080E090E01F91E4
S11309900F91FF90EF90DF90CF90BF90AF900895AC
S11309A067DE88E559DF909389038093880389E59E
S11309B053DF90938703809386038CE44DDF9093F9
S11309C085038093840382E547DF909383038093B8
S11309D0820320918A0330918B0380918C03909140
S11309E08D033F932F939F938F938CED91E09F936F
S11309F08F93E3D7609182037091830340918403C2
S1130A005091850320918603309187038091880358
S1130A10909189037F936F935F934F933F932F93A9
S1130A209F938F9385E092E09F938F93C6D78DB762
S1130A309EB740960FB6F8949EBF0FBE8DBF089523
S1130A40CF93DF93C4EED3E0D093CB03C093CA0318
S1130A501092CD031092CC031092CF031092CE03C8
S1130A60E6ECF3E082EA90E09183808383E090E017
S1130A709093C9038093C80328E933E03093E903D2
S1130A802093E80360ED73E07093EB036093EA0353
S1130A901092ED031092EC034CE950E05983488323
S1130AA09093E7038093E603F0939D03E0939C0304
S1130AB0C2EBD3E0D0939F03C0939E031092A10393
S1130AC01092A00344E950E0D9014D935C939093B4
S1130AD09B0380939A032CEB33E03093B70320936A
S1130AE0B6031092B9031092B803F093BB03E093DA
S1130AF0BA038EE890E09983888382E090E0909333
S1130B00B5038093B403D093C103C093C003109280
S1130B10C3031092C203F093C503E093C40345E8F2
S1130B2050E0D9014D935C939093BF038093BE032F
S1130B30CAEDD3E0D093D503C093D4031092D70366
S1130B401092D603F093D903E093D8032AE730E058
S1130B50DB012D933C939093D3038093D203709342
S1130B60DF036093DE031092E1031092E003F0933D
S1130B70E303E093E20320E730E039832883909392
S1130B80DD038093DC03F0939503E0939403F093E7
S1130B909703E0939603DF91CF91089581E08093CA
S1130BA08E03089581E080938F03089521E030E05F
S1130BB049E050E06DE370E088E190E084D221E008
S1130BC030E047E250E061E070E089E090E07BD201
S1130BD02DE030E044E250E061E070E087E290E034
S1130BE072D22DE030E042E150E06DE070E084E24A
S1130BF090E069D225E230E048E150E06DE070E039
S1130C0082E190E060D229E130E04BE150E065E21E
S1130C1070E088E190E057D229E130E041E250E011
S1130C2069E170E08BE190E04ED22DE330E048E1E1
S1130C3050E069E170E081E290E045D221E045E4D2
S1130C406DE38BE3A4D321E030E047E750E06DE3AC
S1130C5070E088E690E037D221E030E047E750E0EA
S1130C6061E070E089E590E02ED22DE030E04CE5C3
S1130C7050E061E070E089E590E025D22DE030E0BD
S1130C804EE650E06DE070E08CE590E01CD229E186
S1130C9030E04BE650E06DE070E08EE690E013D279
S1130CA029E130E04FE550E069E170E08BE690E047
S1130CB00AD225E230E042E650E069E170E08FE5D7
S1130CC090E001D225E230E048E650E065E270E0D1
S1130CD082E690E0F8D121E330E045E650E065E2B9
S1130CE070E088E690E0EFD12DE330E048E650E094
S1130CF061E370E085E690E0E6D122D32FEF8FEF39
S1130D009EE0215080409040E1F700C0000008952B
S1130D10F89421DC81E193E09F938F938AE193E03F
S1130D209F938F9386E293E09F938F938BE293E05C
S1130D309F938F9342D685B7806885BF80B78062C2
S1130D4080BF8CD006D332DFFBD27ADE29DE35DCDD
S1130D508CE34AD381DB78948DB79EB708960FB69F
S1130D60F8949EBF0FBE8DBF0895D2DF81E793E054
S1130D709F938F9322D68FEC90E347D10F900F90DF
S1130D80DFD2FECF1092930310929203109291033C
S1130D9010929003E0910A01F0910B0181E28083AB
S1130DA0E0910A01F0910B011082E0910A01F091A7
S1130DB00B018FE78083E0910A01F0910B0182E23D
S1130DC08083E0910A01F0910B011082E0910A0105
S1130DD0F0910B0187E080830895CF93DF93EC01BA
S1130DE0D1DFD0939303C0939203CE0187709927E8
S1130DF0892B89F0E0910A01F0910B011082E091B6
S1130E000A01F0910B0180E18083C06BE0910A013B
S1130E10F0910B01C083DF91CF910895CF93DF93BD
S1130E20EC01DBDF289750F480E890E0E0910801C2
S1130E30F0910901108201970097C1F7DF91CF91DA
S1130E400895CF93DF93C0E0D0E0CE01E7DF219691
S1130E50C830D105D1F7DF91CF91089585B7806867
S1130E6085BF80B7806280BFE0910A01F0910B01D9
S1130E708EEA8083E0910A01F0910B0181EA80837C
S1130E80E0910A01F0910B018AED8083E0910A015F
S1130E90F0910B0182E18083E0910A01F0910B0152
S1130EA088EC8083E0910A01F0910B0188EA808349
S1130EB0E0910A01F0910B018FE38083E0910A0134
S1130EC0F0910B0185ED8083E0910A01F0910B0113
S1130ED080E88083E0910A01F0910B0181E880832E
S1130EE0E0910A01F0910B0180E58083E0910A0111
S1130EF0F0910B0189ED8083E0910A01F0910B01DF
S1130F0081E28083E0910A01F0910B0180E2808309
S1130F10E0910A01F0910B011082E0910A01F09135
S1130F200B018BED8083E0910A01F0910B0180E3CA
S1130F308083E0910A01F0910B018DEA8083E091B6
S1130F400A01F0910B011082E0910A01F0910B016A
S1130F5084EA8083E0910A01F0910B0186EA8083A0
S1130F60E0910A01F0910B018FEA80836ADF0ACFD6
S1130F7008958A3089F480919203909193030196A5
S1130F80877099279093930380939203109291030F
S1130F901092900381E00895882399F1E82FF0E0FE
S1130FA0EE0FFF1FEE0FFF1FEE0FFF1FE455F04083
S1130FB080E090E0A0919203B0919303B695BA2F8C
S1130FC0AA27B795A7952091900330919103A20F7A
S1130FD0B31F2091060130910701A20FB31F249182
S1130FE02C9320919003309191032F5F3F4F3093C6
S1130FF09103209390030196319688309105D1F6A0
S113100002C080E0089581E00895CF931816190670
S11310104CF46AE070E022D4C82FCB01F6DF80E301
S11310208C0FA7DFCF91089587709078992324F4CB
S11310300197886F9F6F0196FC01F695FE2FEE27AE
S1131040F795E7956F777078772334F461507109D9
S113105060687F6F6F5F7F4F6E0F7F1FE0910601A7
S1131060F0910701E60FF71F8081482B4083089514
S11310708038910520F56034710518F59B012770BF
S11310803078332334F421503109286F3F6F2F5FB8
S11310903F4F41E050E002C0440F551F2A95E2F74C
S11310A0FB01FF230CF43796BC01CF01959587957E
S11310B09595879595958795B7DF81E0089580E0AC
S11310C0089580E008952F923F924F925F926F921D
S11310D07F928F929F92AF92BF92CF92DF92EF92C4
S11310E0FF920F931F93CF93DF93CDB7DEB7609733
S11310F00FB6F894DEBF0FBECDBF1C017A87698797
S11311005C874B8738872F83481759070CF4AEC088
S11311108417950709F484C0B90129853A85621BAF
S1131120730B882777FD8095982F85D26B017C01FE
S11311306B857C8562197309882777FD8095982FC4
S11311407AD29B01AC01C701B601DAD16B837C83EF
S11311508D839E83B101882777FD8095982F6BD26C
S113116069837A83E82EF92EEB85FC85BF018827F5
S113117077FD8095982F5FD24B015C019B01AC01F8
S113118069817A818E2D9F2DB7D188230CF048C0B8
S11311901981CA800F2D29853A852901662457FCB7
S11311A06094762C3E862D862E2C3F2CC88AEF86A2
S11311B029813A81422D532D612F78898F85902F73
S11311C036D12B813C814D815E81E5D26B017C015E
S11311D0C301B20130D29B01AC01C701B60128D1D1
S11311E0F7D16B017C01612F78898F85902FF0D125
S11311F0DC01CB01B6013CDF2DEC3CEC4CEC5DE3B7
S1131200612F78898F85902F13D1162F788B8F8734
S1131210092FA501940170D1882354F22D843E84B2
S113122089859A85EF81F885E817F90734F499855B
S11312308A85FA87E9879F8388872B853C852216D0
S1131240330609F042C0F98469857A8577278F814E
S1131250988568177907CCF58C01C10109DFF394EF
S11312606F2D70E060177107C4F32FC069857A850C
S1131270EF81F8856E1B7F0B882777FD8095982F6B
S1131280DAD16B017C01B1012B853C85621B730BA8
S1131290882777FD8095982FCED19B01AC01C7019B
S11312A0B6012ED16B837C838D839E8399858A8539
S11312B0EF81F885FA87E9879F838887922D832DAC
S11312C02B843C849B878C8745CF60960FB6F8941B
S11312D0DEBF0FBECDBFDF91CF911F910F91FF9065
S11312E0EF90DF90CF90BF90AF909F908F907F90C2
S11312F06F905F904F903F902F900895CF93DF931E
S1131300C82FD0E0CE0169DDCE019695982F8827AD
S1131310979587959C0120583F4FE0910601F091E5
S11313200701E80FF91F4081E0910801F0910901DC
S1131330408301968217930781F7DF91CF91089537
S1131340CF93C0E08C2FDADFCF5FC830D9F7CF91CD
S1131350089540E050E070E060E014C09C01240F68
S1131360351FE0910601F0910701E20FF31F10828F
S113137001968038910591F740585F4F411584E0FC
S1131380580719F0872F962FE9CFDACF0895CF9217
S1131390DF92EF92FF920F931F93CF93DF93C42FAB
S11313A0E22EF12C062F10E0C82ED12C9701A601B5
S11313B0B801C60188DED0E09801AE01B801C601CB
S11313C082DE9701AE01B701C6017DDE9701AE0151
S11313D0B801CE0178DEDF91CF911F910F91FF907C
S11313E0EF90DF90CF900895282F89B7816089BF4F
S11313F083B78D6083BF30E040E050E060EC72E181
S113140080E090E03ED221BF81E08093EE03089516
S11314101F920F920FB60F9211248F9381E0809345
S1131420EE038F910F900FBE0F901F901895505898
S1131430BB27AA270ED075C166D130F06BD120F03E
S113144031F49F3F11F41EF45BC10EF4E095E7FB09
S113145051C1E92F77D180F3BA1762077307840764
S1131460950718F071F49EF58FC10EF4E0950B2EDC
S1131470BA2FA02D0B01B90190010C01CA01A001E2
S11314801124FF27591B99F0593F50F4503E68F13D
S11314901A16F040A22F232F342F4427585FF3CF7E
S11314A0469537952795A795F0405395C9F77EF44F
S11314B01F16BA0B620B730B840BBAF09150A1F098
S11314C0FF0FBB1F661F771F881FC2F70EC0BA0F1E
S11314D0621F731F841F48F4879577956795B795A6
S11314E0F7959E3F08F0B3CF9395880F08F099279E
S11314F0EE0F979587950895D9D008F481E0089563
S11315000CD00FC107D140F0FED030F021F45F3F82
S113151019F0F0C0511139C1F3C014D198F39923D3
S1131520C9F35523B1F3951B550BBB27AA276217A3
S11315307307840738F09F5F5F4F220F331F441FE8
S1131540AA1FA9F333D00E2E3AF0E0E830D0915020
S11315505040E695001CCAF729D0FE2F27D0660F0D
S1131560771F881FBB1F261737074807AB07B0E84C
S113157009F0BB0B802DBF01FF2793585F4F2AF062
S11315809E3F510568F0B6C000C15F3FECF3983E42
S1131590DCF3869577956795B795F7959F5FC9F7BF
S11315A0880F911D9695879597F90895E1E0660F48
S11315B0771F881FBB1F621773078407BA0720F0C1
S11315C0621B730B840BBA0BEE1F88F7E09508952A
S11315D004D06894B111D9C00895BCD088F09F5745
S11315E090F0B92F9927B751A0F0D1F0660F771F6B
S11315F0881F991F1AF0BA95C9F712C0B13081F04B
S1131600C3D0B1E00895C0C0672F782F8827B85F92
S113161039F0B93FCCF3869577956795B395D9F7AB
S11316203EF490958095709561957F4F8F4F9F4FB5
S11316300895E89409C097FB3EF4909580957095C1
S113164061957F4F8F4F9F4F9923A9F0F92F96E90A
S1131650BB279395F695879577956795B795F1117F
S1131660F8CFFAF4BB0F11F460FF1BC06F5F7F4F1C
S11316708F4F9F4F16C0882311F096E911C077232E
S113168021F09EE8872F762F05C0662371F096E837
S1131690862F70E060E02AF09A95660F771F881F06
S11316A0DAF7880F9695879597F90895990F0008AA
S11316B0550FAA0BE0E8FEEF16161706E807F90720
S11316C0C0F012161306E407F50798F0621B730BBB
S11316D0840B950B39F40A2661F0232B242B252B3C
S11316E021F408950A2609F4A140A6958FEF811DDF
S11316F0811D089597F99F6780E870E060E0089580
S11317009FEF80EC089500240A9416161706180615
S11317100906089500240A941216130614060506F1
S11317200895092E0394000C11F4882352F0BB0F82
S113173040F4BF2B11F460FF04C06F5F7F4F8F4FE5
S11317409F4F089557FD9058440F551F59F05F3F20
S113175071F04795880F97FB991F61F09F3F79F0CF
S113176087950895121613061406551FF2CF469551
S1131770F1DF08C0161617061806991FF1CF8695D3
S11317807105610508940895E894BB2766277727B7
S1131790CB0197F908950BD0C4CFB5DF28F0BADF99
S11317A018F0952309F0A6CFABCF1124EECFCADFF2
S11317B0A0F3959FD1F3950F50E0551F629FF00160
S11317C0729FBB27F00DB11D639FAA27F00DB11DB9
S11317D0AA1F649F6627B00DA11D661F829F222742
S11317E0B00DA11D621F739FB00DA11D621F839FC9
S11317F0A00D611D221F749F3327A00D611D231F9F
S1131800849F600D211D822F762F6A2F11249F57EC
S113181050408AF0E1F088234AF0EE0FFF1FBB1F0F
S1131820661F771F881F91505040A9F79E3F5105AE
S113183070F060CFAACF5F3FECF3983EDCF386955F
S113184077956795B795F795E7959F5FC1F7FE2B59
S1131850880F911D9695879597F9089597FB072E04
S113186016F4009406D077FD08D027D007FC05D0E5
S11318703EF4909581959F4F0895709561957F4FA3
S11318800895052E97FB16F400940FD057FD05D04C
S113189028D007FC02D046F408C0509540953095F6
S11318A021953F4F4F4F5F4F0895909580957095C8
S11318B061957F4F8F4F9F4F0895AA1BBB1B51E12A
S11318C007C0AA1FBB1FA617B70710F0A61BB70BAC
S11318D0881F991F5A95A9F780959095BC01CD0151
S11318E00895A1E21A2EAA1BBB1BFD010DC0AA1F5D
S11318F0BB1FEE1FFF1FA217B307E407F50720F075
S1131900A21BB30BE40BF50B661F771F881F991FEF
S11319101A9469F760957095809590959B01AC0138
S1131920BD01CF0108950F931F93CF93DF93EC0173
S11319308B01009731F46115710519F480E090E092
S113194037C06EE070E081E090E038D2FC0100978F
S1131950A9F380E883830115110571F013870287C9
S113196081E883838091EF039091F003892B21F424
S1131970F093F003E093EF032097C9F0D187C08779
S11319808381826083838091F1039091F203892B98
S113199071F4F093F203E093F1038091F3039091D7
S11319A0F403892B21F4F093F403E093F303CF01C0
S11319B0DF91CF911F910F910895A0E0B0E0E2EE86
S11319C0FCE0FAC3FE01359661917191AF018091FB
S11319D0F1039091F2032FD0E2E00AC40F931F9316
S11319E0CF93DF93E091F103F091F203238121FF80
S11319F01BC0EC0100E010E089916091F10370914B
S1131A00F203DB011896ED91FC911997882331F0CC
S1131A100995892B89F30FEF1FEFEECF8AE0099523
S1131A20892B11F4C80102C08FEF9FEFDF91CF9192
S1131A301F910F910895ACE0B0E0E0E2FDE0ACC38B
S1131A407C016B018A01FC0117821682838181FF6C
S1131A50B0C1CE0101964C01F7019381F60193FDCB
S1131A60859193FF81916F01882309F49EC185328A
S1131A7039F493FD859193FF81916F01853221F4AF
S1131A80B70190E0F9D2E8CF512C312C20E020327C
S1131A90A0F48B3269F030F4803259F0833269F467
S1131AA020612CC08D3239F0803339F4216026C096
S1131AB02260246023C0286021C027FD27C030EDA8
S1131AC0380F3A3078F426FF06C0FAE05F9E300DF6
S1131AD01124532E13C08AE0389E300D1124332E66
S1131AE020620CC08E3221F426FD5FC1206406C042
S1131AF08C3611F4206802C0883641F4F60193FD57
S1131B00859193FF81916F018111C1CF982F9F7DA2
S1131B109554933028F40C5F1F4FFFE3F9830DC0F5
S1131B20833631F0833771F0833509F057C021C013
S1131B30F801808189830E5F1F4F44244394512C04
S1131B40540114C03801F2E06F0E711CF801A0803A
S1131B50B18026FF03C0652D70E002C06FEF7FEFF8
S1131B60C5012C877ED22C0183012C852F77222E50
S1131B7016C03801F2E06F0E711CF801A080B1802C
S1131B8026FF03C0652D70E002C06FEF7FEFC50133
S1131B902C8755D22C012C852068222E830123FC0E
S1131BA019C0832D90E048165906A0F4B70180E2CD
S1131BB090E062D23A94F5CFF50127FC859127FE97
S1131BC081915F01B70190E057D231103A94F1E06E
S1131BD04F1A51084114510479F7DEC0843611F0CC
S1131BE0893631F5F80127FF07C060817181828150
S1131BF093810C5F1F4F08C060817181882777FD36
S1131C008095982F0E5F1F4F2F76B22E97FF09C035
S1131C1090958095709561957F4F8F4F9F4F206869
S1131C20B22E2AE030E0A40159D2A82EA81843C04D
S1131C30853729F42F7EB22E2AE030E025C0F22F1A
S1131C40F97FBF2E8F36C1F018F4883579F0ADC016
S1131C50803719F0883721F0A8C02F2F2061B22EC9
S1131C60B4FE0DC08B2D8460B82E09C024FF0AC0B9
S1131C709F2F9660B92E06C028E030E005C020E111
S1131C8030E002C020E132E0F801B7FE07C0608115
S1131C907181828193810C5F1F4F06C060817181C5
S1131CA080E090E00E5F1F4FA40118D2A82EA81860
S1131CB0FB2DFF77BF2EB6FE0BC02B2D2E7FA51458
S1131CC050F4B4FE0AC0B2FC08C02B2D2E7E05C011
S1131CD07A2C2B2D03C07A2C01C0752C24FF0DC047
S1131CE0FE01EA0DF11D8081803311F4297E09C0C3
S1131CF022FF06C07394739404C0822F867809F07F
S1131D00739423FD12C020FF06C05A2C731418F4D8
S1131D10530C5718732C731460F4B70180E290E0ED
S1131D202C87AAD173942C85F6CF731410F437182A
S1131D3001C0312C24FF11C0B70180E390E02C874F
S1131D409BD12C8522FF16C021FF03C088E590E0BB
S1131D5002C088E790E0B7010CC0822F867851F06A
S1131D6021FD02C080E201C08BE227FD8DE2B701B4
S1131D7090E082D1A51430F4B70180E390E07CD1E7
S1131D805A94F8CFAA94F401EA0DF11D8081B701A9
S1131D9090E072D1A110F6CF332009F45DCEB701E3
S1131DA080E290E069D13A94F7CFF7018681978178
S1131DB002C08FEF9FEF2C96E2E10AC20F931F93AC
S1131DC0CF93DF93869F8001879F100D969F100D00
S1131DD01124C8010DD0EC01009721F0A80160E0A6
S1131DE070E038D1CE01DF91CF911F910F9108950A
S1131DF0CF93DF938230910510F482E090E0E0917C
S1131E00F703F091F80320E030E0A0E0B0E0309771
S1131E1039F14081518148175907B8F048175907DB
S1131E2071F482819381109729F013969C938E9379
S1131E3012972CC09093F8038093F70327C02115C1
S1131E40310531F04217530718F0A901DB0101C035
S1131E50EF019A01BD01DF010280F381E02DD7CFAC
S1131E6021153105F9F0281B390B2430310580F494
S1131E708A819B816115710521F0FB019383828323
S1131E8004C09093F8038093F703FE01329644C094
S1131E90FE01E20FF31F819391932250310939839C
S1131EA028833AC02091F5033091F603232B41F4A3
S1131EB020910201309103013093F6032093F5033E
S1131EC020910001309101012115310541F42DB714
S1131ED03EB74091040150910501241B350BE0915C
S1131EE0F503F091F603E217F307A0F42E1B3F0B62
S1131EF02817390778F0AC014E5F5F4F2417350778
S1131F0048F04E0F5F1F5093F6034093F5038193FF
S1131F10919302C0E0E0F0E0CF01DF91CF9108950A
S1131F20CF93DF93009709F487C0FC0132971382A3
S1131F301282C091F703D091F803209781F4208195
S1131F403181280F391F8091F5039091F603821790
S1131F50930779F5F093F603E093F5036DC0DE0182
S1131F6020E030E0AE17BF0750F412964D915C911B
S1131F7013979D014115510509F1DA01F3CFB3839C
S1131F80A28340815181840F951F8A179B0771F4A6
S1131F908D919C911197840F951F02969183808354
S1131FA012968D919C911397938382832115310509
S1131FB029F4F093F803E093F7033EC0D901139694
S1131FC0FC93EE9312974D915D91A40FB51FEA1700
S1131FD0FB0779F480819181840F951F0296D901C2
S1131FE011969C938E938281938113969C938E93E6
S1131FF01297E0E0F0E08A819B81009719F0FE01DE
S1132000EC01F9CFCE01029628813981820F931F0A
S11320102091F5033091F6032817390769F43097B6
S113202029F41092F8031092F70302C0138212826B
S1132030D093F603C093F503DF91CF910895FC018B
S11320400590615070400110D8F7809590958E0FDF
S11320509F1F0895DC0101C06D9341505040E0F78B
S11320600895FC016150704001900110D8F78095EB
S113207090958E0F9F1F08950F931F93CF93DF9317
S1132080182F092FEB018B8181FD03C08FEF9FEF88
S113209020C082FF10C04E815F812C813D81421798
S11320A053077CF4E881F9819F012F5F3F4F398307
S11320B02883108306C0E885F985812F0995892B2B
S11320C029F72E813F812F5F3F4F3F832E83812F3E
S11320D0902FDF91CF911F910F910895FA01AA27B4
S11320E0283051F1203181F1E8946F936E7F6E5F57
S11320F07F4F8F4F9F4FAF4FB1E03ED0B4E03CD005
S1132100670F781F891F9A1FA11D680F791F8A1FE7
S1132110911DA11D6A0F711D811D911DA11D20D04E
S113212009F468943F912AE0269F11243019305D08
S11321303193DEF6CF010895462F4770405D4193F9
S1132140B3E00FD0C9F7F6CF462F4F70405D4A3346
S113215018F0495D31FD4052419302D0A9F7EACF0E
S1132160B4E0A6959795879577956795BA95C9F73D
S113217000976105710508959B01AC010A2E069430
S11321805795479537952795BA95C9F7620F731FE9
S1132190841F951FA01D08952F923F924F925F9226
S11321A06F927F928F929F92AF92BF92CF92DF9263
S11321B0EF92FF920F931F93CF93DF93CDB7DEB7C8
S11321C0CA1BDB0B0FB6F894DEBF0FBECDBF09945C
S11321D02A88398848885F846E847D848C849B84B3
S11321E0AA84B984C884DF80EE80FD800C811B81C1
S11321F0AA81B981CE0FD11D0FB6F894DEBF0FBEF0
S10D2200CDBFED010895F894FFCF5F
S113220A0000F90320000018001200100A494420B3
S113221A2569094C3A20256909444154413A0A007E
S113222A256909004D43505F43414E535441543A82
S113223A2025690A0043414E20696E697469616CFC
S113224A697A65642E0A004D43505F43414E494EF4
S113225A5446203D202569000A52454349564544BF
S113226A204D4553534147453A000A53454E54209D
S113227A4D4553534147453A004D43503235313564
S113228A5F746573745350490056616C7565206FA9
S113229A6620693A202569092076616C7565206F84
S11322AA66207265673A0925690A0052657365747E
S11322BA74696E67204D43503235313500535049A5
S11322CA20636F6D6D756E69636174696F6E2069E1
S11322DA6E697469616C697A65642E0043616C691C
S11322EA62726174696F6E2076616C7565733A20E7
S11322FA0963616C5F583A2025690963616C5F5907
S113230A3A25690A005265666572656E63652056E8
S113231A616C7565733A2009582025690959202585
S113232A69094C2025690952202569090A00537450
S113233A617274696E67205352414D2074657374D7
S113234A2E2E2E0057726974652070686173652099
S113235A6572726F723A206578745F72616D5B257B
S113236A34645D203D2025303258202873686F7507
S113237A6C642062652025303258290A005265743B
S113238A72696576616C2070686173652065727222
S113239A6F723A206578745F72616D5B2534645D8F
S11323AA203D2025303258202873686F756C6420CC
S11323BA62652025303258290A005352414D20744F
S11323CA65737420636F6D706C65746564207769D6
S11323DA74680A253464206572726F727320696E98
S11323EA20777269746520706861736520616E6410
S11323FA0A253464206572726F727309696E2072D9
S113240A657472696576616C2070686173650A0A1D
S113241A0031343A32383A3336004E6F762020315E
S113242A2032303137006C366432004C4F41444913
S113243A4E47206731375F25732025732025730A99
S113244A494E495449414C495A494E472E2E2E0A5F
S113245A0A55415254207375636365737366756CC8
S113246A6C7920696E697469616C697A65640A0AAF
S109247A00746573740098
S9030000FC
