S00D00004E4F4445322E73726563BF
S1130000C2C00000E0C00000DEC00000DCC0000090
S1130010DAC00000EDC00000D6C00000D4C000006B
S1130020D2C00000D0C00000CEC00000CCC0000090
S1130030CAC00000C8C00000C6C00000C4C00000A0
S1130040C2C00000C0C00000BEC00000BCC00000B0
S1130050BAC00000B8C00000B6C00000B4C00000C0
S1130060B2C00000B0C00000AEC00000ACC00000D0
S1130070AAC00000A8C00000A6C00000A4C00000E0
S1130080A2C00000A0C000009EC000009CC00000F0
S11300909AC0000098C0000096C00000E2C60000AC
S11300A092C0000090C0000049C600008CC000004F
S11300B08AC0000088C0000086C0000084C0000020
S11300C082C0000080C000007EC000007CC0000030
S11300D07AC0000078C0000076C0000074C0000040
S11300E072C000004C079E079E079E079E079E074E
S11300F09E079E074C079E079E079E079E079E0726
S11301009E079E074E079E079E079E079E079E0713
S11301109E079E079E079E079E079E079E079E07B3
S11301209E079E074E079E079E079E079E079E07F3
S11301309E079E079E079E079E079E079E079E0793
S11301409E079E079A079E079E079E079E079E0787
S11301509E079E0777079E079E079E079E079E079A
S11301609E079E079E079E079E079E079E079E0763
S11301709E079E076B079E079E079E079E079E0786
S11301809E079E07890711241FBECFEFD1E2DEBF71
S1130190CDBF00E00CBF13E0A0E0B2E0EEE8FCE16C
S11301A000E00BBF02C007900D92AE33B107D9F740
S11301B023E0AEE3B3E001C01D92A03CB207E1F737
S11301C023D50C94450E1CCF8AE493E008959093B4
S11301D0400380933F0360934103662341F082E42C
S11301E093E0FC0111922E2F281B2617D8F30895B3
S11301F01F920F920FB60F9211248F9381E0809378
S11302003E038F910F900FBE0F901F901895F89496
S11302106C98EAE6F0E080818E7F80838081826042
S11302208083EC9A78940895AFD068E088E290E0F7
S1130230CEDF4FEF50E064E680E68DD04FEF50E024
S113024064E680E788D041E050E061E08BE283D04F
S113025041E050E062E08BE27ED040E050E060EEAE
S11302608FE079D0D4CF089504C087E292E00E9451
S11302703C0A8CE262D080FD04C08CE25ED081FF37
S1130280F4CF8CE25AD080FF07C040E050E061E038
S11302908CE261D080E008958CE24FD081FF07C0EA
S11302A040E050E062E08CE256D081E008958FEFA8
S11302B008951F93CF93DF9380913E038823A1F188
S11302C010923E03D1DF182F1295107F81E6810F23
S11302D034D0EC0182E6810F30D082958695877008
S11302E0DD27CC0FDD1FCC0FDD1FCC0FDD1FC82B8E
S11302F0D0934B03C0934A0385E6810F1ED08F70C1
S113030080934C03882391F010E0CCE4D3E086E69C
S1130310810F13D0E12FF0E0E65BFC4F83831F5F76
S113032088811817A0F304C080E003C081E001C0F5
S113033081E0DF91CF911F910895CF93C82F33D0DF
S113034083E025D08C2F23D027D0C82F2ED08C2FFC
S113035090E0CF9108951F93CF93DF93182FD62F5A
S1130360C42F21D085E013D0812F11D08D2F0FD031
S11303708C2F0DD01AD0DF91CF911F91089513D0F7
S113038080EC05D012C0089512D0F9CF08958EBD27
S11303900DB407FEFDCF089580E0F9DF0DB407FE2C
S11303A0FDCF8EB508952F9808952F9A0895209A19
S11303B08CB581608CBD84B1866884B98CB5806548
S11303C08CBDF3CF0895E0ECF0E0908195FFFDCF74
S11303D08093C6000895E0ECF0E080818823ECF778
S11303E08091C60090E008951092C50087E680933E
S11303F0C40088E18093C1008EE08093C2006BEE5C
S113040071E083EE91E0DDC70895FC011092700362
S113041010926F0310926E031092620310926103A4
S11304201092600310926D0310926A031092690394
S11304301092680310926703109266032081209340
S11304407303318130936503638160936403448152
S113045040936C03558150936B03868180936303AF
S11304601F928F93852F992787FD90959F935F9374
S1130470842F992787FD90959F934F931F926F9395
S1130480832F992787FD90959F933F93822F9927D8
S113049087FD90959F932F9387E492E09F938F938A
S11304A0DAD780E090E095D490935F0380935E0365
S11304B08DB79EB70E960FB6F8949EBF0FBE8DBF34
S11304C008954A991DC080E090E083D4209174037C
S11304D0309175032817390798F48BE692E0CCD74E
S11304E080917103909172030A96909372038093A2
S11304F0710388EE93E06DD4909375038093740335
S113050008958F929F92AF92BF92CF92DF92EF9213
S1130510FF921F93CF93DF93109272031092710393
S1130520BDD01AE5CEE6D3E04C019924AA2497FC69
S1130530A094BA2CBEDE882399F146DEFC018081AA
S11305409181449769F540DEFC018381992787FDF9
S1130550909590936F0380936E0336DEFC01848143
S1130560992787FD909590936203809361032CDE15
S1130570FC0185818093600327DEFC0186818093E2
S11305806D0322DEFC01878180936A031DDEFC017A
S113059080858093690318DEFC018185809368035C
S11305A080916303813051F4209168032103C001D9
S11305B0112490936703809366030BC0811109C0D3
S11305C0209168032103C001112490936703809351
S11305D066038881A5D280916A0381116CD35ED0B1
S11305E0BC0180E090E0C2D56B017C01C501B4017F
S11305F0BFD520E030E040E45FE36ED69B01AC0160
S1130600C701B60116D5882394F481E792E09F933D
S11306108F9321D780916603909167035FD151DF57
S113062080917103909172030F900F9007C0809195
S113063066039091670352D144DF7CCFDF91CF9161
S11306401F91FF90EF90DF90CF90BF90AF909F905D
S11306508F900895CF93DF938098EAE7F0E080814C
S113066087608083ACE7B0E080E48C938C918C93BA
S1130670CBE7D0E08881877F888380818062808314
S113068087E088838C9180628C93808180688083EA
S1130690808180648083DF91CF910895EAE7F0E060
S11306A0808180648083808186FDFDCF8091790084
S11306B090E00895CF93DF9300D0CDB7DEB790E5F7
S11306C099831A828B8363E070E0CE010196A7D3ED
S11306D00F900F900F90DF91CF9108958F3F41F0CD
S11306E0813059F4E2E0F1E080818D7F80830895C8
S11306F0E2E0F1E08081826080830895E2E0F1E04D
S113070080818F7B80838AE68A95F1F700C080819F
S1130710806480830895E2E0F1E0808188608083D2
S113072080818F7D80838081877F80838AE68A951C
S1130730F1F700C0209106018081886080838AE6F9
S11307408A95F1F700C080910601908190629083B0
S113075090E0922B08951F93CF93DF93C82F862F99
S1130760BDDF8C2FA7DFD7DF90937E0380937D03BB
S113077010E0D1DFEC0123D3180F20917D033091D9
S11307807E03C217D30721F0D0937E03C0937D0369
S1130790143678F380E08EDF80917D0390917E03A0
S11307A0DF91CF911F910895CF93C82F6FEFD3DFBF
S11307B0A5DF61E08C2FCFDF9093800380937F03CC
S11307C06FEF8C2FC8DF809180038F9380917F031C
S11307D08F93809156038F93809155038F938BE76A
S11307E092E09F938F9337D660917F03709180033B
S11307F0882777FD8095982FBBD40F900F900F908A
S11308000F900F900F90CF910895E1E0F1E0808177
S11308108A67808310920701E2E0F1E080818061C1
S113082080836CDF80E046DF84E6BEDF6ED4CB01DC
S11308300895CF92DF92EF92FF920F931F93690175
S11308407A011092A1031092A003109267031092F0
S113085066031092AA031092A90357D470938203DB
S113086060938103C701B60150D470939F036093D2
S11308709E031093940300939303C80132D2C5DFFF
S113088080937F03909380039F938F9387EB92E0F1
S11308909F938F93E0D510928A031092890310924C
S11308A0920310929103109288031092870310927E
S11308B0900310928F030F900F900F900F901F9141
S11308C00F91FF90EF90DF90CF900895833018F050
S11308D0825DF0CE089580E0EDCE0895CF92DF9250
S11308E0EF92FF920F931F938C0169D2882309F42E
S11308F005C111DF90939603809395039801281BFB
S1130900390BC9013093A3032093A203E091A00300
S1130910F091A103E20FF31FA901662757FD60952B
S1130920762F00910A0210910B0220910C02309153
S11309300D0204171507260737073CF42FEF3FE78E
S1130940309398032093970323C0309520951095F6
S113095001951F4F2F4F3F4F4017510762077307F1
S11309603CF421E030E8309398032093970310C0BF
S11309709C01220F331F220F331F220F331FAC01A0
S1130980440F551F240F351F30939803209397036A
S11309908E0F9F1FAC01662757FD6095762F4093FD
S11309A083035093840360938503709386030091BB
S11309B006021091070220910802309109020417DF
S11309C01507260737078CF48FEF9FEFAFEFBFE3D0
S11309D08093990390939A03A0939B03B0939C03F1
S11309E01093A1030093A00332C0CC24DD2476012C
S11309F0C01AD10AE20AF30A4C155D056E057F059B
S1130A00A4F481E090E0A0E0B0EC8093990390938B
S1130A109A03A0939B03B0939C031195019511092C
S1130A201093A1030093A00312C09093A103809399
S1130A30A003880F991FAA2797FDA095BA2F80932A
S1130A40990390939A03A0939B03B0939C032091E2
S1130A50970330919803332314F421583F4F220F06
S1130A60232F221F330B3093AA032093A9038091D1
S1130A70A4039091A503A091A603B091A70381308C
S1130A809048AF4FBF4F3CF481E090E89093AA03A5
S1130A908093A90308C0121613061CF481E01EDE1D
S1130AA00FC033236CF48FEF19DE8091A90390916A
S1130AB0AA039195819591099093AA038093A90320
S1130AC08091A9039091AA03C39734F082E390E044
S1130AD09093AA038093A9038091A2039091A30306
S1130AE0C1968336910538F41092A1031092A003A5
S1130AF080E0E0DD03C08091A903E8DE1F910F913F
S1130B00FF90EF90DF90CF90089560E070E080EA6E
S1130B1091E496D060E070E080EC9FE37BC00895A0
S1130B20CF92DF92EF92FF92682F84E6860F893C82
S1130B30A0F5772767FD7095872F972F19D39B0111
S1130B40AC0160E070E088EC92E40ED220E030E08A
S1130B5048E453E472D229E939E949E95FE3BCD3B3
S1130B6026E636E646E65FE300D26B017C0126E624
S1130B7036E646E65FE3ACD3882394F026E636E611
S1130B8046E050E4C701B60154D2181664F0C70118
S1130B90B60140D081E090E008C08FEF9FEF05C020
S1130BA080E090E002C080E090E0FF90EF90DF9062
S1130BB0CF9008950F931F93F89416DC35DB84ECE3
S1130BC092E05AD422D184ED92E056D49EDF84EE92
S1130BD092E052D43FDD86EF92E04ED44DD082E3D2
S1130BE090E07FD002E310E020E030E040E85FE3F3
S1130BF06CEA75EC87E298E31CDE85E093E03CD474
S1130C0078941F910F910895D5DF81E090E0FDDB8A
S1130C1078DCFBCF20E030E04AE751E45DD375D2C5
S1130C207093990060939800089520E030E04AE7BB
S1130C3051E452D36AD2709397006093960008955A
S1130C406B9AE0E9F0E020812E7F208320812260EE
S1130C502083A1E9B0E02C9128612C9320812068A5
S1130C60208320812F7B20832C9125602C932C9131
S1130C702D7F2C93DACF0895279A1092AC0310920B
S1130C80AB0308952F9A08952F9808958091AB038C
S1130C909091AC03ABD0882349F080E293E09F931A
S1130CA08F93D9D30F900F9081E0089587E393E059
S1130CB0E3D380E00895EADF882391F0E5DF2FEFA6
S1130CC089EF90E0215080409040E1F700C000009F
S1130CD0D9DF84EF91E07DD09093AC038093AB0394
S1130CE00895E2E7F0E08081826080831092A5009D
S1130CF01092A400E1EAF0E0808188608083808122
S1130D008F7E808380818560808387E391E09093E8
S1130D10A9008093A8001092AD031092AE03109224
S1130D20AF031092B0031092B1031092B203109269
S1130D30B3031092B4031092B50308951F920F9257
S1130D400FB60F9211242F933F934F935F936F939A
S1130D507F938F939F93AF9381E08093AD03209112
S1130D60AE033091AF034091B0035091B103609151
S1130D70B2037091B3038091B4039091B503A1E0E1
S1130D8014D32093AE033093AF034093B003509336
S1130D90B1036093B2037093B3038093B40390934D
S1130DA0B503AF919F918F917F916F915F914F9117
S1130DB03F912F910F900FBE0F901F901895809127
S1130DC0AD03882321F01092AD0381E0089580E003
S1130DD008954091AE035091AF0364E1649F900184
S1130DE0659F300D1124820F931F0895CF93DF93D5
S1130DF0EC0180E090E0EDDF21E08C179D0708F422
S1130E0020E0822FDF91CF9108958CE08093B80089
S1130E108FEF8093BB0084E08093BC000895ECEBDB
S1130E20F0E0208120FDFDCF60935903FC01208177
S1130E3020935A0320FD0CC0623050F0DC0111965F
S1130E40EBE5F3E081E09D9191938F5F8613FBCFF7
S1130E501092580388EF80930E0285EA8093BC00B9
S1130E6008951F920F920FB60F9211240BB60F9292
S1130E702F933F938F939F93AF93BF93EF93FF93DE
S1130E808091B90090E0FC013897E135F10508F054
S1130E9055C0EE58FF4F83C210925703E091570399
S1130EA080915903E81770F481E08E0F8093570303
S1130EB0F0E0E65AFC4F80818093BB0085E8809384
S1130EC0BC0043C08091580381608093580384E937
S1130ED08093BC003AC0E091570381E08E0F809369
S1130EE057038091BB00F0E0E65AFC4F80832091C9
S1130EF0570330E08091590390E001972817390790
S1130F0024F485EC8093BC0020C085E88093BC0069
S1130F101CC08091BB00E0915703F0E0E65AFC4FFF
S1130F2080838091580381608093580384E980937F
S1130F30BC000BC085EA8093BC0007C08091B90057
S1130F4080930E0284E08093BC00FF91EF91BF91E7
S1130F50AF919F918F913F912F910F900BBE0F9066
S1130F600FBE0F901F9018955058BB27AA270ED07C
S1130F7075C166D130F06BD120F031F49F3F11F48C
S1130F801EF45BC10EF4E095E7FB51C1E92F77D164
S1130F9080F3BA17620773078407950718F071F492
S1130FA09EF58FC10EF4E0950B2EBA2FA02D0B01E8
S1130FB0B90190010C01CA01A0011124FF27591B9A
S1130FC099F0593F50F4503E68F11A16F040A22FA0
S1130FD0232F342F4427585FF3CF46953795279511
S1130FE0A795F0405395C9F77EF41F16BA0B620B10
S1130FF0730B840BBAF09150A1F0FF0FBB1F661F57
S1131000771F881FC2F70EC0BA0F621F731F841F99
S113101048F4879577956795B795F7959E3F08F0BF
S1131020B3CF9395880F08F09927EE0F979587957E
S11310300895D9D008F481E008950CD00FC107D1E8
S113104040F0FED030F021F45F3F19F0F0C05111B0
S113105039C1F3C014D198F39923C9F35523B1F3DB
S1131060951B550BBB27AA2762177307840738F013
S11310709F5F5F4F220F331F441FAA1FA9F333D072
S11310800E2E3AF0E0E830D091505040E695001C26
S1131090CAF729D0FE2F27D0660F771F881FBB1FE2
S11310A0261737074807AB07B0E809F0BB0B802DBC
S11310B0BF01FF2793585F4F2AF09E3F510568F008
S11310C0B6C000C15F3FECF3983EDCF3869577959C
S11310D06795B795F7959F5FC9F7880F911D96950A
S11310E0879597F90895E1E0660F771F881FBB1F66
S11310F0621773078407BA0720F0621B730B840B13
S1131100BA0BEE1F88F7E095089504D06894B111E6
S1131110D9C00895BCD088F09F5790F0B92F992773
S1131120B751A0F0D1F0660F771F881F991F1AF0EE
S1131130BA95C9F712C0B13081F0C3D0B1E00895B7
S1131140C0C0672F782F8827B85F39F0B93FCCF338
S1131150869577956795B395D9F73EF490958095E4
S1131160709561957F4F8F4F9F4F0895E89409C004
S113117097FB3EF490958095709561957F4F8F4FC6
S11311809F4F9923A9F0F92F96E9BB279395F695DC
S1131190879577956795B795F111F8CFFAF4BB0F5A
S11311A011F460FF1BC06F5F7F4F8F4F9F4F16C0BE
S11311B0882311F096E911C0772321F09EE8872F48
S11311C0762F05C0662371F096E8862F70E060E004
S11311D02AF09A95660F771F881FDAF7880F96957D
S11311E0879597F90895990F0008550FAA0BE0E821
S11311F0FEEF16161706E807F907C0F012161306D5
S1131200E407F50798F0621B730B840B950B39F414
S11312100A2661F0232B242B252B21F408950A267A
S113122009F4A140A6958FEF811D811D089597F9BA
S11312309F6780E870E060E008959FEF80EC089578
S113124000240A94161617061806090608950024A1
S11312500A9412161306140605060895092E03941B
S1131260000C11F4882352F0BB0F40F4BF2B11F48F
S113127060FF04C06F5F7F4F8F4F9F4F089557FDEE
S11312809058440F551F59F05F3F71F04795880FF0
S113129097FB991F61F09F3F79F087950895121687
S11312A013061406551FF2CF4695F1DF08C0161633
S11312B017061806991FF1CF8695710561050894E4
S11312C00895E894BB2766277727CB0197F90895FB
S11312D08ADF08F48FEF08950BD0C0CFB1DF28F078
S11312E0B6DF18F0952309F0A2CFA7CF1124EACFD7
S11312F0C6DFA0F3959FD1F3950F50E0551F629F71
S1131300F001729FBB27F00DB11D639FAA27F00D5A
S1131310B11DAA1F649F6627B00DA11D661F829F81
S11313202227B00DA11D621F739FB00DA11D621F66
S1131330839FA00D611D221F749F3327A00D611D83
S1131340231F849F600D211D822F762F6A2F112465
S11313509F5750408AF0E1F088234AF0EE0FFF1FB8
S1131360BB1F661F771F881F91505040A9F79E3FEF
S1131370510570F05CCFA6CF5F3FECF3983EDCF3F1
S1131380869577956795B795F795E7959F5FC1F72C
S1131390FE2B880F911D9695879597F90895EE0F6A
S11313A0FF1F0590F491E02D19940024A7FD0094EB
S11313B02A0F301D401D501D601D701D801D901D85
S11313C008950F931F93CF93DF93EC018B01009744
S11313D031F46115710519F480E090E037C06EE0D6
S11313E070E081E090E063D2FC010097A9F380E80B
S11313F083830115110571F01387028781E88383C4
S11314008091B6039091B703892B21F4F093B7032D
S1131410E093B6032097C9F0D187C08783818260A7
S113142083838091B8039091B903892B71F4F0936D
S1131430B903E093B8038091BA039091BB03892B5D
S113144021F4F093BB03E093BA03CF01DF91CF9172
S11314501F910F910895CF93DF93CDB7DEB7FE01AF
S1131460369661917191AF018091B8039091B9035F
S113147030D0DF91CF9108950F931F93CF93DF93D3
S1131480E091B803F091B903238121FF1BC0EC0163
S113149000E010E089916091B8037091B903DB0119
S11314A01896ED91FC911997882331F01995892BA1
S11314B089F30FEF1FEFEECF8AE01995892B11F412
S11314C0C80102C08FEF9FEFDF91CF911F910F9161
S11314D008952F923F924F925F926F927F928F92D4
S11314E09F92AF92BF92CF92DF92EF92FF920F93AF
S11314F01F93CF93DF93CDB7DEB72C970FB6F89435
S1131500DEBF0FBECDBF7C016B018A01FC011782D7
S11315101682838181FFB0C1CE0101964C01F7018F
S11315209381F60193FD859193FF81916F01882347
S113153009F49EC1853239F493FD859193FF81911D
S11315406F01853221F4B70190E00FD3E8CF512C1D
S1131550312C20E02032A0F48B3269F030F4803258
S113156059F0833269F420612CC08D3239F0803314
S113157039F4216026C02260246023C0286021C081
S113158027FD27C030ED380F3A3078F426FF06C027
S1131590FAE05F9E300D1124532E13C08AE0389E6A
S11315A0300D1124332E20620CC08E3221F426FD1E
S11315B05FC1206406C08C3611F4206802C08836EE
S11315C041F4F60193FD859193FF81916F0181119F
S11315D0C1CF982F9F7D9554933028F40C5F1F4FF3
S11315E0FFE3F9830DC0833631F0833771F083351F
S11315F009F057C021C0F801808189830E5F1F4F15
S113160044244394512C540114C03801F2E06F0E69
S1131610711CF801A080B18026FF03C0652D70E025
S113162002C06FEF7FEFC5012C8794D22C01830198
S11316302C852F77222E16C03801F2E06F0E711C14
S1131640F801A080B18026FF03C0652D70E002C0C0
S11316506FEF7FEFC5012C876BD22C012C8520689E
S1131660222E830123FC19C0832D90E048165906CD
S1131670A0F4B70180E290E078D23A94F5CFF50176
S113168027FC859127FE81915F01B70190E06DD21F
S113169031103A94F1E04F1A51084114510479F78A
S11316A0DEC0843611F0893631F5F80127FF07C012
S11316B060817181828193810C5F1F4F08C06081BA
S11316C07181882777FD8095982F0E5F1F4F2F76A5
S11316D0B22E97FF09C090958095709561957F4FC4
S11316E08F4F9F4F2068B22E2AE030E0A4016FD2C2
S11316F0A82EA81843C0853729F42F7EB22E2AE0DD
S113170030E025C0F22FF97FBF2E8F36C1F018F4D8
S1131710883579F0ADC0803719F0883721F0A8C03A
S11317202F2F2061B22EB4FE0DC08B2D8460B82EF5
S113173009C024FF0AC09F2F9660B92E06C028E076
S113174030E005C020E130E002C020E132E0F801E1
S1131750B7FE07C060817181828193810C5F1F4F46
S113176006C06081718180E090E00E5F1F4FA4018C
S11317702ED2A82EA818FB2DFF77BF2EB6FE0BC0C5
S11317802B2D2E7FA51450F4B4FE0AC0B2FC08C061
S11317902B2D2E7E05C07A2C2B2D03C07A2C01C054
S11317A0752C24FF0DC0FE01EA0DF11D80818033EC
S11317B011F4297E09C022FF06C07394739404C0F7
S11317C0822F867809F0739423FD12C020FF06C08F
S11317D05A2C731418F4530C5718732C731460F4A4
S11317E0B70180E290E02C87C0D173942C85F6CFAA
S11317F0731410F4371801C0312C24FF11C0B70141
S113180080E390E02C87B1D12C8522FF16C021FF04
S113181003C088E590E002C088E790E0B7010CC0FF
S1131820822F867851F021FD02C080E201C08BE254
S113183027FD8DE2B70190E098D1A51430F4B701EB
S113184080E390E092D15A94F8CFAA94F401EA0D7F
S1131850F11D8081B70190E088D1A110F6CF33202B
S113186009F45DCEB70180E290E07FD13A94F7CFDE
S1131870F7018681978102C08FEF9FEF2C960FB6F8
S1131880F894DEBF0FBECDBFDF91CF911F910F91B2
S1131890FF90EF90DF90CF90BF90AF909F908F908C
S11318A07F906F905F904F903F902F9008950F938B
S11318B01F93CF93DF93869F8001879F100D969F80
S11318C0100D1124C8010DD0EC01009721F0A801DE
S11318D060E070E038D1CE01DF91CF911F910F917C
S11318E00895CF93DF938230910510F482E090E065
S11318F0E091BE03F091BF0320E030E0A0E0B0E04F
S1131900309739F14081518148175907B8F0481789
S1131910590771F482819381109729F013969C934F
S11319208E9312972CC09093BF038093BE0327C05D
S11319302115310531F04217530718F0A901DB01D5
S113194001C0EF019A01BD01DF010280F381E02DA6
S1131950D7CF21153105F9F0281B390B2430310577
S113196080F48A819B816115710521F0FB019383C9
S1131970828304C09093BF038093BE03FE0132961A
S113198044C0FE01E20FF31F819391932250310969
S1131990398328833AC02091BC033091BD03232BA3
S11319A041F420910202309103023093BD0320934D
S11319B0BC0320910002309101022115310541F44C
S11319C02DB73EB74091040250910502241B350BFC
S11319D0E091BC03F091BD03E217F307A0F42E1BC2
S11319E03F0B2817390778F0AC014E5F5F4F24177F
S11319F0350748F04E0F5F1F5093BD034093BC035F
S1131A008193919302C0E0E0F0E0CF01DF91CF91A8
S1131A100895CF93DF93009709F487C0FC013297B0
S1131A2013821282C091BE03D091BF03209781F428
S1131A3020813181280F391F8091BC039091BD030F
S1131A408217930779F5F093BD03E093BC036DC04F
S1131A50DE0120E030E0AE17BF0750F412964D913E
S1131A605C9113979D014115510509F1DA01F3CFFA
S1131A70B383A28340815181840F951F8A179B07EA
S1131A8071F48D919C911197840F951F0296918307
S1131A90808312968D919C91139793838283211551
S1131AA0310529F4F093BF03E093BE033EC0D9018E
S1131AB01396FC93EE9312974D915D91A40FB51F6D
S1131AC0EA17FB0779F480819181840F951F0296B0
S1131AD0D90111969C938E938281938113969C9342
S1131AE08E931297E0E0F0E08A819B81009719F0D1
S1131AF0FE01EC01F9CFCE01029628813981820FD3
S1131B00931F2091BC033091BD032817390769F452
S1131B10309729F41092BF031092BE0302C01382BF
S1131B201282D093BD03C093BC03DF91CF9108957B
S1131B30FC010590615070400110D8F78095909594
S1131B408E0F9F1F0895DC0101C06D9341505040DA
S1131B50E0F70895FC016150704001900110D8F73E
S1131B60809590958E0F9F1F08950F931F93CF9389
S1131B70DF93182F092FEB018B8181FD03C08FEFB9
S1131B809FEF20C082FF10C04E815F812C813D8178
S1131B90421753077CF4E881F9819F012F5F3F4F7F
S1131BA039832883108306C0E885F985812F199528
S1131BB0892B29F72E813F812F5F3F4F3F832E834F
S1131BC0812F902FDF91CF911F910F910895FA01EA
S1131BD0AA27283051F1203181F1E8946F936E7F68
S1131BE06E5F7F4F8F4F9F4FAF4FB1E03ED0B4E059
S1131BF03CD0670F781F891F9A1FA11D680F791F9A
S1131C008A1F911DA11D6A0F711D811D911DA11DAA
S1131C1020D009F468943F912AE0269F11243019BA
S1131C20305D3193DEF6CF010895462F4770405D55
S1131C304193B3E00FD0C9F7F6CF462F4F70405D04
S1131C404A3318F0495D31FD4052419302D0A9F75F
S1131C50EACFB4E0A6959795879577956795BA9559
S1131C60C9F700976105710508959B01AC010A2E1F
S1131C7006945795479537952795BA95C9F7620FF6
S1111C80731F841F951FA01D0895F894FFCFB5
S1131C8E0000C00320005D74D105A20B0000F80A09
S1131C9E4944202569094C3A202569094441544197
S1131CAE3A0A002569090043414E5F726563657007
S1131CBE74696F6E5F636F6D706C657465206973A4
S1131CCE20737475636B0047616D6520706172617A
S1131CDE6D65746572733A2025690925690925694C
S1131CEE0925690925690925690A0053434F524597
S1131CFE00596F75206C6F73742100455F6D696EAA
S1131D0E3A256909455F4D61783A2025690A0070C4
S1131D1E2025692009207420256920092076202594
S1131D2E69200A0046494E414C09732025692C0945
S1131D3E762025692C0A00706F735F6D61783A20E6
S1131D4E25690A0043414E20696E697469616C69A4
S1131D5E7A65640054574920696E697469616C69C7
S1131D6E7A656400536572766F20696E6974696171
S1131D7E6C697A656400495220696E697469616C94
S1131D8E697A65640050495F436F6E74726F6C6C50
S1131D9E657220696E697469616C697A65642E0076
S1131DAE53484F4F54494E472121212121212121AE
S1111DBE2121212121210052454C4F41440096
S9030000FC
