:10000000C2C00000DFC00000DDC00000DBC0000097
:10001000D9C00000E9C00000D5C00000D3C0000076
:10002000D1C00000CFC00000CDC00000CBC0000098
:10003000C9C00000C7C00000C5C00000C3C00000A8
:10004000C1C00000BFC00000BDC00000BBC00000B8
:10005000B9C00000B7C00000B5C00000B3C00000C8
:10006000B1C00000AFC00000ADC00000ABC00000D8
:10007000A9C00000A7C00000A5C00000A3C00000E8
:10008000A1C000009FC000009DC000009BC00000F8
:1000900099C0000097C0000095C0000002C2000097
:1000A00091C000008FC0000049C100008BC000005B
:1000B00089C0000087C0000085C0000083C0000028
:1000C00081C000007FC000007DC000007BC0000038
:1000D00079C0000077C0000075C0000073C0000048
:1000E00071C000006C02BE02BE02BE02BE02BE02B1
:1000F000BE02BE026C02BE02BE02BE02BE02BE0252
:10010000BE02BE026E02BE02BE02BE02BE02BE023F
:10011000BE02BE02BE02BE02BE02BE02BE02BE02DF
:10012000BE02BE026E02BE02BE02BE02BE02BE021F
:10013000BE02BE02BE02BE02BE02BE02BE02BE02BF
:10014000BE02BE02BA02BE02BE02BE02BE02BE02B3
:10015000BE02BE029702BE02BE02BE02BE02BE02C6
:10016000BE02BE02BE02BE02BE02BE02BE02BE028F
:10017000BE02BE028B02BE02BE02BE02BE02BE02B2
:10018000BE02BE02A90211241FBECFEFD1E2DEBF24
:10019000CDBF00E00CBF12E0A0E0B2E0ECE6FDE075
:1001A00000E00BBF02C007900D92A231B107D9F752
:1001B00022E0A2E1B2E001C01D92A834B207E1F74B
:1001C00027D1D2C51DCF9093140280931302609360
:1001D0001502662341F086E192E0FC0111922E2F78
:1001E000281B2617D8F308951F920F920FB60F926F
:1001F00011248F9381E0809312028F910F900FBE94
:100200000F901F901895F8946C98EAE6F0E08081C2
:100210008E7F8083808182608083EC9A78940895B9
:1002200038D068E088E290E0CEDF4FEF50E064E63F
:1002300080E616D04FEF50E064E680E711D041E051
:1002400050E061E08BE20CD041E050E062E08BE2F4
:1002500007D040E050E060EE8FE002D0D4CF0895A8
:100260001F93CF93DF93182FD62FC42F1AD085E07A
:1002700013D0812F11D08D2F0FD08C2F0DD013D0F4
:10028000DF91CF911F9108950CD080EC05D00BC069
:1002900008950BD0F9CF08958EBD0DB407FEFDCFA4
:1002A00008952F9808952F9A0895209A8CB581600B
:1002B0008CBD84B1866884B98CB580658CBDF3CF64
:1002C0000895E0ECF0E0908195FFFDCF8093C600AB
:1002D0000895E0ECF0E080818823ECF78091C6007F
:1002E00090E008951092C50087E68093C40088E1ED
:1002F0008093C1008EE08093C20069E671E081E6E0
:1003000091E073C30895E2E0F1E080818F7B808308
:100310008AE68A95F1F700C0808180648083089521
:10032000E1E0F1E080818A67808310920701E2E0DA
:10033000F1E0808180618083E6CF08951F920F9263
:100340000FB60F9211248F9381E080932D028F912D
:100350000F900FBE0F901F90189560E070E080EA3C
:1003600091E479D060E070E080EC9FE35EC0089596
:10037000CF92DF92EF92FF92BC018C599F4F893C44
:10038000910598F5882777FD8095982F11D29B01CC
:10039000AC0160E070E088EC92E406D120E030E04F
:1003A00048E453E46AD129E939E949E95FE3B4D281
:1003B00026E636E646E65FE3F8D06B017C0126E6EA
:1003C00036E646E65FE3A4D2882394F026E636E6D6
:1003D00046E050E4C701B6014CD1181664F0C701DD
:1003E000B60123D081E090E008C08FEF9FEF05C0F9
:1003F00080E090E002C080E090E0FF90EF90DF901E
:10040000CF900895F8940CDF42D08ADF7894089555
:1004100069DF87E092E033D3F5DF8BE092E02FD302
:100420009CDF8CE99FEFA4DFFCCF20E030E04AE7BF
:1004300051E472D28AD17093990060939800089524
:1004400020E030E04AE751E467D27FD17093970013
:100450006093960008956B9AE0E9F0E020812E7F8A
:100460002083208122602083A1E9B0E02C912861C3
:100470002C9320812068208320812F7B20832C9146
:1004800025602C932C912D7F2C93DACF08958CE04E
:100490008093B8008FEF8093BB0084E08093BC0012
:1004A00008951F920F920FB60F9211240BB60F9260
:1004B0002F933F938F939F93AF93BF93EF93FF93AC
:1004C0008091B90090E0FC013897E135F10508F022
:1004D00055C0EE58FF4F83C210921E02E0911E02DB
:1004E00080912002E81770F481E08E0F80931E0245
:1004F000F0E0EF5DFD4F80818093BB0085E8809345
:10050000BC0043C080911F02816080931F0284E978
:100510008093BC003AC0E0911E0281E08E0F809370
:100520001E028091BB00F0E0EF5DFD4F80832091C3
:100530001E0230E08091200290E0019728173907D1
:1005400024F485EC8093BC0020C085E88093BC0037
:100550001CC08091BB00E0911E02F0E0EF5DFD4FFA
:10056000808380911F02816080931F0284E98093C1
:10057000BC000BC085EA8093BC0007C08091B90025
:100580008093060284E08093BC00FF91EF91BF91BD
:10059000AF919F918F913F912F910F900BBE0F9034
:1005A0000FBE0F901F9018955058BB27AA270ED04A
:1005B00075C166D130F06BD120F031F49F3F11F45A
:1005C0001EF45BC10EF4E095E7FB51C1E92F77D132
:1005D00080F3BA17620773078407950718F071F460
:1005E0009EF58FC10EF4E0950B2EBA2FA02D0B01B6
:1005F000B90190010C01CA01A0011124FF27591B68
:1006000099F0593F50F4503E68F11A16F040A22F6D
:10061000232F342F4427585FF3CF469537952795DE
:10062000A795F0405395C9F77EF41F16BA0B620BDD
:10063000730B840BBAF09150A1F0FF0FBB1F661F24
:10064000771F881FC2F70EC0BA0F621F731F841F67
:1006500048F4879577956795B795F7959E3F08F08D
:10066000B3CF9395880F08F09927EE0F979587954C
:100670000895D9D008F481E008950CD00FC107D1B6
:1006800040F0FED030F021F45F3F19F0F0C051117E
:1006900039C1F3C014D198F39923C9F35523B1F3A9
:1006A000951B550BBB27AA2762177307840738F0E1
:1006B0009F5F5F4F220F331F441FAA1FA9F333D040
:1006C0000E2E3AF0E0E830D091505040E695001CF4
:1006D000CAF729D0FE2F27D0660F771F881FBB1FB0
:1006E000261737074807AB07B0E809F0BB0B802D8A
:1006F000BF01FF2793585F4F2AF09E3F510568F0D6
:10070000B6C000C15F3FECF3983EDCF38695779569
:100710006795B795F7959F5FC9F7880F911D9695D7
:10072000879597F90895E1E0660F771F881FBB1F33
:10073000621773078407BA0720F0621B730B840BE0
:10074000BA0BEE1F88F7E095089504D06894B111B4
:10075000D9C00895BCD088F09F5790F0B92F992741
:10076000B751A0F0D1F0660F771F881F991F1AF0BC
:10077000BA95C9F712C0B13081F0C3D0B1E0089585
:10078000C0C0672F782F8827B85F39F0B93FCCF306
:10079000869577956795B395D9F73EF490958095B2
:1007A000709561957F4F8F4F9F4F0895E89409C0D2
:1007B00097FB3EF490958095709561957F4F8F4F94
:1007C0009F4F9923A9F0F92F96E9BB279395F695AA
:1007D000879577956795B795F111F8CFFAF4BB0F28
:1007E00011F460FF1BC06F5F7F4F8F4F9F4F16C08C
:1007F000882311F096E911C0772321F09EE8872F16
:10080000762F05C0662371F096E8862F70E060E0D1
:100810002AF09A95660F771F881FDAF7880F96954A
:10082000879597F90895990F0008550FAA0BE0E8EE
:10083000FEEF16161706E807F907C0F012161306A2
:10084000E407F50798F0621B730B840B950B39F4E2
:100850000A2661F0232B242B252B21F408950A2648
:1008600009F4A140A6958FEF811D811D089597F988
:100870009F6780E870E060E008959FEF80EC089546
:1008800000240A941616170618060906089500246F
:100890000A9412161306140605060895092E0394E9
:1008A000000C11F4882352F0BB0F40F4BF2B11F45D
:1008B00060FF04C06F5F7F4F8F4F9F4F089557FDBC
:1008C0009058440F551F59F05F3F71F04795880FBE
:1008D00097FB991F61F09F3F79F087950895121655
:1008E00013061406551FF2CF4695F1DF08C0161601
:1008F00017061806991FF1CF8695710561050894B2
:100900000895E894BB2766277727CB0197F90895C8
:100910008ADF08F48FEF08950BD0C0CFB1DF28F045
:10092000B6DF18F0952309F0A2CFA7CF1124EACFA4
:10093000C6DFA0F3959FD1F3950F50E0551F629F3E
:10094000F001729FBB27F00DB11D639FAA27F00D28
:10095000B11DAA1F649F6627B00DA11D661F829F4F
:100960002227B00DA11D621F739FB00DA11D621F34
:10097000839FA00D611D221F749F3327A00D611D51
:10098000231F849F600D211D822F762F6A2F112433
:100990009F5750408AF0E1F088234AF0EE0FFF1F86
:1009A000BB1F661F771F881F91505040A9F79E3FBD
:1009B000510570F05CCFA6CF5F3FECF3983EDCF3BF
:1009C000869577956795B795F795E7959F5FC1F7FA
:1009D000FE2B880F911D9695879597F90895EE0F38
:1009E000FF1F0590F491E02D19940F931F93CF935F
:1009F000DF93EC018B01009731F46115710519F457
:100A000080E090E037C06EE070E081E090E064D07C
:100A1000FC010097A9F380E883830115110571F0AB
:100A20001387028781E8838380913E0290913F0281
:100A3000892B21F4F0933F02E0933E022097C9F006
:100A4000D187C087838182608383809140029091A7
:100A50004102892B71F4F0934102E09340028091AE
:100A6000420290914302892B21F4F0934302E093D8
:100A70004202CF01DF91CF911F910F9108950F9303
:100A80001F93CF93DF93E0914002F09141022381C5
:100A900021FF1BC0EC0100E010E089916091400251
:100AA00070914102DB011896ED91FC911997882312
:100AB00031F01995892B89F30FEF1FEFEECF8AE004
:100AC0001995892B11F4C80102C08FEF9FEFDF91B8
:100AD000CF911F910F9108950F931F93CF93DF93A1
:100AE000869F8001879F100D969F100D1124C801CD
:100AF0000DD0EC01009721F0A80160E070E02DD14D
:100B0000CE01DF91CF911F910F910895CF93DF9385
:100B10008230910510F482E090E0E0914602F0917D
:100B2000470220E030E0A0E0B0E0309739F14081AA
:100B3000518148175907B8F04817590771F4828155
:100B40009381109729F013969C938E9312972CC043
:100B5000909347028093460227C02115310531F05A
:100B60004217530718F0A901DB0101C0EF019A01F8
:100B7000BD01DF010280F381E02DD7CF21153105C2
:100B8000F9F0281B390B2430310580F48A819B81D0
:100B90006115710521F0FB019383828304C090935A
:100BA000470280934602FE01329644C0FE01E20FE6
:100BB000F31F8193919322503109398328833AC0DE
:100BC0002091440230914502232B41F420910202EE
:100BD0003091030230934502209344022091000299
:100BE000309101022115310541F42DB73EB74091F6
:100BF000040250910502241B350BE0914402F09150
:100C00004502E217F307A0F42E1B3F0B2817390704
:100C100078F0AC014E5F5F4F2417350748F04E0F58
:100C20005F1F50934502409344028193919302C009
:100C3000E0E0F0E0CF01DF91CF910895CF93DF9313
:100C4000009709F487C0FC01329713821282C09189
:100C50004602D0914702209781F420813181280FEC
:100C6000391F80914402909145028217930779F5CC
:100C7000F0934502E09344026DC0DE0120E030E0D5
:100C8000AE17BF0750F412964D915C9113979D01DA
:100C90004115510509F1DA01F3CFB383A2834081F5
:100CA0005181840F951F8A179B0771F48D919C9138
:100CB0001197840F951F02969183808312968D91D0
:100CC0009C911397938382832115310529F4F09326
:100CD0004702E09346023EC0D9011396FC93EE937F
:100CE00012974D915D91A40FB51FEA17FB0779F498
:100CF00080819181840F951F0296D90111969C9352
:100D00008E938281938113969C938E931297E0E049
:100D1000F0E08A819B81009719F0FE01EC01F9CF88
:100D2000CE01029628813981820F931F20914402BF
:100D3000309145022817390769F4309729F4109249
:100D400047021092460202C013821282D0934502DB
:100D5000C0934402DF91CF910895DC0101C06D93EF
:0C0D600041505040E0F70895F894FFCF98
:100D6C00000048022000F8616C6C00736572766FAD
:020D7C00000075
:00000001FF
