S00D00004E4F4445322E73726563BF
S113000071C000008FC000008DC000008BC00000D4
S113001089C000009EC0000085C0000083C00000AD
S113002081C000007FC000007DC000007BC00000D4
S113003079C0000077C0000075C0000073C00000E4
S113004071C000006FC000006DC000006BC00000F4
S113005069C0000067C0000065C0000063C0000004
S113006061C000005FC000005DC000005BC0000014
S113007059C0000057C0000055C0000053C0000024
S113008051C000004FC000004DC000004BC0000034
S113009049C0000047C0000045C0000043C0000044
S11300A041C000003FC000003DC000003BC0000054
S11300B039C0000037C0000035C0000033C0000064
S11300C031C000002FC000002DC000002BC0000074
S11300D029C0000027C0000025C0000023C0000084
S11300E021C0000011241FBECFEFD1E2DEBFCDBF7F
S11300F000E00CBF12E0A0E0B2E0EEE0F2E100E0CC
S11301000BBF02C007900D92A032B107D9F722E0CD
S1130110A0E2B2E001C01D92A134B207E1F79BD185
S11301200C9405096DCF8CE292E00895909322021D
S11301308093210260932302662341F084E292E0DB
S1130140FC0111922E2F281B2617D8F308959DC069
S113015008951F920F920FB60F9211248F9381E08E
S1130160809320028F910F900FBE0F901F901895CF
S1130170F8946C98EAE6F0E080818E7F8083808139
S113018082608083EC9A78940895A6D068E088E22F
S113019090E0CCDF4FEF50E064E680E684D04FEF90
S11301A050E064E680E77FD041E050E061E08BE21C
S11301B07AD040E050E060EE8FE075D0D9CF08955A
S11301C0CF93DF938CE261D0EC018CE25ED082703D
S11301D09927C170DD27C82BD92BCD2B99F38CE23D
S11301E054D080FF07C040E050E061E08CE25BD077
S11301F080E00CC08CE249D081FF07C040E050E0B1
S113020062E08CE250D081E001C08FEFDF91CF91AA
S113021008951F93CF93DF9380912002882361F187
S113022010922002CDDFC82FC295C07F82E68C0FCA
S11302308EDF81E68C0F8BDF28E0829FC0011124C2
S113024090932D0280932C0285E68C0F80DF8F70B3
S113025080932E02882391F010E0CEE2D2E086E66D
S1130260810F75DFE12FF0E0E45DFD4F83831F5FB5
S113027088811817A0F304C080E003C081E001C0A6
S113028081E0DF91CF911F910895CF93C82F33D090
S113029083E025D08C2F23D027D0C82F2ED08C2FAD
S11302A090E0CF9108951F93CF93DF93182FD62F0B
S11302B0C42F21D085E013D0812F11D08D2F0FD0E2
S11302C08C2F0DD01AD0DF91CF911F91089513D0A8
S11302D080EC05D012C0089512D0F9CF08958EBDD8
S11302E00DB407FEFDCF089580E0F9DF0DB407FEDD
S11302F0FDCF8EB508952F9808952F9A0895209ACA
S11303008CB581608CBD84B1866884B98CB58065F8
S11303108CBDF3CF0895E0ECF0E0908195FFFDCF24
S11303208093C6000895E0ECF0E080818823ECF728
S11303308091C60090E008951092C50087E68093EE
S1130340C40088E18093C1008EE08093C20063E919
S113035071E08BE891E0F5C20895CF93DF93809824
S1130360EAE7F0E0808187608083ACE7B0E080E476
S11303708C938C918C93CBE7D0E08881877F8883A2
S113038080818062808387E088838C9180628C93F3
S1130390808180688083808180648083DF91CF91B5
S11303A0089560E070E080EA91E494D060E070E049
S11303B080EC9FE379C00895CF92DF92EF92FF9291
S11303C0BC018C599F4F893C910598F5882777FD8E
S11303D08095982F9FD19B01AC0160E070E088EC80
S11303E092E494D020E030E048E453E4F8D029E9E2
S11303F039E949E95FE342D226E636E646E65FE3B9
S113040086D06B017C0126E636E646E65FE332D20F
S1130410882394F026E636E646E050E4C701B601A8
S1130420DAD0181664F0C701B6013ED081E090E03E
S113043008C08FEF9FEF05C080E090E002C080E02D
S113044090E0FF90EF90DF90CF900895F89474DFE0
S11304509CDE78940895FADF86E092E0CDD27DDFC9
S1130460A0DF09E710E0CCE0D2E0D3DE882339F046
S11304705ADEFC018381992787FD90959DDFF80161
S113048080811F928F93DF93CF93A5D28FEF99E64C
S1130490E8E181509040E040E1F700C000000F9097
S11304A00F900F900F90E1CF20E030E04AE751E445
S11304B0E5D1FDD07093990060939800089520E0F1
S11304C030E04AE751E4DAD1F2D0709397006093B8
S11304D0960008956B9AE0E9F0E020812E7F208356
S11304E0208122602083A1E9B0E02C9128612C9323
S11304F020812068208320812F7B20832C912560FC
S11305002C932C912D7F2C93DACF08955058BB2730
S1130510AA270ED075C166D130F06BD120F031F42A
S11305209F3F11F41EF45BC10EF4E095E7FB51C14B
S1130530E92F77D180F3BA17620773078407950709
S113054018F071F49EF58FC10EF4E0950B2EBA2FBE
S1130550A02D0B01B90190010C01CA01A0011124C5
S1130560FF27591B99F0593F50F4503E68F11A1671
S1130570F040A22F232F342F4427585FF3CF469502
S113058037952795A795F0405395C9F77EF41F1624
S1130590BA0B620B730B840BBAF09150A1F0FF0FEE
S11305A0BB1F661F771F881FC2F70EC0BA0F621FDA
S11305B0731F841F48F4879577956795B795F795CA
S11305C09E3F08F0B3CF9395880F08F09927EE0F5C
S11305D0979587950895D9D008F481E008950CD0B3
S11305E00FC107D140F0FED030F021F45F3F19F085
S11305F0F0C0511139C1F3C014D198F39923C9F350
S11306005523B1F3951B550BBB27AA276217730714
S1130610840738F09F5F5F4F220F331F441FAA1FC8
S1130620A9F333D00E2E3AF0E0E830D09150504088
S1130630E695001CCAF729D0FE2F27D0660F771F36
S1130640881FBB1F261737074807AB07B0E809F018
S1130650BB0B802DBF01FF2793585F4F2AF09E3FAD
S1130660510568F0B6C000C15F3FECF3983EDCF37F
S1130670869577956795B795F7959F5FC9F7880F26
S1130680911D9695879597F90895E1E0660F771F78
S1130690881FBB1F621773078407BA0720F0621B09
S11306A0730B840BBA0BEE1F88F7E095089504D002
S11306B06894B111D9C00895BCD088F09F5790F0C8
S11306C0B92F9927B751A0F0D1F0660F771F881F73
S11306D0991F1AF0BA95C9F712C0B13081F0C3D08E
S11306E0B1E00895C0C0672F782F8827B85F39F02C
S11306F0B93FCCF3869577956795B395D9F73EF4D2
S113070090958095709561957F4F8F4F9F4F089579
S1130710E89409C097FB3EF4909580957095619597
S11307207F4F8F4F9F4F9923A9F0F92F96E9BB274D
S11307309395F695879577956795B795F111F8CFC9
S1130740FAF4BB0F11F460FF1BC06F5F7F4F8F4F34
S11307509F4F16C0882311F096E911C0772321F02A
S11307609EE8872F762F05C0662371F096E8862FC2
S113077070E060E02AF09A95660F771F881FDAF719
S1130780880F9695879597F90895990F0008550F46
S1130790AA0BE0E8FEEF16161706E807F907C0F003
S11307A012161306E407F50798F0621B730B840B0B
S11307B0950B39F40A2661F0232B242B252B21F4E5
S11307C008950A2609F4A140A6958FEF811D811D85
S11307D0089597F99F6780E870E060E008959FEFBF
S11307E080EC089500240A941616170618060906C4
S11307F0089500240A941216130614060506089593
S1130800092E0394000C11F4882352F0BB0F40F41A
S1130810BF2B11F460FF04C06F5F7F4F8F4F9F4F5A
S1130820089557FD9058440F551F59F05F3F71F0DC
S11308304795880F97FB991F61F09F3F79F0879543
S11308400895121613061406551FF2CF4695F1DFCC
S113085008C0161617061806991FF1CF869571055C
S1130860610508940895E894BB2766277727CB0190
S113087097F908958ADF08F48FEF08950BD0C0CF5D
S1130880B1DF28F0B6DF18F0952309F0A2CFA7CF87
S11308901124EACFC6DFA0F3959FD1F3950F50E062
S11308A0551F629FF001729FBB27F00DB11D639F1E
S11308B0AA27F00DB11DAA1F649F6627B00DA11DC4
S11308C0661F829F2227B00DA11D621F739FB00D6A
S11308D0A11D621F839FA00D611D221F749F3327DA
S11308E0A00D611D231F849F600D211D822F762F73
S11308F06A2F11249F5750408AF0E1F088234AF070
S1130900EE0FFF1FBB1F661F771F881F91505040BB
S1130910A9F79E3F510570F05CCFA6CF5F3FECF383
S1130920983EDCF3869577956795B795F795E795A7
S11309309F5FC1F7FE2B880F911D9695879597F9B8
S113094008950F931F93CF93DF93EC018B010097CE
S113095031F46115710519F480E090E037C06EE060
S113096070E081E090E063D2FC010097A9F380E895
S113097083830115110571F01387028781E883834E
S11309808091370290913802892B21F4F093380238
S1130990E09337022097C9F0D187C08783818260B2
S11309A083838091390290913A02892B71F4F093F8
S11309B03A02E093390280913B0290913C02892BE8
S11309C021F4F0933C02E0933B02CF01DF91CF91FD
S11309D01F910F910895CF93DF93CDB7DEB7FE013A
S11309E0369661917191AF018091390290913A02EA
S11309F030D0DF91CF9108950F931F93CF93DF935E
S1130A00E0913902F0913A02238121FF1BC0EC01ED
S1130A1000E010E089916091390270913A02DB01A3
S1130A201896ED91FC911997882331F01995892B2B
S1130A3089F30FEF1FEFEECF8AE01995892B11F49C
S1130A40C80102C08FEF9FEFDF91CF911F910F91EB
S1130A5008952F923F924F925F926F927F928F925E
S1130A609F92AF92BF92CF92DF92EF92FF920F9339
S1130A701F93CF93DF93CDB7DEB72C970FB6F894BF
S1130A80DEBF0FBECDBF7C016B018A01FC01178262
S1130A901682838181FFB0C1CE0101964C01F7011A
S1130AA09381F60193FD859193FF81916F018823D2
S1130AB009F49EC1853239F493FD859193FF8191A8
S1130AC06F01853221F4B70190E00FD3E8CF512CA8
S1130AD0312C20E02032A0F48B3269F030F48032E3
S1130AE059F0833269F420612CC08D3239F080339F
S1130AF039F4216026C02260246023C0286021C00C
S1130B0027FD27C030ED380F3A3078F426FF06C0B1
S1130B10FAE05F9E300D1124532E13C08AE0389EF4
S1130B20300D1124332E20620CC08E3221F426FDA8
S1130B305FC1206406C08C3611F4206802C0883678
S1130B4041F4F60193FD859193FF81916F01811129
S1130B50C1CF982F9F7D9554933028F40C5F1F4F7D
S1130B60FFE3F9830DC0833631F0833771F08335A9
S1130B7009F057C021C0F801808189830E5F1F4F9F
S1130B8044244394512C540114C03801F2E06F0EF4
S1130B90711CF801A080B18026FF03C0652D70E0B0
S1130BA002C06FEF7FEFC5012C8794D22C01830123
S1130BB02C852F77222E16C03801F2E06F0E711C9F
S1130BC0F801A080B18026FF03C0652D70E002C04B
S1130BD06FEF7FEFC5012C876BD22C012C85206829
S1130BE0222E830123FC19C0832D90E04816590658
S1130BF0A0F4B70180E290E078D23A94F5CFF50101
S1130C0027FC859127FE81915F01B70190E06DD2A9
S1130C1031103A94F1E04F1A51084114510479F714
S1130C20DEC0843611F0893631F5F80127FF07C09C
S1130C3060817181828193810C5F1F4F08C0608144
S1130C407181882777FD8095982F0E5F1F4F2F762F
S1130C50B22E97FF09C090958095709561957F4F4E
S1130C608F4F9F4F2068B22E2AE030E0A4016FD24C
S1130C70A82EA81843C0853729F42F7EB22E2AE067
S1130C8030E025C0F22FF97FBF2E8F36C1F018F463
S1130C90883579F0ADC0803719F0883721F0A8C0C5
S1130CA02F2F2061B22EB4FE0DC08B2D8460B82E80
S1130CB009C024FF0AC09F2F9660B92E06C028E001
S1130CC030E005C020E130E002C020E132E0F8016C
S1130CD0B7FE07C060817181828193810C5F1F4FD1
S1130CE006C06081718180E090E00E5F1F4FA40117
S1130CF02ED2A82EA818FB2DFF77BF2EB6FE0BC050
S1130D002B2D2E7FA51450F4B4FE0AC0B2FC08C0EB
S1130D102B2D2E7E05C07A2C2B2D03C07A2C01C0DE
S1130D20752C24FF0DC0FE01EA0DF11D8081803376
S1130D3011F4297E09C022FF06C07394739404C081
S1130D40822F867809F0739423FD12C020FF06C019
S1130D505A2C731418F4530C5718732C731460F42E
S1130D60B70180E290E02C87C0D173942C85F6CF34
S1130D70731410F4371801C0312C24FF11C0B701CB
S1130D8080E390E02C87B1D12C8522FF16C021FF8F
S1130D9003C088E590E002C088E790E0B7010CC08A
S1130DA0822F867851F021FD02C080E201C08BE2DF
S1130DB027FD8DE2B70190E098D1A51430F4B70176
S1130DC080E390E092D15A94F8CFAA94F401EA0D0A
S1130DD0F11D8081B70190E088D1A110F6CF3320B6
S1130DE009F45DCEB70180E290E07FD13A94F7CF69
S1130DF0F7018681978102C08FEF9FEF2C960FB683
S1130E00F894DEBF0FBECDBFDF91CF911F910F913C
S1130E10FF90EF90DF90CF90BF90AF909F908F9016
S1130E207F906F905F904F903F902F9008950F9315
S1130E301F93CF93DF93869F8001879F100D969F0A
S1130E40100D1124C8010DD0EC01009721F0A80168
S1130E5060E070E038D1CE01DF91CF911F910F9106
S1130E600895CF93DF938230910510F482E090E0EF
S1130E70E0913F02F091400220E030E0A0E0B0E0D9
S1130E80309739F14081518148175907B8F0481714
S1130E90590771F482819381109729F013969C93DA
S1130EA08E9312972CC09093400280933F0227C0E8
S1130EB02115310531F04217530718F0A901DB0160
S1130EC001C0EF019A01BD01DF010280F381E02D31
S1130ED0D7CF21153105F9F0281B390B2430310502
S1130EE080F48A819B816115710521F0FB01938354
S1130EF0828304C09093400280933F02FE013296A5
S1130F0044C0FE01E20FF31F8193919322503109F3
S1130F10398328833AC020913D0230913E02232B2D
S1130F2041F4209102023091030230933E02209357
S1130F303D0220910002309101022115310541F456
S1130F402DB73EB74091040250910502241B350B86
S1130F50E0913D02F0913E02E217F307A0F42E1B4C
S1130F603F0B2817390778F0AC014E5F5F4F241709
S1130F70350748F04E0F5F1F50933E0240933D02E9
S1130F808193919302C0E0E0F0E0CF01DF91CF9133
S1130F900895CF93DF93009709F487C0FC0132973B
S1130FA013821282C0913F02D0914002209781F4B3
S1130FB020813181280F391F80913D0290913E029A
S1130FC08217930779F5F0933E02E0933D026DC0DA
S1130FD0DE0120E030E0AE17BF0750F412964D91C9
S1130FE05C9113979D014115510509F1DA01F3CF85
S1130FF0B383A28340815181840F951F8A179B0775
S113100071F48D919C911197840F951F0296918391
S1131010808312968D919C911397938382832115DB
S1131020310529F4F0934002E0933F023EC0D90118
S11310301396FC93EE9312974D915D91A40FB51FF7
S1131040EA17FB0779F480819181840F951F02963A
S1131050D90111969C938E938281938113969C93CC
S11310608E931297E0E0F0E08A819B81009719F05B
S1131070FE01EC01F9CFCE01029628813981820F5D
S1131080931F20913D0230913E022817390769F4DD
S1131090309729F41092400210923F0202C013824A
S11310A01282D0933E02C0933D02DF91CF91089506
S11310B0FC010590615070400110D8F7809590951F
S11310C08E0F9F1F0895DC0101C06D934150504065
S11310D0E0F70895FC016150704001900110D8F7C9
S11310E0809590958E0F9F1F08950F931F93CF9314
S11310F0DF93182F092FEB018B8181FD03C08FEF44
S11311009FEF20C082FF10C04E815F812C813D8102
S1131110421753077CF4E881F9819F012F5F3F4F09
S113112039832883108306C0E885F985812F1995B2
S1131130892B29F72E813F812F5F3F4F3F832E83D9
S1131140812F902FDF91CF911F910F910895FA0174
S1131150AA27283051F1203181F1E8946F936E7FF2
S11311606E5F7F4F8F4F9F4FAF4FB1E03ED0B4E0E3
S11311703CD0670F781F891F9A1FA11D680F791F24
S11311808A1F911DA11D6A0F711D811D911DA11D35
S113119020D009F468943F912AE0269F1124301945
S11311A0305D3193DEF6CF010895462F4770405DE0
S11311B04193B3E00FD0C9F7F6CF462F4F70405D8F
S11311C04A3318F0495D31FD4052419302D0A9F7EA
S11311D0EACFB4E0A6959795879577956795BA95E4
S11311E0C9F700976105710508959B01AC010A2EAA
S11311F006945795479537952795BA95C9F7620F81
S1111200731F841F951FA01D0895F894FFCF3F
S113120E00004102200048616C6C6F0056616C75E1
S113121E65206F662049522069733A0925690A00D0
S9030000FC
