:1000000071C000008EC000008CC000008AC00000DB
:1000100088C000009DC0000084C0000082C00000B5
:1000200080C000007EC000007CC000007AC00000DC
:1000300078C0000076C0000074C0000072C00000EC
:1000400070C000006EC000006CC000006AC00000FC
:1000500068C0000066C0000064C0000062C000000C
:1000600060C000005EC000005CC000005AC000001C
:1000700058C0000056C0000054C0000052C000002C
:1000800050C000004EC000004CC000004AC000003C
:1000900048C0000046C0000044C0000042C000004C
:1000A00040C000003EC000003CC000003AC000005C
:1000B00038C0000036C0000034C0000032C000006C
:1000C00030C000002EC000002CC000002AC000007C
:1000D00028C0000026C0000024C0000022C000008C
:1000E00020C0000011241FBECFEFD1E2DEBFCDBF84
:1000F00000E00CBF12E0A0E0B2E0EAEFFBE000E0BD
:100100000BBF02C007900D92A630B107D9F722E0CD
:10011000A6E0B2E001C01D92A732B207E1F776D1A6
:100120006AC56ECF82E192E00895909308028093B1
:10013000070260930902662341F08AE092E0FC0125
:1001400011922E2F281B2617D8F308959DC00895CD
:100150001F920F920FB60F9211248F9381E080931C
:1001600006028F910F900FBE0F901F901895F89474
:100170006C98EAE6F0E080818E7F808380818260E7
:100180008083EC9A78940895A6D068E088E290E0A5
:10019000CCDF4FEF50E064E680E684D04FEF50E0D4
:1001A00064E680E77FD041E050E061E08BE27AD006
:1001B00040E050E060EE8FE075D0D9CF0895CF9346
:1001C000DF938CE261D0EC018CE25ED082709927E3
:1001D000C170DD27C82BD92BCD2B99F38CE254D0DD
:1001E00080FF07C040E050E061E08CE25BD080E03F
:1001F0000CC08CE249D081FF07C040E050E062E0D3
:100200008CE250D081E001C08FEFDF91CF91089553
:100210001F93CF93DF9380910602882361F11092A0
:100220000602CDDFC82FC295C07F82E68C0F8EDF1D
:1002300081E68C0F8BDF28E0829FC0011124909310
:1002400013028093120285E68C0F80DF8F708093FB
:100250001402882391F010E0C4E1D2E086E6810F19
:1002600075DFE12FF0E0EE5EFD4F83831F5F888135
:100270001817A0F304C080E003C081E001C081E052
:10028000DF91CF911F910895CF93C82F33D083E092
:1002900025D08C2F23D027D0C82F2ED08C2F90E0A4
:1002A000CF9108951F93CF93DF93182FD62FC42F8C
:1002B00021D085E013D0812F11D08D2F0FD08C2F1E
:1002C0000DD01AD0DF91CF911F91089513D080ECFB
:1002D00005D012C0089512D0F9CF08958EBD0DB487
:1002E00007FEFDCF089580E0F9DF0DB407FEFDCFD6
:1002F0008EB508952F9808952F9A0895209A8CB559
:1003000081608CBD84B1866884B98CB580658CBDF4
:10031000F3CF0895E0ECF0E0908195FFFDCF80935E
:10032000C6000895E0ECF0E080818823ECF780912E
:10033000C60090E008951092C50087E68093C4003F
:1003400088E18093C1008EE08093C20062E971E091
:100350008AE891E0BEC2089560E070E080EA91E42E
:1003600081D060E070E080EC9FE366C00895CF929A
:10037000DF92EF92FF92BC018C599F4F893C91050F
:1003800098F5882777FD8095982F8CD19B01AC013B
:1003900060E070E088EC92E481D020E030E048E456
:1003A00053E4E5D029E939E949E95FE32FD226E6AC
:1003B00036E646E65FE373D06B017C0126E636E65F
:1003C00046E65FE31FD2882394F026E636E646E051
:1003D00050E4C701B601C7D0181664F0C701B601D2
:1003E0002BD081E090E008C08FEF9FEF05C080E048
:1003F00090E002C080E090E0FF90EF90DF90CF901F
:100400000895F89498DFC0DE78940895FADFA4DFA9
:100410002FEF83ED90E3215080409040E1F700C042
:100420000000F6DE8823E9F37DDEFC018381992755
:1004300087FD90959CDFF5CF20E030E04AE751E45E
:10044000E5D1FDD07093990060939800089520E065
:1004500030E04AE751E4DAD1F2D07093970060932C
:10046000960008956B9AE0E9F0E020812E7F2083CA
:10047000208122602083A1E9B0E02C9128612C9397
:1004800020812068208320812F7B20832C91256070
:100490002C932C912D7F2C93DACF08955058BB27A5
:1004A000AA270ED075C166D130F06BD120F031F49F
:1004B0009F3F11F41EF45BC10EF4E095E7FB51C1C0
:1004C000E92F77D180F3BA1762077307840795077E
:1004D00018F071F49EF58FC10EF4E0950B2EBA2F33
:1004E000A02D0B01B90190010C01CA01A00111243A
:1004F000FF27591B99F0593F50F4503E68F11A16E6
:10050000F040A22F232F342F4427585FF3CF469576
:1005100037952795A795F0405395C9F77EF41F1698
:10052000BA0B620B730B840BBAF09150A1F0FF0F62
:10053000BB1F661F771F881FC2F70EC0BA0F621F4E
:10054000731F841F48F4879577956795B795F7953E
:100550009E3F08F0B3CF9395880F08F09927EE0FD0
:10056000979587950895D9D008F481E008950CD027
:100570000FC107D140F0FED030F021F45F3F19F0F9
:10058000F0C0511139C1F3C014D198F39923C9F3C4
:100590005523B1F3951B550BBB27AA276217730789
:1005A000840738F09F5F5F4F220F331F441FAA1F3D
:1005B000A9F333D00E2E3AF0E0E830D091505040FD
:1005C000E695001CCAF729D0FE2F27D0660F771FAB
:1005D000881FBB1F261737074807AB07B0E809F08D
:1005E000BB0B802DBF01FF2793585F4F2AF09E3F22
:1005F000510568F0B6C000C15F3FECF3983EDCF3F4
:10060000869577956795B795F7959F5FC9F7880F9A
:10061000911D9695879597F90895E1E0660F771FEC
:10062000881FBB1F621773078407BA0720F0621B7D
:10063000730B840BBA0BEE1F88F7E095089504D076
:100640006894B111D9C00895BCD088F09F5790F03C
:10065000B92F9927B751A0F0D1F0660F771F881FE7
:10066000991F1AF0BA95C9F712C0B13081F0C3D002
:10067000B1E00895C0C0672F782F8827B85F39F0A0
:10068000B93FCCF3869577956795B395D9F73EF446
:1006900090958095709561957F4F8F4F9F4F0895EE
:1006A000E89409C097FB3EF490958095709561950C
:1006B0007F4F8F4F9F4F9923A9F0F92F96E9BB27C2
:1006C0009395F695879577956795B795F111F8CF3E
:1006D000FAF4BB0F11F460FF1BC06F5F7F4F8F4FA9
:1006E0009F4F16C0882311F096E911C0772321F09F
:1006F0009EE8872F762F05C0662371F096E8862F37
:1007000070E060E02AF09A95660F771F881FDAF78D
:10071000880F9695879597F90895990F0008550FBA
:10072000AA0BE0E8FEEF16161706E807F907C0F077
:1007300012161306E407F50798F0621B730B840B7F
:10074000950B39F40A2661F0232B242B252B21F459
:1007500008950A2609F4A140A6958FEF811D811DF9
:10076000089597F99F6780E870E060E008959FEF33
:1007700080EC089500240A94161617061806090638
:10078000089500240A941216130614060506089507
:10079000092E0394000C11F4882352F0BB0F40F48F
:1007A000BF2B11F460FF04C06F5F7F4F8F4F9F4FCF
:1007B000089557FD9058440F551F59F05F3F71F051
:1007C0004795880F97FB991F61F09F3F79F08795B8
:1007D0000895121613061406551FF2CF4695F1DF41
:1007E00008C0161617061806991FF1CF86957105D1
:1007F000610508940895E894BB2766277727CB0105
:1008000097F908958ADF08F48FEF08950BD0C0CFD1
:10081000B1DF28F0B6DF18F0952309F0A2CFA7CFFB
:100820001124EACFC6DFA0F3959FD1F3950F50E0D6
:10083000551F629FF001729FBB27F00DB11D639F92
:10084000AA27F00DB11DAA1F649F6627B00DA11D38
:10085000661F829F2227B00DA11D621F739FB00DDE
:10086000A11D621F839FA00D611D221F749F33274E
:10087000A00D611D231F849F600D211D822F762FE7
:100880006A2F11249F5750408AF0E1F088234AF0E4
:10089000EE0FFF1FBB1F661F771F881F9150504030
:1008A000A9F79E3F510570F05CCFA6CF5F3FECF3F8
:1008B000983EDCF3869577956795B795F795E7951C
:1008C0009F5FC1F7FE2B880F911D9695879597F92D
:1008D00008950F931F93CF93DF93EC018B01009743
:1008E00031F46115710519F480E090E037C06EE0D5
:1008F00070E081E090E037D0FC010097A9F380E838
:1009000083830115110571F01387028781E88383C2
:1009100080911D0290911E02892B21F4F0931E02FA
:10092000E0931D022097C9F0D187C0878381826040
:10093000838380911F0290912002892B71F4F093A0
:100940002002E0931F028091210290912202892BC4
:1009500021F4F0932202E0932102CF01DF91CF91A5
:100960001F910F9108950F931F93CF93DF93869F4D
:100970008001879F100D969F100D1124C8010DD086
:10098000EC01009721F0A80160E070E02DD1CE01CC
:10099000DF91CF911F910F910895CF93DF93823014
:1009A000910510F482E090E0E0912502F09126029A
:1009B00020E030E0A0E0B0E0309739F14081518193
:1009C00048175907B8F04817590771F48281938185
:1009D000109729F013969C938E9312972CC09093A6
:1009E00026028093250227C02115310531F04217D8
:1009F000530718F0A901DB0101C0EF019A01BD0105
:100A0000DF010280F381E02DD7CF21153105F9F008
:100A1000281B390B2430310580F48A819B816115B4
:100A2000710521F0FB019383828304C09093260219
:100A300080932502FE01329644C0FE01E20FF31FAF
:100A40008193919322503109398328833AC02091B0
:100A5000230230912402232B41F420910202309191
:100A6000030230932402209323022091000230914C
:100A700001022115310541F42DB73EB74091040222
:100A800050910502241B350BE0912302F0912402C2
:100A9000E217F307A0F42E1B3F0B2817390778F055
:100AA000AC014E5F5F4F2417350748F04E0F5F1FB4
:100AB00050932402409323028193919302C0E0E07B
:100AC000F0E0CF01DF91CF910895CF93DF930097AE
:100AD00009F487C0FC01329713821282C09125026B
:100AE000D0912602209781F420813181280F391F6F
:100AF00080912302909124028217930779F5F09355
:100B00002402E09323026DC0DE0120E030E0AE1746
:100B1000BF0750F412964D915C9113979D014115BA
:100B2000510509F1DA01F3CFB383A28340815181EA
:100B3000840F951F8A179B0771F48D919C911197D3
:100B4000840F951F02969183808312968D919C91BC
:100B50001397938382832115310529F4F09326029C
:100B6000E09325023EC0D9011396FC93EE931297B1
:100B70004D915D91A40FB51FEA17FB0779F48081B1
:100B80009181840F951F0296D90111969C938E93A3
:100B90008281938113969C938E931297E0E0F0E00C
:100BA0008A819B81009719F0FE01EC01F9CFCE01FB
:100BB000029628813981820F931F20912302309160
:100BC00024022817390769F4309729F41092260275
:100BD0001092250202C013821282D0932402C09385
:100BE0002302DF91CF910895DC0101C06D93415044
:0A0BF0005040E0F70895F894FFCF9D
:060BFA00000027022000AC
:00000001FF
