S00D00004E4F4445322E73726563BF
S113000071C000008FC000008DC000008BC00000D4
S113001089C00000F3C0000085C0000083C0000058
S113002081C000007FC000007DC000007BC00000D4
S113003079C0000077C0000075C0000073C00000E4
S113004071C000006FC000006DC000006BC00000F4
S113005069C0000067C0000065C0000063C0000004
S113006061C000005FC000005DC000005BC0000014
S113007059C0000057C0000055C0000053C0000024
S113008051C000004FC000004DC000004BC0000034
S113009049C0000047C0000045C0000043C0000044
S11300A041C000003FC000003DC000003BC0000054
S11300B039C0000037C0000035C0000033C0000064
S11300C031C000002FC000002DC000002BC0000074
S11300D029C0000027C0000025C0000023C0000084
S11300E021C0000011241FBECFEFD1E2DEBFCDBF7F
S11300F000E00CBF12E0A0E0B2E0E6E4F3E100E0CF
S11301000BBF02C007900D92AA3EB107D9F723E0B6
S1130110AAEEB2E001C01D92AB30B207E1F748D2BB
S11301200C94A1096DCF9093EC028093EB02609341
S1130130ED02662341F08EEE92E0FC0111922E2F27
S1130140281B2617D8F3089527C10895CF92DF926C
S1130150EF92FF920F931F93CF93DF93CDB7DEB748
S11301602B970FB6F894DEBF0FBECDBFE982FA829B
S1130170C02E0B831C832D833E834F83588769874E
S11301807A878B871F920F938A818F9389818F93AC
S113019086E092E09F938F93BAD40F900F900F90C4
S11301A00F900F900F900023D1F07E0184E0E80EB1
S11301B0F11CD12C0AE112E0F70121917F01822F79
S11301C0992787FD90959F932F931F930F939FD407
S11301D0D3940F900F900F900F90DC10EDCF2B96CF
S11301E00FB6F894DEBF0FBECDBFDF91CF911F9144
S11301F00F91FF90EF90DF90CF9008951F920F9290
S11302000FB60F9211248F9381E08093EA028F91AD
S11302100F900FBE0F901F901895F8946C98EAE613
S1130220F0E080818E7F8083808182608083EC9A7D
S113023078940895DBD068E088E290E074DF4FEFB3
S113024050E064E680E6B6D04FEF50E064E680E725
S1130250B1D041E050E061E08BE2ACD040E050E04E
S113026060EE8FE0A7D0D9DF8EE096D09F938F9376
S11302708EE192E09F938F934AD48FE292E058D418
S11302800F900F900F900F900895CF93DF938CE20F
S113029083D0EC018CE280D082709927C170DD2775
S11302A0C82BD92BCD2B99F38CE276D080FF07C0D5
S11302B040E050E061E08CE27DD080E00CC08CE254
S11302C06BD081FF07C040E050E062E08CE272D066
S11302D081E001C08FEFDF91CF910895EF92FF92FB
S11302E00F931F93CF93DF938091EA02882309F43D
S11302F04BC01092EA02C9DFC82FC295C07F82E6C4
S11303008C0F22DF81E68C0F1FDF28E0829FC00163
S113031011249093F7028093F60285E68C0F14DF84
S11303208F708093F802882379F010E0C8EFD2E050
S113033086E6810F09DFE12FF0E0EA50FD4F838369
S11303401F5F88811817A0F381E492E09F938F9335
S1130350DED3E090F602F090F7020091F8021091DB
S1130360F9022091FA023091FB024091FC02509173
S1130370FD026091FE027091FF0280910003E6DEAF
S11303800F900F9081E001C080E0DF91CF911F9129
S11303900F91FF90EF900895CF93C82F36D083E04C
S11303A028D08C2F26D02AD0C82F31D08C2F90E083
S11303B0CF9108951F93CF93DF93182FD62FC42F77
S11303C024D085E016D0812F14D08D2F12D08C2FFD
S11303D010D01DD0DF91CF911F91089584E992E050
S11303E0A7D313D080EC05D012C0089512D0F6CF55
S11303F008958EBD0DB407FEFDCF089580E0F9DFAA
S11304000DB407FEFDCF8EB508952F9808952F9A49
S11304100895209A8CB581608CBD84B1866884B9B6
S11304208CB580658CBDF3DF86EA92E081C30895C4
S1130430E0ECF0E0908195FFFDCF8093C600089535
S1130440E0ECF0E080818823ECF78091C60090E036
S113045008951092C50087E68093C40088E18093D4
S1130460C1008EE08093C20060E272E088E192E015
S113047004C30895CF93DF938098EAE7F0E0808186
S113048087608083ACE7B0E080E48C938C918C939C
S1130490CBE7D0E08881877F8883808180628083F6
S11304A087E088838C9180628C93808180688083CC
S11304B0808180648083DF91CF910895EAE7F0E042
S11304C0808180648083808186FDFDCF80E090E020
S11304D00895CF92DF92EF92FF92BC018C599F4F07
S11304E0893C910508F046C0882777FD8095982FB0
S11304F0ADD19B01AC0160E070E088EC92E4A2D045
S113050020E030E048E453E406D129E939E949E937
S11305105FE350D226E636E646E65FE394D06B010D
S11305207C0126E636E646E65FE340D288232CF1DA
S113053026E636E646E050E4C701B601E8D01816D0
S1130540FCF0C701B6014CD020E030E048EC52E4A6
S1130550C701B6012FD247D17F936F9385EC92E008
S11305609F938F93D4D20F900F900F900F9081E0B0
S113057090E008C08FEF9FEF05C080E090E002C0DC
S113058080E090E0FF90EF90DF90CF90089560E0DE
S113059070E080EA91E43AD080E090E09ACF089548
S11305A0F89448DE56DF88EC92E0C2D2789408953D
S11305B0F7DF8CED92E0BCD2EADF5CDF09E710E004
S11305C0C2EED2E08BDE7ADFF80180811F928F9336
S11305D0DF93CF939CD20F900F900F900F90F2CF98
S11305E020E030E04AE751E4E5D1FDD07093990072
S11305F060939800089520E030E04AE751E4DAD1AE
S1130600F2D0709397006093960008956B9AE0E996
S1130610F0E020812E7F2083208122602083A1E9C5
S1130620B0E02C9128612C932081206820832081C4
S11306302F7B20832C9125602C932C912D7F2C9340
S1130640DACF08955058BB27AA270ED075C166D1BA
S113065030F06BD120F031F49F3F11F41EF45BC1F4
S11306600EF4E095E7FB51C1E92F77D180F3BA1777
S1130670620773078407950718F071F49EF58FC11C
S11306800EF4E0950B2EBA2FA02D0B01B9019001A9
S11306900C01CA01A0011124FF27591B99F0593FED
S11306A050F4503E68F11A16F040A22F232F342F35
S11306B04427585FF3CF469537952795A795F04083
S11306C05395C9F77EF41F16BA0B620B730B840B98
S11306D0BAF09150A1F0FF0FBB1F661F771F881F50
S11306E0C2F70EC0BA0F621F731F841F48F48795A8
S11306F077956795B795F7959E3F08F0B3CF939597
S1130700880F08F09927EE0F979587950895D9D00B
S113071008F481E008950CD00FC107D140F0FED059
S113072030F021F45F3F19F0F0C0511139C1F3C02A
S113073014D198F39923C9F35523B1F3951B550BA1
S1130740BB27AA2762177307840738F09F5F5F4FA0
S1130750220F331F441FAA1FA9F333D00E2E3AF0E1
S1130760E0E830D091505040E695001CCAF729D0FB
S1130770FE2F27D0660F771F881FBB1F261737074A
S11307804807AB07B0E809F0BB0B802DBF01FF277A
S113079093585F4F2AF09E3F510568F0B6C000C1E0
S11307A05F3FECF3983EDCF3869577956795B795B4
S11307B0F7959F5FC9F7880F911D9695879597F9CF
S11307C00895E1E0660F771F881FBB1F6217730748
S11307D08407BA0720F0621B730B840BBA0BEE1F5D
S11307E088F7E095089504D06894B111D9C00895AC
S11307F0BCD088F09F5790F0B92F9927B751A0F03B
S1130800D1F0660F771F881F991F1AF0BA95C9F7A0
S113081012C0B13081F0C3D0B1E00895C0C0672FD9
S1130820782F8827B85F39F0B93FCCF38695779550
S11308306795B395D9F73EF4909580957095619539
S11308407F4F8F4F9F4F0895E89409C097FB3EF464
S113085090958095709561957F4F8F4F9F4F992309
S1130860A9F0F92F96E9BB279395F6958795779587
S11308706795B795F111F8CFFAF4BB0F11F460FF47
S11308801BC06F5F7F4F8F4F9F4F16C0882311F09F
S113089096E911C0772321F09EE8872F762F05C0B3
S11308A0662371F096E8862F70E060E02AF09A954E
S11308B0660F771F881FDAF7880F9695879597F943
S11308C00895990F0008550FAA0BE0E8FEEF1616DD
S11308D01706E807F907C0F012161306E407F50730
S11308E098F0621B730B840B950B39F40A2661F0A4
S11308F0232B242B252B21F408950A2609F4A14047
S1130900A6958FEF811D811D089597F99F6780E853
S113091070E060E008959FEF80EC089500240A944D
S11309201616170618060906089500240A941216C6
S11309301306140605060895092E0394000C11F4F9
S1130940882352F0BB0F40F4BF2B11F460FF04C0A6
S11309506F5F7F4F8F4F9F4F089557FD9058440FFF
S1130960551F59F05F3F71F04795880F97FB991F0A
S113097061F09F3F79F087950895121613061406C7
S1130980551FF2CF4695F1DF08C016161706180654
S1130990991FF1CF86957105610508940895E8942F
S11309A0BB2766277727CB0197F908958ADF08F4D8
S11309B08FEF08950BD0C0CFB1DF28F0B6DF18F069
S11309C0952309F0A2CFA7CF1124EACFC6DFA0F365
S11309D0959FD1F3950F50E0551F629FF001729FD0
S11309E0BB27F00DB11D639FAA27F00DB11DAA1FEF
S11309F0649F6627B00DA11D661F829F2227B00D3C
S1130A00A11D621F739FB00DA11D621F839FA00DC6
S1130A10611D221F749F3327A00D611D231F849F16
S1130A20600D211D822F762F6A2F11249F5750406D
S1130A308AF0E1F088234AF0EE0FFF1FBB1F661F08
S1130A40771F881F91505040A9F79E3F510570F0C1
S1130A505CCFA6CF5F3FECF3983EDCF386957795A9
S1130A606795B795F795E7959F5FC1F7FE2B880FBC
S1130A70911D9695879597F908950F931F93CF939A
S1130A80DF93EC018B01009731F46115710519F4C2
S1130A9080E090E037C06EE070E081E090E063D2E7
S1130AA0FC010097A9F380E883830115110571F017
S1130AB01387028781E88383809101039091020365
S1130AC0892B21F4F0930203E09301032097C9F0EA
S1130AD0D187C0878381826083838091030390914F
S1130AE00403892B71F4F0930403E09303038091CE
S1130AF0050390910603892B21F4F0930603E093F8
S1130B000503CF01DF91CF911F910F910895CF93EA
S1130B10DF93CDB7DEB7FE01369661917191AF01D7
S1130B20809103039091040330D0DF91CF91089515
S1130B300F931F93CF93DF93E0910303F09104038A
S1130B40238121FF1BC0EC0100E010E0899160913A
S1130B50030370910403DB011896ED91FC9119973E
S1130B60882331F01995892B89F30FEF1FEFEECF0E
S1130B708AE01995892B11F4C80102C08FEF9FEF09
S1130B80DF91CF911F910F9108952F923F924F9231
S1130B905F926F927F928F929F92AF92BF92CF9209
S1130BA0DF92EF92FF920F931F93CF93DF93CDB712
S1130BB0DEB72C970FB6F894DEBF0FBECDBF7C0115
S1130BC06B018A01FC0117821682838181FFB0C107
S1130BD0CE0101964C01F7019381F60193FD8591B5
S1130BE093FF81916F01882309F49EC1853239F402
S1130BF093FD859193FF81916F01853221F4B701B3
S1130C0090E00FD3E8CF512C312C20E02032A0F417
S1130C108B3269F030F4803259F0833269F4206108
S1130C202CC08D3239F0803339F4216026C0226023
S1130C30246023C0286021C027FD27C030ED380F71
S1130C403A3078F426FF06C0FAE05F9E300D112496
S1130C50532E13C08AE0389E300D1124332E2062A7
S1130C600CC08E3221F426FD5FC1206406C08C3690
S1130C7011F4206802C0883641F4F60193FD859191
S1130C8093FF81916F018111C1CF982F9F7D95545E
S1130C90933028F40C5F1F4FFFE3F9830DC08336B4
S1130CA031F0833771F0833509F057C021C0F80162
S1130CB0808189830E5F1F4F44244394512C540137
S1130CC014C03801F2E06F0E711CF801A080B180ED
S1130CD026FF03C0652D70E002C06FEF7FEFC501F2
S1130CE02C8794D22C0183012C852F77222E16C0B9
S1130CF03801F2E06F0E711CF801A080B18026FF6C
S1130D0003C0652D70E002C06FEF7FEFC5012C8733
S1130D106BD22C012C852068222E830123FC19C060
S1130D20832D90E048165906A0F4B70180E290E0C4
S1130D3078D23A94F5CFF50127FC859127FE81916D
S1130D405F01B70190E06DD231103A94F1E04F1A8F
S1130D5051084114510479F7DEC0843611F0893604
S1130D6031F5F80127FF07C0608171818281938189
S1130D700C5F1F4F08C060817181882777FD8095C3
S1130D80982F0E5F1F4F2F76B22E97FF09C09095B4
S1130D908095709561957F4F8F4F9F4F2068B22E3D
S1130DA02AE030E0A4016FD2A82EA81843C08537EA
S1130DB029F42F7EB22E2AE030E025C0F22FF97FED
S1130DC0BF2E8F36C1F018F4883579F0ADC0803766
S1130DD019F0883721F0A8C02F2F2061B22EB4FE5D
S1130DE00DC08B2D8460B82E09C024FF0AC09F2F2C
S1130DF09660B92E06C028E030E005C020E130E05E
S1130E0002C020E132E0F801B7FE07C060817181C1
S1130E10828193810C5F1F4F06C06081718180E0E5
S1130E2090E00E5F1F4FA4012ED2A82EA818FB2D10
S1130E30FF77BF2EB6FE0BC02B2D2E7FA51450F4CA
S1130E40B4FE0AC0B2FC08C02B2D2E7E05C07A2C3D
S1130E502B2D03C07A2C01C0752C24FF0DC0FE017C
S1130E60EA0DF11D8081803311F4297E09C022FF2F
S1130E7006C07394739404C0822F867809F0739427
S1130E8023FD12C020FF06C05A2C731418F4530C0F
S1130E905718732C731460F4B70180E290E02C8728
S1130EA0C0D173942C85F6CF731410F4371801C095
S1130EB0312C24FF11C0B70180E390E02C87B1D11D
S1130EC02C8522FF16C021FF03C088E590E002C0F4
S1130ED088E790E0B7010CC0822F867851F021FD9D
S1130EE002C080E201C08BE227FD8DE2B70190E0F1
S1130EF098D1A51430F4B70180E390E092D15A94CC
S1130F00F8CFAA94F401EA0DF11D8081B70190E0B5
S1130F1088D1A110F6CF332009F45DCEB70180E269
S1130F2090E07FD13A94F7CFF7018681978102C090
S1130F308FEF9FEF2C960FB6F894DEBF0FBECDBF98
S1130F40DF91CF911F910F91FF90EF90DF90CF90A1
S1130F50BF90AF909F908F907F906F905F904F90D5
S1130F603F902F9008950F931F93CF93DF93869F05
S1130F708001879F100D969F100D1124C8010DD07C
S1130F80EC01009721F0A80160E070E038D1CE01B7
S1130F90DF91CF911F910F910895CF93DF9382300A
S1130FA0910510F482E090E0E0910903F0910A03C6
S1130FB020E030E0A0E0B0E0309739F14081518189
S1130FC048175907B8F04817590771F4828193817B
S1130FD0109729F013969C938E9312972CC090939C
S1130FE00A038093090327C02115310531F0421704
S1130FF0530718F0A901DB0101C0EF019A01BD01FB
S1131000DF010280F381E02DD7CF21153105F9F0FE
S1131010281B390B2430310580F48A819B816115AA
S1131020710521F0FB019383828304C090930A032A
S113103080930903FE01329644C0FE01E20FF31FC0
S11310408193919322503109398328833AC02091A6
S1131050070330910803232B41F4209102023091BD
S11310600302309308032093070320910002309178
S113107001022115310541F42DB73EB74091040218
S113108050910502241B350BE0910703F0910803EE
S1131090E217F307A0F42E1B3F0B2817390778F04B
S11310A0AC014E5F5F4F2417350748F04E0F5F1FAA
S11310B050930803409307038193919302C0E0E0A7
S11310C0F0E0CF01DF91CF910895CF93DF930097A4
S11310D009F487C0FC01329713821282C09109037C
S11310E0D0910A03209781F420813181280F391F80
S11310F080910703909108038217930779F5F09381
S11311000803E09307036DC0DE0120E030E0AE1772
S1131110BF0750F412964D915C9113979D014115B0
S1131120510509F1DA01F3CFB383A28340815181E0
S1131130840F951F8A179B0771F48D919C911197C9
S1131140840F951F02969183808312968D919C91B2
S11311501397938382832115310529F4F0930A03AD
S1131160E09309033EC0D9011396FC93EE931297C2
S11311704D915D91A40FB51FEA17FB0779F48081A7
S11311809181840F951F0296D90111969C938E9399
S11311908281938113969C938E931297E0E0F0E002
S11311A08A819B81009719F0FE01EC01F9CFCE01F1
S11311B0029628813981820F931F20910703309171
S11311C008032817390769F4309729F410920A03A1
S11311D01092090302C013821282D0930803C093B1
S11311E00703DF91CF910895FC0105906150704091
S11311F00110D8F7809590958E0F9F1F0895DC01FC
S113120001C06D9341505040E0F70895FC016150D6
S1131210704001900110D8F7809590958E0F9F1F14
S113122008950F931F93CF93DF93182F092FEB018A
S11312308B8181FD03C08FEF9FEF20C082FF10C020
S11312404E815F812C813D81421753077CF4E881F4
S1131250F9819F012F5F3F4F39832883108306C094
S1131260E885F985812F1995892B29F72E813F81EE
S11312702F5F3F4F3F832E83812F902FDF91CF919C
S11312801F910F910895FA01AA27283051F12031B6
S113129081F1E8946F936E7F6E5F7F4F8F4F9F4F06
S11312A0AF4FB1E03ED0B4E03CD0670F781F891F48
S11312B09A1FA11D680F791F8A1F911DA11D6A0F16
S11312C0711D811D911DA11D20D009F468943F91C9
S11312D02AE0269F11243019305D3193DEF6CF01C8
S11312E00895462F4770405D4193B3E00FD0C9F78E
S11312F0F6CF462F4F70405D4A3318F0495D31FDFB
S11313004052419302D0A9F7EACFB4E0A69597954D
S1131310879577956795BA95C9F700976105710523
S113132008959B01AC010A2E06945795479537956D
S11313302795BA95C9F7620F731F841F951FA01DC7
S10913400895F894FFCFAC
S113134600000B0320000A4944202569094C3A2071
S1131356256909444154413A0A00256909004D4367
S1131366505F43414E535441543A2025690A004381
S1131376414E20696E697469616C697A65642E0AE6
S1131386000A52454349564544204D455353414767
S1131396453A000A53454E54204D4553534147455B
S11313A63A004D4350323531355F7465737453508A
S11313B6490056616C7565206F6620693A20256977
S11313C6092076616C7565206F66207265673A0937
S11313D625690A00526573657474696E67204D4306
S11313E650323531350053504920636F6D6D756E3B
S11313F669636174696F6E20696E697469616C6989
S11314067A65642E0025690050726F6772616D20DB
S1131416696E697469616C697A65640048616C6CAB
S10D14266F004952200925690A00ED
S9030000FC
