S00D00004E4F4445322E73726563BF
S113000071C000008EC000008CC000008AC00000D7
S113001088C00000F2C0000084C0000082C000005C
S113002080C000007EC000007CC000007AC00000D8
S113003078C0000076C0000074C0000072C00000E8
S113004070C000006EC000006CC000006AC00000F8
S113005068C0000066C0000064C0000062C0000008
S113006060C000005EC000005CC000005AC0000018
S113007058C0000056C0000054C0000052C0000028
S113008050C000004EC000004CC000004AC0000038
S113009048C0000046C0000044C0000042C0000048
S11300A040C000003EC000003CC000003AC0000058
S11300B038C0000036C0000034C0000032C0000068
S11300C030C000002EC000002CC000002AC0000078
S11300D028C0000026C0000024C0000022C0000088
S11300E020C0000011241FBECFEFD1E2DEBFCDBF80
S11300F000E00CBF12E0A0E0B2E0E4E4F0E100E0D4
S11301000BBF02C007900D92A03EB107D9F723E0C0
S1130110A0EEB2E001C01D92A330B207E1F7FFD117
S11301208FC76ECF9093E2028093E1026093E30263
S1130130662341F084EE92E0FC0111922E2F281BDD
S11301402617D8F3089527C10895CF92DF92EF922E
S1130150FF920F931F93CF93DF93CDB7DEB72B9707
S11301600FB6F894DEBF0FBECDBFE982FA82C02E6F
S11301700B831C832D833E834F83588769877A873B
S11301808B871F920F938A818F9389818F9386E047
S113019092E09F938F933AD30F900F900F900F900C
S11301A00F900F900023D1F07E0184E0E80EF11C43
S11301B0D12C0AE112E0F70121917F01822F9927C6
S11301C087FD90959F932F931F930F931FD3D394E1
S11301D00F900F900F900F90DC10EDCF2B960FB671
S11301E0F894DEBF0FBECDBFDF91CF911F910F9169
S11301F0FF90EF90DF90CF9008951F920F920FB66B
S11302000F9211248F9381E08093E0028F910F90DD
S11302100FBE0F901F901895F8946C98EAE6F0E0E2
S113022080818E7F8083808182608083EC9A789441
S11302300895DBD068E088E290E074DF4FEF50E08F
S113024064E680E6B6D04FEF50E064E680E7B1D0D4
S113025041E050E061E08BE2ACD040E050E060EE81
S11302608FE0A7D0D9DF8EE096D09F938F938EE155
S113027092E09F938F93CAD28FE292E0D8D20F90EC
S11302800F900F900F900895CF93DF938CE283D05B
S1130290EC018CE280D082709927C170DD27C82BD5
S11302A0D92BCD2B99F38CE276D080FF07C040E0A8
S11302B050E061E08CE27DD080E00CC08CE26BD039
S11302C081FF07C040E050E062E08CE272D081E040
S11302D001C08FEFDF91CF910895EF92FF920F93BA
S11302E01F93CF93DF938091E002882309F44BC0DE
S11302F01092E002C9DFC82FC295C07F82E68C0F3E
S113030022DF81E68C0F1FDF28E0829FC0011124C9
S11303109093ED028093EC0285E68C0F14DF8F70CE
S11303208093EE02882379F010E0CEEED2E086E6E8
S1130330810F09DFE12FF0E0E451FD4F83831F5F5C
S113034088811817A0F381E492E09F938F935ED283
S1130350E090EC02F090ED020091EE021091EF02B9
S11303602091F0023091F1024091F2025091F30297
S11303706091F4027091F5028091F602E6DE0F902E
S11303800F9081E001C080E0DF91CF911F910F9128
S1130390FF90EF900895CF93C82F36D083E028D0F4
S11303A08C2F26D02AD0C82F31D08C2F90E0CF911B
S11303B008951F93CF93DF93182FD62FC42F24D0E3
S11303C085E016D0812F14D08D2F12D08C2F10D011
S11303D01DD0DF91CF911F91089584E992E027D237
S11303E013D080EC05D012C0089512D0F6CF089532
S11303F08EBD0DB407FEFDCF089580E0F9DF0DB486
S113040007FEFDCF8EB508952F9808952F9A08956D
S1130410209A8CB581608CBD84B1866884B98CB512
S113042080658CBDF3DF86EA92E001C20895E0ECBA
S1130430F0E0908195FFFDCF8093C6000895E0EC35
S1130440F0E080818823ECF78091C60090E0089565
S11304501092C50087E68093C40088E18093C100B0
S11304608EE08093C2006FE172E087E192E084C184
S113047008959B01AC01E1E0F1E080818860808314
S113048060E074E284E796E48DD0F4D07093A70022
S11304906093A6001092A9001092A80081E08093B6
S11304A0F7020895E1E0F1E0808188608083E0EA6A
S11304B0F0E080818E7F8083808182608083A1EAE6
S11304C0B0E08C9188618C93808180688083808186
S11304D08F7B80838C9185608C938C918D7F8C93A2
S11304E083E090E09093A9008093A80081E080933A
S11304F0F70260E070E080E890E4BBCF0895E1E0AB
S1130500F1E08081877F80831092F7020895F89448
S113051090DE9EDF85EC92E08AD178940895F7DF2F
S113052089ED92E084D1BEDF60E070E086E993E477
S1130530A0DF2FEF85EA9EE0215080409040E1F754
S113054000C00000DCDFC9DE8823E9F360E070E06E
S113055086E993E48EDF2FEF85EA9EE02150804008
S11305609040E1F700C0000060E070E088E493E4AC
S113057080DF2FEF85EA9EE0215080409040E1F734
S113058000C0000060E070E088EC92E472DF2FEFBE
S113059085EA9EE0215080409040E1F700C00000D1
S11305A0AEDFD1CF0CD0AEC0A6D040F09DD030F09D
S11305B021F45F3F19F08FC05111D8C092C0B3D05D
S11305C098F39923C9F35523B1F3951B550BBB2716
S11305D0AA2762177307840738F09F5F5F4F220FC3
S11305E0331F441FAA1FA9F333D00E2E3AF0E0E8BC
S11305F030D091505040E695001CCAF729D0FE2F08
S113060027D0660F771F881FBB1F26173707480799
S1130610AB07B0E809F0BB0B802DBF01FF2793584F
S11306205F4F2AF09E3F510568F055C09FC05F3F61
S1130630ECF3983EDCF3869577956795B795F79537
S11306409F5FC9F7880F911D9695879597F908952F
S1130650E1E0660F771F881FBB1F621773078407CB
S1130660BA0720F0621B730B840BBA0BEE1F88F7DA
S1130670E095089504D06894B11178C008955BD0D2
S113068088F09F5790F0B92F9927B751A0F0D1F077
S1130690660F771F881F991F1AF0BA95C9F712C001
S11306A0B13081F062D0B1E008955FC0672F782F38
S11306B08827B85F39F0B93FCCF38695779567956D
S11306C0B395D9F73EF490958095709561957F4FD9
S11306D08F4F9F4F089597F99F6780E870E060E01F
S11306E008959FEF80EC089500240A9416161706C7
S11306F018060906089500240A941216130614060F
S113070005060895092E0394000C11F4882352F071
S1130710BB0F40F4BF2B11F460FF04C06F5F7F4F29
S11307208F4F9F4F089557FD9058440F551F59F010
S11307305F3F71F04795880F97FB991F61F09F3FCA
S113074079F087950895121613061406551FF2CFF3
S11307504695F1DF08C0161617061806991FF1CF43
S113076086957105610508940895E894BB2766276A
S11307707727CB0197F908950F931F93CF93DF93B6
S1130780EC018B01009731F46115710519F480E0D7
S113079090E037C06EE070E081E090E063D2FC014D
S11307A00097A9F380E883830115110571F013877D
S11307B0028781E883838091F9029091FA02892B60
S11307C021F4F093FA02E093F9022097C9F0D1875B
S11307D0C0878381826083838091FB029091FC02B5
S11307E0892B71F4F093FC02E093FB028091FD02EB
S11307F09091FE02892B21F4F093FE02E093FD0216
S1130800CF01DF91CF911F910F910895CF93DF9383
S1130810CDB7DEB7FE01369661917191AF0180913B
S1130820FB029091FC0230D0DF91CF9108950F9399
S11308301F93CF93DF93E091FB02F091FC0223819D
S113084021FF1BC0EC0100E010E089916091FB02E4
S11308507091FC02DB011896ED91FC9119978823A5
S113086031F01995892B89F30FEF1FEFEECF8AE052
S11308701995892B11F4C80102C08FEF9FEFDF9106
S1130880CF911F910F9108952F923F924F925F92B3
S11308906F927F928F929F92AF92BF92CF92DF928C
S11308A0EF92FF920F931F93CF93DF93CDB7DEB7F1
S11308B02C970FB6F894DEBF0FBECDBF7C016B0141
S11308C08A01FC0117821682838181FFB0C1CE01A7
S11308D001964C01F7019381F60193FD859193FFF5
S11308E081916F01882309F49EC1853239F493FD07
S11308F0859193FF81916F01853221F4B70190E0D6
S11309000FD3E8CF512C312C20E02032A0F48B32CD
S113091069F030F4803259F0833269F420612CC0DC
S11309208D3239F0803339F4216026C0226024608E
S113093023C0286021C027FD27C030ED380F3A308E
S113094078F426FF06C0FAE05F9E300D1124532E82
S113095013C08AE0389E300D1124332E20620CC05F
S11309608E3221F426FD5FC1206406C08C3611F45A
S1130970206802C0883641F4F60193FD859193FF07
S113098081916F018111C1CF982F9F7D9554933030
S113099028F40C5F1F4FFFE3F9830DC0833631F059
S11309A0833771F0833509F057C021C0F801808185
S11309B089830E5F1F4F44244394512C540114C067
S11309C03801F2E06F0E711CF801A080B18026FF9F
S11309D003C0652D70E002C06FEF7FEFC5012C8767
S11309E094D22C0183012C852F77222E16C0380136
S11309F0F2E06F0E711CF801A080B18026FF03C0E5
S1130A00652D70E002C06FEF7FEFC5012C876BD2BC
S1130A102C012C852068222E830123FC19C0832DF0
S1130A2090E048165906A0F4B70180E290E078D22D
S1130A303A94F5CFF50127FC859127FE81915F015A
S1130A40B70190E06DD231103A94F1E04F1A510899
S1130A504114510479F7DEC0843611F0893631F53A
S1130A60F80127FF07C060817181828193810C5F47
S1130A701F4F08C060817181882777FD8095982F6A
S1130A800E5F1F4F2F76B22E97FF09C09095809569
S1130A90709561957F4F8F4F9F4F2068B22E2AE04B
S1130AA030E0A4016FD2A82EA81843C0853729F4DA
S1130AB02F7EB22E2AE030E025C0F22FF97FBF2E20
S1130AC08F36C1F018F4883579F0ADC0803719F04D
S1130AD0883721F0A8C02F2F2061B22EB4FE0DC09C
S1130AE08B2D8460B82E09C024FF0AC09F2F966006
S1130AF0B92E06C028E030E005C020E130E002C095
S1130B0020E132E0F801B7FE07C060817181828183
S1130B1093810C5F1F4F06C06081718180E090E07B
S1130B200E5F1F4FA4012ED2A82EA818FB2DFF770D
S1130B30BF2EB6FE0BC02B2D2E7FA51450F4B4FE91
S1130B400AC0B2FC08C02B2D2E7E05C07A2C2B2D9A
S1130B5003C07A2C01C0752C24FF0DC0FE01EA0DE0
S1130B60F11D8081803311F4297E09C022FF06C063
S1130B707394739404C0822F867809F0739423FDD0
S1130B8012C020FF06C05A2C731418F4530C5718C3
S1130B90732C731460F4B70180E290E02C87C0D109
S1130BA073942C85F6CF731410F4371801C0312CCC
S1130BB024FF11C0B70180E390E02C87B1D12C85CC
S1130BC022FF16C021FF03C088E590E002C088E739
S1130BD090E0B7010CC0822F867851F021FD02C04D
S1130BE080E201C08BE227FD8DE2B70190E098D14D
S1130BF0A51430F4B70180E390E092D15A94F8CF71
S1130C00AA94F401EA0DF11D8081B70190E088D126
S1130C10A110F6CF332009F45DCEB70180E290E055
S1130C207FD13A94F7CFF7018681978102C08FEF85
S1130C309FEF2C960FB6F894DEBF0FBECDBFDF91A9
S1130C40CF911F910F91FF90EF90DF90CF90BF90C5
S1130C50AF909F908F907F906F905F904F903F9058
S1130C602F9008950F931F93CF93DF93869F800156
S1130C70879F100D969F100D1124C8010DD0EC0113
S1130C80009721F0A80160E070E038D1CE01DF9137
S1130C90CF911F910F910895CF93DF9382309105E7
S1130CA010F482E090E0E0910103F091020320E06F
S1130CB030E0A0E0B0E0309739F14081518148172D
S1130CC05907B8F04817590771F482819381109736
S1130CD029F013969C938E9312972CC09093020341
S1130CE08093010327C02115310531F042175307C2
S1130CF018F0A901DB0101C0EF019A01BD01DF0178
S1130D000280F381E02DD7CF21153105F9F0281B9E
S1130D10390B2430310580F48A819B81611571057A
S1130D2021F0FB019383828304C090930203809398
S1130D300103FE01329644C0FE01E20FF31F8193CA
S1130D40919322503109398328833AC02091FF02BC
S1130D5030910003232B41F42091020230910302CD
S1130D60309300032093FF0220910002309101028E
S1130D702115310541F42DB73EB74091040250913D
S1130D800502241B350BE091FF02F0910003E217EA
S1130D90F307A0F42E1B3F0B2817390778F0AC019A
S1130DA04E5F5F4F2417350748F04E0F5F1F509377
S1130DB000034093FF028193919302C0E0E0F0E0CE
S1130DC0CF01DF91CF910895CF93DF93009709F47A
S1130DD087C0FC01329713821282C0910103D09123
S1130DE00203209781F420813181280F391F8091DB
S1130DF0FF02909100038217930779F5F0930003A3
S1130E00E093FF026DC0DE0120E030E0AE17BF07C3
S1130E1050F412964D915C9113979D014115510523
S1130E2009F1DA01F3CFB383A28340815181840FA6
S1130E30951F8A179B0771F48D919C911197840FCC
S1130E40951F02969183808312968D919C9113979E
S1130E50938382832115310529F4F0930203E093EF
S1130E6001033EC0D9011396FC93EE9312974D9162
S1130E705D91A40FB51FEA17FB0779F48081918176
S1130E80840F951F0296D90111969C938E938281AB
S1130E90938113969C938E931297E0E0F0E08A81FD
S1130EA09B81009719F0FE01EC01F9CFCE01029667
S1130EB028813981820F931F2091FF023091000312
S1130EC02817390769F4309729F410920203109215
S1130ED0010302C013821282D0930003C093FF0265
S1130EE0DF91CF910895FC0105906150704001108D
S1130EF0D8F7809590958E0F9F1F0895DC0101C04F
S1130F006D9341505040E0F70895FC0161507040EA
S1130F1001900110D8F7809590958E0F9F1F08952A
S1130F200F931F93CF93DF93182F092FEB018B811E
S1130F3081FD03C08FEF9FEF20C082FF10C04E8160
S1130F405F812C813D81421753077CF4E881F9814C
S1130F509F012F5F3F4F39832883108306C0E885A4
S1130F60F985812F1995892B29F72E813F812F5FD0
S1130F703F4F3F832E83812F902FDF91CF911F917D
S1130F800F910895FA01AA27283051F1203181F1F7
S1130F90E8946F936E7F6E5F7F4F8F4F9F4FAF4F7D
S1130FA0B1E03ED0B4E03CD0670F781F891F9A1F90
S1130FB0A11D680F791F8A1F911DA11D6A0F711D44
S1130FC0811D911DA11D20D009F468943F912AE050
S1130FD0269F11243019305D3193DEF6CF01089538
S1130FE0462F4770405D4193B3E00FD0C9F7F6CF69
S1130FF0462F4F70405D4A3318F0495D31FD405231
S1131000419302D0A9F7EACFB4E0A69597958795C6
S113101077956795BA95C9F70097610571050895A5
S11310209B01AC010A2E0694579547953795279551
S1131030BA95C9F7620F731F841F951FA01D0895E9
S1071040F894FFCF4E
S11310440000030320000A4944202569094C3A207E
S1131054256909444154413A0A00256909004D436C
S1131064505F43414E535441543A2025690A004386
S1131074414E20696E697469616C697A65642E0AEB
S1131084000A52454349564544204D45535341476C
S1131094453A000A53454E54204D45535341474560
S11310A43A004D4350323531355F7465737453508F
S11310B4490056616C7565206F6620693A2025697C
S11310C4092076616C7565206F66207265673A093C
S11310D425690A00526573657474696E67204D430B
S11310E450323531350053504920636F6D6D756E40
S11310F469636174696F6E20696E697469616C698E
S11311047A65642E0050726F6772616D20696E692E
S11311147469616C697A65640048616C6C6F000081
S9030000FC
