:10000000C2C00000E0C00000DEC00000DCC0000094
:10001000DAC00000EAC00000D6C00000D4C0000072
:10002000D2C00000D0C00000CEC00000CCC0000094
:10003000CAC00000C8C00000C6C00000C4C00000A4
:10004000C2C00000C0C00000BEC00000BCC00000B4
:10005000BAC00000B8C00000B6C00000B4C00000C4
:10006000B2C00000B0C00000AEC00000ACC00000D4
:10007000AAC00000A8C00000A6C00000A4C00000E4
:10008000A2C00000A0C000009EC000009CC00000F4
:100090009AC0000098C0000096C00000ADC20000E9
:1000A00092C0000090C000008EC000008CC0000014
:1000B0008AC0000088C0000086C0000084C0000024
:1000C00082C0000080C000007EC000007CC0000034
:1000D0007AC0000078C0000076C0000074C0000044
:1000E00072C00000170369036903690369036903A8
:1000F00069036903170369036903690369036903F2
:1001000069036903190369036903690369036903DF
:10011000690369036903690369036903690369037F
:1001200069036903190369036903690369036903BF
:10013000690369036903690369036903690369035F
:100140006903690365036903690369036903690353
:100150006903690342036903690369036903690366
:10016000690369036903690369036903690369032F
:100170006903690336036903690369036903690352
:1001800069036903540311241FBECFEFD1E2DEBF20
:10019000CDBF00E00CBF13E0A0E0B2E0ECE0F4E182
:1001A00000E00BBF02C007900D92AA31B107D9F74A
:1001B00023E0AAE1B3E001C01D92A733B207E1F743
:1001C000AFD10C94040A1CCF90931C0380931B03A3
:1001D00060931D03662341F08EE193E0FC011192D0
:1001E0002E2F281B2617D8F308951F920F920FB6B3
:1001F0000F9211248F9381E080931A038F910F90B7
:100200000FBE0F901F901895F8946C98EAE6F0E0F6
:1002100080818E7F8083808182608083EC9A789455
:10022000089554D068E088E290E0CEDF4FEF50E0D0
:1002300064E680E62FD04FEF50E064E680E72AD0F6
:1002400041E050E061E08BE225D040E050E060EE1C
:100250008FE020D0D9DF8EE00FD09F938F938FE176
:1002600092E09F938F93B6D480E392E0C4D40F9032
:100270000F900F900F900895CF93C82F36D083E042
:1002800028D08C2F26D02AD0C82F31D08C2F90E0A8
:10029000CF9108951F93CF93DF93182FD62FC42F9C
:1002A00024D085E016D0812F14D08D2F12D08C2F22
:1002B00010D01DD0DF91CF911F91089585E992E074
:1002C0009AD413D080EC05D012C0089512D0F6CF86
:1002D00008958EBD0DB407FEFDCF089580E0F9DFCF
:1002E0000DB407FEFDCF8EB508952F9808952F9A6F
:1002F0000895209A8CB581608CBD84B1866884B9DC
:100300008CB580658CBDF3DF87EA92E074C40895F4
:10031000E0ECF0E0908195FFFDCF8093C60008955A
:10032000E0ECF0E080818823ECF78091C60090E05B
:1003300008951092C50087E68093C40088E18093F9
:10034000C1008EE08093C20060E971E088E891E02E
:10035000F7C30895CF93DF938098EAE7F0E08081B8
:1003600087608083ACE7B0E080E48C938C918C93C1
:10037000CBE7D0E08881877F88838081806280831B
:1003800087E088838C9180628C93808180688083F1
:10039000808180648083DF91CF910895E1E0F1E076
:1003A00080818A67808310920701E2E0F1E080811A
:1003B0008061808308951F93CF93DF9300D0CDB7E2
:1003C000DEB7182F1F928F9326EC32E03F932F93C6
:1003D00001D488E289831A821B8363E070E0CE0136
:1003E0000196E8D00F900F900F900F900F900F9004
:1003F0000F90DF91CF911F910895CF93C82F282F91
:10040000332727FD30953F938F932FED32E03F93B5
:100410002F93E0D30F900F900F900F90CF3F19F0D4
:10042000C13031F00AC0E2E0F1E080818D7F80834D
:10043000E2E0F1E0808182608083CF910895CF92E5
:10044000DF92EF92FF92BC018C599F4F893C91053E
:1004500008F046C0882777FD8095982F54D29B01DD
:10046000AC0160E070E088EC92E449D120E030E03B
:1004700048E453E4ADD129E939E949E95FE3F7D22A
:1004800026E636E646E65FE33BD16B017C0126E6D5
:1004900036E646E65FE3E7D288232CF126E636E629
:1004A00046E050E4C701B6018FD11816FCF0C70131
:1004B000B60144D020E030E048EC52E4C701B60178
:1004C000D6D2EED17F936F938CEF92E09F938F9370
:1004D00081D30F900F900F900F9081E090E008C0B3
:1004E0008FEF9FEF05C080E090E002C080E090E0D9
:1004F000FF90EF90DF90CF90089560E070E080EA89
:1005000091E432D080E090E09ACF0895F89489DEAB
:1005100047D044DF0EDF8FEF92E06DD378940895DB
:10052000F5DF83E193E067D3E8DF14DFEFDFC1E0BD
:10053000C1958C2F62DF80E03EDFFACF20E030E013
:100540004AE751E494D2ACD170939900609398003B
:10055000089520E030E04AE751E489D2A1D17093B8
:1005600097006093960008956B9AE0E9F0E020818F
:100570002E7F2083208122602083A1E9B0E02C918E
:1005800028612C9320812068208320812F7B208369
:100590002C9125602C932C912D7F2C93DACF0895EC
:1005A0008CE08093B8008FEF8093BB0084E0809351
:1005B000BC000895ECEBF0E0208120FDFDCF6093BE
:1005C0002803FC0120812093290320FD0CC0623008
:1005D00050F0DC011196EAE2F3E081E09D91919305
:1005E0008F5F8613FBCF1092270388EF809306025C
:1005F00085EA8093BC0008951F920F920FB60F9268
:1006000011240BB60F922F933F938F939F93AF9329
:10061000BF93EF93FF938091B90090E0FC0138976E
:10062000E135F10508F055C0EE58FF4F83C2109236
:100630002603E091260380912803E81770F481E0F7
:100640008E0F80932603F0E0E75DFC4F808180935E
:10065000BB0085E88093BC0043C080912703816084
:100660008093270384E98093BC003AC0E09126037D
:1006700081E08E0F809326038091BB00F0E0E75D60
:10068000FC4F80832091260330E08091280390E086
:1006900001972817390724F485EC8093BC0020C00B
:1006A00085E88093BC001CC08091BB00E0912603CC
:1006B000F0E0E75DFC4F80838091270381608093A9
:1006C000270384E98093BC000BC085EA8093BC00BB
:1006D00007C08091B9008093060284E08093BC003B
:1006E000FF91EF91BF91AF919F918F913F912F918A
:1006F0000F900BBE0F900FBE0F901F901895505883
:10070000BB27AA270ED075C166D130F06BD120F07F
:1007100031F49F3F11F41EF45BC10EF4E095E7FB4A
:1007200051C1E92F77D180F3BA17620773078407A5
:10073000950718F071F49EF58FC10EF4E0950B2E1D
:10074000BA2FA02D0B01B90190010C01CA01A00123
:100750001124FF27591B99F0593F50F4503E68F17E
:100760001A16F040A22F232F342F4427585FF3CFBF
:10077000469537952795A795F0405395C9F77EF490
:100780001F16BA0B620B730B840BBAF09150A1F0D9
:10079000FF0FBB1F661F771F881FC2F70EC0BA0F5F
:1007A000621F731F841F48F4879577956795B795E7
:1007B000F7959E3F08F0B3CF9395880F08F09927DF
:1007C000EE0F979587950895D9D008F481E00895A4
:1007D0000CD00FC107D140F0FED030F021F45F3FC4
:1007E00019F0F0C0511139C1F3C014D198F3992315
:1007F000C9F35523B1F3951B550BBB27AA276217E5
:100800007307840738F09F5F5F4F220F331F441F29
:10081000AA1FA9F333D00E2E3AF0E0E830D0915061
:100820005040E695001CCAF729D0FE2F27D0660F4E
:10083000771F881FBB1F261737074807AB07B0E88D
:1008400009F0BB0B802DBF01FF2793585F4F2AF0A3
:100850009E3F510568F0B6C000C15F3FECF3983E83
:10086000DCF3869577956795B795F7959F5FC9F700
:10087000880F911D9695879597F90895E1E0660F89
:10088000771F881FBB1F621773078407BA0720F002
:10089000621B730B840BBA0BEE1F88F7E09508956B
:1008A00004D06894B111D9C00895BCD088F09F5786
:1008B00090F0B92F9927B751A0F0D1F0660F771FAC
:1008C000881F991F1AF0BA95C9F712C0B13081F08C
:1008D000C3D0B1E00895C0C0672F782F8827B85FD4
:1008E00039F0B93FCCF3869577956795B395D9F7ED
:1008F0003EF490958095709561957F4F8F4F9F4FF7
:100900000895E89409C097FB3EF490958095709502
:1009100061957F4F8F4F9F4F9923A9F0F92F96E94B
:10092000BB279395F695879577956795B795F111C0
:10093000F8CFFAF4BB0F11F460FF1BC06F5F7F4F5D
:100940008F4F9F4F16C0882311F096E911C077236F
:1009500021F09EE8872F762F05C0662371F096E878
:10096000862F70E060E02AF09A95660F771F881F47
:10097000DAF7880F9695879597F90895990F0008EB
:10098000550FAA0BE0E8FEEF16161706E807F90761
:10099000C0F012161306E407F50798F0621B730BFC
:1009A000840B950B39F40A2661F0232B242B252B7D
:1009B00021F408950A2609F4A140A6958FEF811D20
:1009C000811D089597F99F6780E870E060E00895C1
:1009D0009FEF80EC089500240A9416161706180657
:1009E0000906089500240A94121613061406050633
:1009F0000895092E0394000C11F4882352F0BB0FC4
:100A000040F4BF2B11F460FF04C06F5F7F4F8F4F26
:100A10009F4F089557FD9058440F551F59F05F3F61
:100A200071F04795880F97FB991F61F09F3F79F010
:100A300087950895121613061406551FF2CF469592
:100A4000F1DF08C0161617061806991FF1CF869514
:100A50007105610508940895E894BB2766277727F8
:100A6000CB0197F908958ADF08F48FEF08950BD032
:100A7000C0CFB1DF28F0B6DF18F0952309F0A2CF80
:100A8000A7CF1124EACFC6DFA0F3959FD1F3950F2E
:100A900050E0551F629FF001729FBB27F00DB11D02
:100AA000639FAA27F00DB11DAA1F649F6627B00D92
:100AB000A11D661F829F2227B00DA11D621F739F7B
:100AC000B00DA11D621F839FA00D611D221F749F89
:100AD0003327A00D611D231F849F600D211D822FD0
:100AE000762F6A2F11249F5750408AF0E1F0882317
:100AF0004AF0EE0FFF1FBB1F661F771F881F915024
:100B00005040A9F79E3F510570F05CCFA6CF5F3FE4
:100B1000ECF3983EDCF3869577956795B795F79556
:100B2000E7959F5FC1F7FE2B880F911D96958795DE
:100B300097F90895EE0FFF1F0590F491E02D199499
:100B40000F931F93CF93DF93EC018B01009731F448
:100B50006115710519F480E090E037C06EE070E037
:100B600081E090E063D2FC010097A9F380E88383E1
:100B70000115110571F01387028781E88383809145
:100B80002D0390912E03892B21F4F0932E03E093F3
:100B90002D032097C9F0D187C0878381826083832A
:100BA00080912F0390913003892B71F4F0933003DF
:100BB000E0932F038091310390913203892B21F42C
:100BC000F0933203E0933103CF01DF91CF911F9176
:100BD0000F910895CF93DF93CDB7DEB7FE01369620
:100BE00061917191AF0180912F039091300330D0CA
:100BF000DF91CF9108950F931F93CF93DF93E091EF
:100C00002F03F0913003238121FF1BC0EC0100E092
:100C100010E0899160912F0370913003DB011896E9
:100C2000ED91FC911997882331F01995892B89F35F
:100C30000FEF1FEFEECF8AE01995892B11F4C80151
:100C400002C08FEF9FEFDF91CF911F910F91089519
:100C50002F923F924F925F926F927F928F929F92CC
:100C6000AF92BF92CF92DF92EF92FF920F931F93BA
:100C7000CF93DF93CDB7DEB72C970FB6F894DEBFD6
:100C80000FBECDBF7C016B018A01FC011782168269
:100C9000838181FFB0C1CE0101964C01F7019381A0
:100CA000F60193FD859193FF81916F01882309F4EB
:100CB0009EC1853239F493FD859193FF81916F0137
:100CC000853221F4B70190E00FD3E8CF512C312CBD
:100CD00020E02032A0F48B3269F030F4803259F0F9
:100CE000833269F420612CC08D3239F0803339F4BD
:100CF000216026C02260246023C0286021C027FD17
:100D000027C030ED380F3A3078F426FF06C0FAE0FD
:100D10005F9E300D1124532E13C08AE0389E300D93
:100D20001124332E20620CC08E3221F426FD5FC1C7
:100D3000206406C08C3611F4206802C0883641F465
:100D4000F60193FD859193FF81916F018111C1CFD0
:100D5000982F9F7D9554933028F40C5F1F4FFFE32D
:100D6000F9830DC0833631F0833771F0833509F094
:100D700057C021C0F801808189830E5F1F4F442432
:100D80004394512C540114C03801F2E06F0E711CD1
:100D9000F801A080B18026FF03C0652D70E002C07D
:100DA0006FEF7FEFC5012C8794D22C0183012C8536
:100DB0002F77222E16C03801F2E06F0E711CF80159
:100DC000A080B18026FF03C0652D70E002C06FEFE8
:100DD0007FEFC5012C876BD22C012C852068222E39
:100DE000830123FC19C0832D90E048165906A0F416
:100DF000B70180E290E078D23A94F5CFF50127FC74
:100E0000859127FE81915F01B70190E06DD231108D
:100E10003A94F1E04F1A51084114510479F7DEC0B9
:100E2000843611F0893631F5F80127FF07C060815B
:100E30007181828193810C5F1F4F08C06081718135
:100E4000882777FD8095982F0E5F1F4F2F76B22E43
:100E500097FF09C090958095709561957F4F8F4F52
:100E60009F4F2068B22E2AE030E0A4016FD2A82E56
:100E7000A81843C0853729F42F7EB22E2AE030E02F
:100E800025C0F22FF97FBF2E8F36C1F018F48835B8
:100E900079F0ADC0803719F0883721F0A8C02F2F26
:100EA0002061B22EB4FE0DC08B2D8460B82E09C017
:100EB00024FF0AC09F2F9660B92E06C028E030E0BC
:100EC00005C020E130E002C020E132E0F801B7FEC9
:100ED00007C060817181828193810C5F1F4F06C0C2
:100EE0006081718180E090E00E5F1F4FA4012ED2DF
:100EF000A82EA818FB2DFF77BF2EB6FE0BC02B2DFA
:100F00002E7FA51450F4B4FE0AC0B2FC08C02B2DED
:100F10002E7E05C07A2C2B2D03C07A2C01C0752C97
:100F200024FF0DC0FE01EA0DF11D8081803311F414
:100F3000297E09C022FF06C07394739404C0822FD7
:100F4000867809F0739423FD12C020FF06C05A2C46
:100F5000731418F4530C5718732C731460F4B701FE
:100F600080E290E02C87C0D173942C85F6CF731467
:100F700010F4371801C0312C24FF11C0B70180E3F1
:100F800090E02C87B1D12C8522FF16C021FF03C031
:100F900088E590E002C088E790E0B7010CC0822F9E
:100FA000867851F021FD02C080E201C08BE227FD6E
:100FB0008DE2B70190E098D1A51430F4B70180E339
:100FC00090E092D15A94F8CFAA94F401EA0DF11D61
:100FD0008081B70190E088D1A110F6CF332009F4C9
:100FE0005DCEB70180E290E07FD13A94F7CFF70170
:100FF0008681978102C08FEF9FEF2C960FB6F894F1
:10100000DEBF0FBECDBFDF91CF911F910F91FF903B
:10101000EF90DF90CF90BF90AF909F908F907F9098
:101020006F905F904F903F902F9008950F931F9374
:10103000CF93DF93869F8001879F100D969F100DA1
:101040001124C8010DD0EC01009721F0A80160E047
:1010500070E038D1CE01DF91CF911F910F910895AB
:10106000CF93DF938230910510F482E090E0E0911D
:101070003503F091360320E030E0A0E0B0E0309797
:1010800039F14081518148175907B8F0481759077D
:1010900071F482819381109729F013969C938E931B
:1010A00012972CC0909336038093350327C02115E7
:1010B000310531F04217530718F0A901DB0101C0D7
:1010C000EF019A01BD01DF010280F381E02DD7CF4E
:1010D00021153105F9F0281B390B2430310580F436
:1010E0008A819B816115710521F0FB0193838283C5
:1010F00004C09093360380933503FE01329644C0BA
:10110000FE01E20FF31F819391932250310939833D
:1011100028833AC02091330330913403232B41F4C8
:101120002091020230910302309334032093330361
:1011300020910002309101022115310541F42DB7B3
:101140003EB74091040250910502241B350BE091FB
:101150003303F0913403E217F307A0F42E1B3F0B87
:101160002817390778F0AC014E5F5F4F2417350719
:1011700048F04E0F5F1F5093340340933303819325
:10118000919302C0E0E0F0E0CF01DF91CF910895AC
:10119000CF93DF93009709F487C0FC013297138245
:1011A0001282C0913503D0913603209781F42081BB
:1011B0003181280F391F80913303909134038217B6
:1011C000930779F5F0933403E09333036DC0DE01A8
:1011D00020E030E0AE17BF0750F412964D915C91BD
:1011E00013979D014115510509F1DA01F3CFB3833E
:1011F000A28340815181840F951F8A179B0771F448
:101200008D919C911197840F951F029691838083F5
:1012100012968D919C9113979383828321153105AA
:1012200029F4F0933603E09335033EC0D9011396B9
:10123000FC93EE9312974D915D91A40FB51FEA17A1
:10124000FB0779F480819181840F951F0296D90163
:1012500011969C938E938281938113969C938E9387
:101260001297E0E0F0E08A819B81009719F0FE017F
:10127000EC01F9CFCE01029628813981820F931FAC
:1012800020913303309134032817390769F43097DC
:1012900029F4109236031092350302C01382128291
:1012A000D0933403C0933303DF91CF910895FC01B1
:1012B0000590615070400110D8F7809590958E0F81
:1012C0009F1F0895DC0101C06D9341505040E0F72D
:1012D0000895FC016150704001900110D8F780958D
:1012E00090958E0F9F1F08950F931F93CF93DF93B9
:1012F000182F092FEB018B8181FD03C08FEF9FEF2A
:1013000020C082FF10C04E815F812C813D81421739
:1013100053077CF4E881F9819F012F5F3F4F3983A8
:101320002883108306C0E885F985812F1995892BBC
:1013300029F72E813F812F5F3F4F3F832E83812FDF
:10134000902FDF91CF911F910F910895FA01AA2755
:10135000283051F1203181F1E8946F936E7F6E5FF8
:101360007F4F8F4F9F4FAF4FB1E03ED0B4E03CD0A6
:10137000670F781F891F9A1FA11D680F791F8A1F89
:10138000911DA11D6A0F711D811D911DA11D20D0F0
:1013900009F468943F912AE0269F11243019305DAA
:1013A0003193DEF6CF010895462F4770405D41939B
:1013B000B3E00FD0C9F7F6CF462F4F70405D4A33E8
:1013C00018F0495D31FD4052419302D0A9F7EACFB0
:1013D000B4E0A6959795879577956795BA95C9F7DF
:1013E00000976105710508959B01AC010A2E0694D2
:1013F0005795479537952795BA95C9F7620F731F8B
:0C140000841F951FA01D0895F894FFCFD5
:10140C00000037032000F80A4944202569094C3AAA
:10141C0020256909444154413A0A00256909004DC7
:10142C0043505F43414E535441543A2025690A00BE
:10143C0043414E20696E697469616C697A65642EEA
:10144C000A000A52454349564544204D45535341E1
:10145C0047453A000A53454E54204D455353414796
:10146C00453A004D4350323531355F7465737453D2
:10147C0050490056616C7565206F6620693A2025CD
:10148C0069092076616C7565206F66207265673A14
:10149C000925690A00526573657474696E67204D7D
:1014AC004350323531350053504920636F6D6D75A3
:1014BC006E69636174696F6E20696E697469616CC1
:1014CC00697A65642E0053657474696E67206D6F5C
:1014DC00746F722073706565643A2025690A005335
:1014EC00657474696E67206D6F746F7220646972B5
:1014FC00656374696F6E3A2025690A00256900508E
:10150C00726F6772616D20696E697469616C697A5A
:0A151C0065640048616C6C6F00000C
:00000001FF
